:02000000542C7E
:10000800FF00030E8301D0000A08D1008A0170089E
:10001800A1007108A0000408A2008C1E46284224F2
:100028007008003A031D1928132842247008013A61
:10003800031D462849247008B7007008533A031D69
:100048002C28A7012708383E840037088000A70A13
:100058003708533A03193A283708453A03193A2812
:100068002708383E840037088000A70A3708453A31
:10007800031D46282708383E840037088000A7015A
:100088000130AA002108F0002008F10022088400AD
:0E00980051088A00500E8300FF0E7F0E0900F3
:1000A600710DF80DF90D7408F8027508031C750F2B
:1000B600F902F00DF10D0F30FC00710DF80DF90D80
:1000C6007408701C6C28F8027508031C750FF90279
:1000D6007128F80775080318750FF907F00DF10D6B
:1000E600FC0B602870187D287408F807750803183B
:0800F600750FF9070000080076
:0E00FE0000308316031398180130F00008003C
:10010C008316031398188C280000862883125B082A
:04011C00990008003E
:100120008316031398169030831298008316861452
:10013000061183128C1E9F281A08F00099280800C7
:10014000831203138615D901DA018030F000803064
:100150005A067002031DAE2859080A3C031CC12828
:100160007F207008003A031DB628B0288312590872
:10017000580784000008DB008620D90A0319DA0A30
:06018000A528861108000D
:10018600043083120313FC003A30FD00FD0BC9282E
:08019600FC0BC9280000080061
:0E019E008312031336088A0035088200080019
:1001AC00831203137408003A031DE5287508003AFE
:1001BC00031DE528FF30F0007F30F1003E2983124B
:1001CC000313FD01F901F8017108700403190034DF
:1001DC0071087506FA00FA1BFD09FB01F51FFB28D7
:1001EC00F409F509F40A0319F50AF11F0229F009BB
:1001FC00F109F00A0319F10A71087504FA00FA1BE7
:10020C00172953207B182A29FD1F0034F009F10906
:10021C00F00A0319F10AF809F909F80A0319F90A9D
:10022C000034F51F2629F11B22297108F9007008EA
:10023C00F800F101F0010A29F101F001F00A003493
:10024C00F109F009FB0A0729F80A0319F90A7408DD
:10025C007802031D0A2975087902031D0A29F90180
:10026C00F801F00A0319F10AF11F0A290000FF3402
:02027C00080078
:10027E0083120313FB01FA01F9018030F800F10C2F
:10028E00F00C031C53297408F90775080318750F31
:10029E00FA070318FB0A0310F01F5B297408FA070C
:1002AE0075080318750FFB07FB0CFA0CF90CF80C0C
:1002BE00031C46297B08F3007A08F2007908F10046
:0602CE007808F0000800B2
:1002D40083120313D8018316061083120610753097
:1002E400FC00E130FD00FD0B7529FC0B752906149B
:1002F4003130FD00FD0B7C2900000000831606143C
:100304004230FD00FD0B8429000083120618972952
:100314008530FD00FD0B8C29061C92290130D80084
:100324004230FD00FD0B942900005808013A031DDA
:10033400E02AF401083074020318D2290618A3290C
:10034400A0293130FD00FD0BA5290000000006188E
:10035400BD297408073CF0007008F1000130F0007A
:1003640071080319B929F00D7010FF3EB329F00983
:100374007008F305D0297408073CF0007008F100F8
:100384000130F00071080319CB29F00D7010FF3E05
:10039400C5297008F304061CD029CD29F40A9C2928
:1003A4007308F600F4010830740203180D2A83124E
:1003B4000618DD29D9293130FD00FD0BDF290000A5
:1003C40000000618F7297408073CF0007008F100D3
:1003D4000130F00071080319F329F00D7010FF3E8D
:1003E400ED29F0097008F3050B2A7408073CF000A6
:1003F4007008F1000130F00071080319052AF00DAE
:100404007010FF3EFF297008F3048312061C0B2AA8
:10041400072AF40AD529F401083074020318462A7D
:1004240083120618162A122A3130FD00FD0B182AF1
:10043400000000000618302A7408073CF000700819
:10044400F1000130F000710803192C2AF00D70102E
:10045400FF3E262AF0097008F305442A7408073C75
:10046400F0007008F1000130F000710803193E2A11
:10047400F00D7010FF3E382A7008F3048312061C36
:10048400442A402AF40A0E2A7308F500F4010830BD
:1004940074020318812A83120618512A4D2A313016
:1004A400FD00FD0B532A0000000006186B2A740897
:1004B400073CF0007008F1000130F00071080319E6
:1004C400672AF00D7010FF3E612AF0097008F305E9
:1004D4007F2A7408073CF0007008F1000130F00036
:1004E40071080319792AF00D7010FF3E732A700801
:1004F400F3048312061C7F2A7B2AF40A492AF40196
:10050400083074020318BA2A831206188A2A862A23
:100514003130FD00FD0B8C2A000000000618A42ACF
:100524007408073CF0007008F1000130F000710815
:100534000319A02AF00D7010FF3E9A2AF0097008E2
:10054400F305B82A7408073CF0007008F100013084
:10055400F00071080319B22AF00D7010FF3EAC2AA6
:100564007008F3048312061CB82AB42AF40A822AF7
:1005740075087607F100F2010318F20A00307206DA
:10058400031DC62A71087306031DD72A7608F700CF
:10059400F8017708F100F0017508F0040030F10467
:1005A4007008F7007108F800E82A5830F70058304E
:1005B400F8005830F0005830F100E82A6330F700B2
:0E05C4006330F8006330F0006330F10008008F
:1005D200533083120313C3003030C4003330C500DC
:1005E2004330C6003030C7003130C8003030C90057
:1005F2003030CA0030302507CB004730CC004530C0
:0A060200CD004330D800A02008000E
:08060C0083120313051008001E
:100614006A21831203137008AD007108AE00AF01A4
:10062400B0012E08D4002F08D5003008D6000030C1
:10063400B01BFF30D7005408CE005508CF000A3055
:10064400F4000030F5005408F0005508F100D620FD
:100654007008D2007108D3005208B3005308B400E4
:100664000A30F0000030F1005208F4005308F5009D
:100674003F2170085402F0007108031C013E55022A
:10068400F1007008B1007108B2005330C30030307B
:10069400C4003330C5004330C6003030C7003130A9
:1006A400C8003030C90030305207CA0030307007FB
:1006B400CB004830CC004530CD004330D800A020DA
:0206C40008002C
:1006C6006A21831203137008AD007108AE00AF01F2
:1006D600B001FF302D05D4002E08D5000030D50519
:1006E6005408AB005508AC000A30F4000030F500A1
:1006F6005408F0005508F100D6207008D2007108A1
:10070600D3005208B3005308B4000A30F00000309A
:10071600F1005208F4005308F5003F217008540216
:10072600F0007108031C013E5502F1007008B1008B
:100736007108B2005330C3003030C4003330C500F6
:100746004330C6003030C7003130C8003030C900F1
:1007560030305207CA0030307007CB005430CC001E
:0C0766004530CD004330D800A020080032
:10077200533083120313C3003030C4003330C5003A
:100782004330C6003030C7003130C8003030C900B5
:100792003030CA0030302807CB004D30CC00453015
:0A07A200CD004330D800A02008006D
:0807AC00831203130514080079
:1007B400813083160313990018159020831686112F
:1007C4000330FB008A30FC005530FD00FD0BE82BA4
:1007D400FC0BE82BFB0BE82B000000008C160C1222
:0607E4000B178B17080043
:1007EA0083160313061686160510831205100800D1
:1007FA0083120313D7015308F1000130F000710886
:10080A0003190B2CF00D7010FF3E052C7008D60052
:10081A005208840070080005F10071080130031DB8
:10082A000030F0005508F0060319332C5408003C38
:10083A000318232CC320C320D4031B2C5208840082
:10084A0056080005F10071080130031D0030F00060
:10085A005508F0060319332CFF30D7005708F0006B
:02086A00080084
:10086C00CF208A110A128000840AB50A0319B60A2D
:08087C00F003031D362C0800F7
:0E0884000030831203138C1A0130F0000800BC
:10089200831203131A08F100981C512C181218160F
:0608A2007108F0000800DF
:1008A80083120313A301A401A501A601A701A801AE
:1008B800A901AA01F523DA23D6230330FB008A30E5
:1008C800FC005530FD00FD0B672CFC0B672CFB0B67
:1008D800672C000000002A08013A031DA52CAA0174
:1008E8003908313A031DA52C3A08333A031DA52CC3
:1008F8003B08433A031DA52C3C08303A031DA52CA0
:100908003D08313A031DA52C4108543A031D8D2C8E
:1009180063234108483A031D922C0A2341084D3AA3
:10092800031D972CB9230330FB008A30FC00553097
:10093800FD00FD0B9D2CFC0B9D2CFB0B9D2C000042
:1009480000000630D2000530D3000130D400D501B4
:10095800FD2370080319B42C0130A8000030A90049
:100968000630D2000430D3000130D400D501FD2375
:1009780070080319ED2C0130A5000030A600A30A69
:100988000319A40AFD302402031DCC2CE8302302ED
:10099800031CD22C0130A3000030A40080302406B0
:1009A800F00080307002031DDB2C0F302302031C83
:1009B800DF2CE92206230D30FB00AF30FC00B630F7
:1009C800FD00FD0BE52CFC0BE52CFB0BE52C0000DA
:0E09D800F12CA501A601A301A4016F2CF22CA5
:02400E006A2125
:00000001FF
