:02000000572C7B
:10000800FF00030E8301D0000A08D1008A0170089E
:10001800A1007108A0000408A2008C1E46284524EF
:100028007008003A031D1928132845247008013A5E
:10003800031D46284C247008C2007008533A031D5B
:100048002C28A5012508373E840042088000A50A0F
:100058004208533A03193A284208453A03193A28FC
:100068002508373E840042088000A50A4208453A20
:10007800031D46282508373E840042088000A50154
:100088000130A6002108F0002008F10022088400B1
:0E00980051088A00500E8300FF0E7F0E0900F3
:1000A600710DF80DF90D7408F8027508031C750F2B
:1000B600F902F00DF10D0F30FC00710DF80DF90D80
:1000C6007408701C6C28F8027508031C750FF90279
:1000D6007128F80775080318750FF907F00DF10D6B
:1000E600FC0B602870187D287408F807750803183B
:0800F600750FF9070000080076
:0E00FE0000308316031398180130F00008003C
:10010C008316031398188C280000862883125B082A
:04011C00990008003E
:10012000043083120313FC003A30FD00FD0B9628C7
:08013000FC0B962800000800FA
:10013800831203138615D901DA018030F00080306C
:100148005A067002031DAA2859080A3C031CBD2838
:100158007F207008003A031DB228AC288312590882
:10016800580784000008DB008620D90A0319DA0A38
:10017800A1280330FB008A30FC005530FD00FD0B40
:10018800C328FC0BC328FB0BC32800000000861102
:0201980008005D
:10019A0083120313D80183160610831206107530D2
:1001AA00FC00E130FD00FD0BD828FC0BD828061412
:1001BA003130FD00FD0BDF28000000008316061415
:1001CA004230FD00FD0BE728000083120618FA28CA
:1001DA008530FD00FD0BEF28061CF5280130D800FC
:1001EA004230FD00FD0BF72800005808013A031DB4
:1001FA00432AF4010830740203183529061806291F
:10020A0003293130FD00FD0B082900000000061803
:10021A0020297408073CF0007008F1000130F00052
:10022A00710803191C29F00D7010FF3E1629F009F8
:10023A007008F30533297408073CF0007008F100D0
:10024A000130F000710803192E29F00D7010FF3EDD
:10025A0028297008F304061C33293029F40AFF28D8
:10026A007308F600F4010830740203187029831227
:10027A00061840293C293130FD00FD0B42290000B7
:10028A00000006185A297408073CF0007008F100AB
:10029A000130F000710803195629F00D7010FF3E65
:1002AA005029F0097008F3056E297408073CF0001C
:1002BA007008F1000130F000710803196829F00D87
:1002CA007010FF3E62297008F3048312061C6E291F
:1002DA006A29F40A3829F401083074020318A92992
:1002EA0083120618792975293130FD00FD0B7B2907
:1002FA0000000000061893297408073CF0007008F3
:10030A00F1000130F000710803198F29F00D701007
:10031A00FF3E8929F0097008F305A7297408073CEC
:10032A00F0007008F1000130F00071080319A129EA
:10033A00F00D7010FF3E9B297008F3048312061C0F
:10034A00A729A329F40A71297308F500F4010830D2
:10035A0074020318E42983120618B429B02931302B
:10036A00FD00FD0BB629000000000618CE2974080E
:10037A00073CF0007008F1000130F0007108031921
:10038A00CA29F00D7010FF3EC429F0097008F30560
:10039A00E2297408073CF0007008F1000130F0000F
:1003AA0071080319DC29F00D7010FF3ED629700878
:1003BA00F3048312061CE229DE29F40AAC29F401AB
:1003CA000830740203181D2A83120618ED29E92938
:1003DA003130FD00FD0BEF29000000000618072A46
:1003EA007408073CF0007008F1000130F000710851
:1003FA000319032AF00D7010FF3EFD29F009700859
:10040A00F3051B2A7408073CF0007008F10001305C
:10041A00F00071080319152AF00D7010FF3E0F2A1B
:10042A007008F3048312061C1B2A172AF40AE5290A
:10043A0075087607F100F2010318F20A0030720615
:10044A00031D292A71087306031D3A2A7608F70044
:10045A00F8017708F100F0017508F0040030F104A2
:10046A007008F7007108F8004B2A5830F700583026
:10047A00F8005830F0005830F1004B2A6330F7008A
:0E048A006330F8006330F0006330F1000800CA
:1004980083160313981690308312980083168614D7
:1004A800061183128C1E5B2A1A08F000552A0800D0
:0E04B8008312031336088A00350882000800FC
:1004C600831203137408003A031D722A7508003A52
:1004D600031D722AFF30F0007F30F100CB2A831211
:1004E6000313FD01F901F8017108700403190034C2
:1004F60071087506FA00FA1BFD09FB01F51F882A2B
:10050600F409F509F40A0319F50AF11F8F2AF0090F
:10051600F109F00A0319F10A71087504FA00FA1BC9
:10052600A42A53207B18B72AFD1F0034F009F109CD
:10053600F00A0319F10AF809F909F80A0319F90A80
:100546000034F51FB32AF11BAF2A7108F9007008B1
:10055600F800F101F001972AF101F001F00A0034E8
:10056600F109F009FB0A942AF80A0319F90A740832
:100576007802031D972A75087902031D972AF90147
:10058600F801F00A0319F10AF11F972A0000FF3457
:0205960008005B
:1005980083120313FB01FA01F9018030F800F10C12
:1005A800F00C031CE02A7408F90775080318750F86
:1005B800FA070318FB0A0310F01FE82A7408FA0761
:1005C80075080318750FFB07FB0CFA0CF90CF80CEF
:1005D800031CD32A7B08F3007A08F2007908F1009B
:0605E8007808F000080095
:1005EE00533083120313C3003030C4003330C500C0
:1005FE004330C6003030C7003130C8003030C9003B
:10060E003030CA0030302907CB004730CC0045309F
:0A061E00CD004330D8009C200800F6
:1006280083120313D7015308F1000130F000710859
:100638000319222BF00D7010FF3E1C2B7008D600FA
:100648005208840070080005F10071080130031D8C
:100658000030F0005508F00603194A2B5408003CF6
:1006680003183A2B90209020D403322B5208840090
:1006780056080005F10071080130031D0030F00034
:100688005508F00603194A2BFF30D7005708F00029
:02069800080058
:10069A00CD20831203137008AD007108AE00AF01BC
:1006AA00B001FF302D05D4002E08D5000030D50545
:1006BA005408CE005508CF000A30F4000030F50087
:1006CA005408F0005508F10063227008D20071083E
:1006DA00D3005208B3005308B4000A30F0000030C7
:1006EA00F1005208F4005308F500CC2270085402B5
:1006FA00F0007108031C013E5502F1007008B100B8
:10070A007108B2005330C3003030C4003330C50022
:10071A004330C6003030C7003130C8003030C9001D
:10072A0030305207CA0030307007CB005430CC004A
:0C073A004530CD004330D8009C20080062
:10074600CD20831203137008AD007108AE00AF010F
:10075600B0012E08D4002F08D5003008D60000308E
:10076600B01BFF30D7005408AB005508AC000A3068
:10077600F4000030F5005408F0005508F10063223B
:100786007008D2007108D3005208B3005308B400B1
:100796000A30F0000030F1005208F4005308F5006A
:1007A600CC2270085402F0007108031C013E550269
:1007B600F1007008B1007108B2005330C300303048
:1007C600C4003330C5004330C6003030C700313076
:1007D600C8003030C90030305207CA0030307007C8
:1007E600CB004830CC004530CD004330D8009C20AB
:0207F6000800F9
:1007F800813083160313990018154C22831686112D
:100808000330FB008A30FC005530FD00FD0B0A2C3C
:10081800FC0B0A2CFB0B0A2C000000008C160C1297
:060828000B178B170800FE
:0A082E008316031306168616080051
:10083800533083120313C3003030C4003330C50073
:100848004330C6003030C7003130C8003030C900EE
:100858003030CA0030302707CB004D30CC0045304F
:0A086800CD004330D8009C200800AA
:100872005C228A110A128000840AB50A0319B60A98
:08088200F003031D392C0800EE
:0E088A000030831203138C1A0130F0000800B6
:10089800831203131A08F100981C542C1812181606
:0608A8007108F0000800D9
:1008AE0083120313A301A401A501A601A701A801A8
:1008BE00A901AA011724FC2353308312C300303040
:1008CE00C4003030C5004230C6003030C700313071
:1008DE00C8004430C9003030CA003130CB0031304E
:1008EE00CC004530CD004330D8009C200330FB00B7
:1008FE008A30FC005530FD00FD0B832CFC0B832C45
:10090E00FB0B832C000000002608013A031DC12CAE
:10091E00A6013808313A031DC12C3908333A031D9C
:10092E00C12C3A08433A031DC12C3B08303A031D33
:10093E00C12C3C08313A031DC12C4008543A031D0A
:10094E00A92C4D234008483A031DAE2CA323400882
:10095E004D3A031DB32C1C240330FB008A30FC00DF
:10096E005530FD00FD0BB92CFC0BB92CFB0BB92C33
:10097E00000000000630D2000530D3000130D40054
:10098E000130D500142370080319D12C0130A700B3
:10099E000030A8000630D2000430D3000130D4005D
:1009AE00D501142370080319092D0130A900003058
:1009BE00AA00A30A0319A40AFD302402031DE92C80
:1009CE00E8302302031CEF2C0130A3000030A400FA
:1009DE0080302406F00080307002031DF82C0F309A
:1009EE002302031CFB2CF7220D30FB00AF30FC0062
:1009FE00B630FD00FD0B012DFC0B012DFB0B012D67
:100A0E0000000D2DA901AA01A301A4018B2C0E2D0E
:02400E006A2125
:00000001FF
