:02000000132DBE
:10000800FF00030E8301CF000A08CE008A017008A2
:10001800A1007108A0000408A2008C1E4628012532
:100028007008003A031D1928132801257008013AA1
:10003800031D462808257008AD007008533A031DB3
:100048002C28A8012808323E84002D088000A80A20
:100058002D08533A03193A282D08453A03193A2826
:100068002808323E84002D088000A80A2D08453A49
:10007800031D46282808323E84002D088000A80168
:100088000130A3002108F0002008F10022088400B4
:0E0098004E088A004F0E8300FF0E7F0E0900F7
:1000A600710DF80DF90D7408F8027508031C750F2B
:1000B600F902F00DF10D0F30FC00710DF80DF90D80
:1000C6007408701C6C28F8027508031C750FF90279
:1000D6007128F80775080318750FF907F00DF10D6B
:1000E600FC0B602870187D287408F807750803183B
:0800F600750FF9070000080076
:0E00FE0000308316031398180130F00008003C
:10010C008316031398188C2800008628831259082C
:04011C00990008003E
:10012000831203138615D701D8018030F000803088
:1001300058067002031D9E2857080A3C031CB1286C
:100140007F207008003A031DA628A02883125708B4
:10015000560784000008D9008620D70A0319D80A58
:1001600095280330FB008A30FC005530FD00FD0B64
:10017000B728FC0BB728FB0BB7280000000086113E
:02018000080075
:1001820083160313981690308312980083168614F0
:10019200061183128C1ED0281A08F000CA28080003
:1001A20083120313FB01FA01F9018030F800F10C0C
:1001B200F00C031CE5287408F90775080318750F7D
:1001C200FA070318FB0A0310F01FED287408FA0758
:1001D20075080318750FFB07FB0CFA0CF90CF80CE9
:1001E200031CD8287B08F3007A08F2007908F10092
:0601F2007808F00008008F
:0E01F800831203132F088A002E0882000800CD
:080206008312031386120800A5
:10020E00831203137408003A031D16297508003A69
:10021E00031D1629FF30F0007F30F1006F29831285
:10022E000313FD01F901F80171087004031900347C
:10023E0071087506FA00FA1BFD09FB01F51F2C2942
:10024E00F409F509F40A0319F50AF11F3329F00927
:10025E00F109F00A0319F10A71087504FA00FA1B84
:10026E00482953207B185B29FD1F0034F009F10942
:10027E00F00A0319F10AF809F909F80A0319F90A3B
:10028E000034F51F5729F11B53297108F900700826
:10029E00F800F101F0013B29F101F001F00A003400
:1002AE00F109F009FB0A3829F80A0319F90A74084A
:1002BE007802031D3B2975087902031D3B29F901BC
:1002CE00F801F00A0319F10AF11F3B290000FF346F
:0202DE00080016
:0802E0008312031386160800C7
:1002E800043083120313FC003A30FD00FD0B7A2919
:0802F800FC0B7A29000008004C
:1003000083120313D601831606108312061075306C
:10031000FC00E130FD00FD0B8B29FC0B8B29061442
:100320003130FD00FD0B92290000000083160614F9
:100330004230FD00FD0B9A29000083120618AD29FA
:100340008530FD00FD0BA229061CA8290130D6002E
:100350004230FD00FD0BAA2900005608013A031D9A
:10036000F62AF401083074020318E8290618B9299E
:10037000B6293130FD00FD0BBB2900000000061836
:10038000D3297408073CF0007008F1000130F00038
:1003900071080319CF29F00D7010FF3EC929F0092B
:1003A0007008F305E6297408073CF0007008F100B6
:1003B0000130F00071080319E129F00D7010FF3EC3
:1003C000DB297008F304061CE629E329F40AB229A4
:1003D0007308F600F401083074020318232A83120C
:1003E0000618F329EF293130FD00FD0BF529000037
:1003F000000006180D2A7408073CF0007008F10090
:100400000130F00071080319092AF00D7010FF3E49
:10041000032AF0097008F305212A7408073CF0004C
:100420007008F1000130F000710803191B2AF00D6B
:100430007010FF3E152A7008F3048312061C212A4F
:100440001D2AF40AEB29F4010830740203185C2A0F
:10045000831206182C2A282A3130FD00FD0B2E2A83
:10046000000000000618462A7408073CF0007008D7
:10047000F1000130F00071080319422AF00D7010EC
:10048000FF3E3C2AF0097008F3055A2A7408073C1D
:10049000F0007008F1000130F00071080319542ACF
:1004A000F00D7010FF3E4E2A7008F3048312061CF4
:1004B0005A2A562AF40A242A7308F500F40108304F
:1004C00074020318972A83120618672A632A3130A8
:1004D000FD00FD0B692A000000000618812A74083F
:1004E000073CF0007008F1000130F00071080319BA
:1004F0007D2AF00D7010FF3E772AF0097008F30591
:10050000952A7408073CF0007008F1000130F000F3
:10051000710803198F2AF00D7010FF3E892A7008A8
:10052000F3048312061C952A912AF40A5F2AF40127
:10053000083074020318D02A83120618A02A9C2AB5
:100540003130FD00FD0BA22A000000000618BA2A77
:100550007408073CF0007008F1000130F0007108E9
:100560000319B62AF00D7010FF3EB02AF00970088A
:10057000F305CE2A7408073CF0007008F100013042
:10058000F00071080319C82AF00D7010FF3EC22A4E
:100590007008F3048312061CCE2ACA2AF40A982A89
:1005A00075087607F100F2010318F20A00307206AE
:1005B000031DDC2A71087306031DED2A7608F70077
:1005C000F8017708F100F0017508F0040030F1043B
:1005D0007008F7007108F800FE2A5830F70058300C
:1005E000F8005830F0005830F100FE2A6330F70070
:0E05F0006330F8006330F0006330F100080063
:1005FE00533083120313C3003030C4003330C500B0
:10060E004330C6003030C7003130C8003030C9002A
:10061E003030CA0030302607CB004730CC00453092
:0A062E00CD004330D60090200800F4
:100638000030831203135106031D242B013050068A
:10064800031D622B70210330FB008A30FC005530FB
:10065800FD00FD0B2D2BFC0B2D2BFB0B2D2B000078
:10066800000003210330FB008A30FC005530FD00F8
:10067800FD0B3C2BFC0B3C2BFB0B3C2B0000000028
:1006880070210330FB008A30FC005530FD00FD0B63
:100698004B2BFC0B4B2BFB0B4B2B000000000321BF
:1006A8000330FB008A30FC005530FD00FD0B5A2B4F
:1006B800FC0B5A2BFB0B5A2B000000000030510694
:1006C800031D682B02305006031DA62B702106302F
:1006D800FB001330FC00AD30FD00FD0B712BFC0B53
:1006E800712BFB0B712B0000000003210630FB006F
:1006F8001330FC00AD30FD00FD0B802BFC0B802B74
:10070800FB0B802B0000000070210630FB0013302B
:10071800FC00AD30FD00FD0B8F2BFC0B8F2BFB0B72
:100728008F2B0000000003210630FB001330FC0073
:10073800AD30FD00FD0B9E2BFC0B9E2BFB0B9E2B67
:100748000000000000305106031DAC2B033050069A
:10075800031DEA2B70210B30FB002630FC005D30B6
:10076800FD00FD0BB52BFC0BB52BFB0BB52B0000CF
:10077800000003210B30FB002630FC005D30FD003B
:10078800FD0BC42BFC0BC42BFB0BC42B000000007F
:1007980070210B30FB002630FC005D30FD00FD0BA6
:1007A800D32BFC0BD32BFB0BD32B00000000032116
:1007B8000B30FB002630FC005D30FD00FD0BE22B0A
:0E07C800FC0BE22BFB0BE22B000000000800F4
:1007D6008021831203137008A9007108AA00AB01D7
:1007E600AC01FF302905D2002A08D3000030D3051A
:1007F6005208B0005308B1000A30F4000030F5008A
:100806005208F0005308F10007217008D000710863
:10081600D1005008BF005108C0000A30F000003077
:10082600F1005008F4005108F500D120700852027A
:10083600F0007108031C013E5302F1007008BD0070
:100846007108BE005330C3003030C4003330C500D9
:100856004330C6003030C7003130C8003030C900E0
:1008660030305007CA0030307007CB005430CC000F
:0C0876004530CD004330D6009020080033
:100882008021831203137008A9007108AA00AB012A
:10089200AC012A08D2002B08D3002C08D400003067
:1008A200AC1BFF30D5005208C1005308C2000A3009
:1008B200F4000030F5005208F0005308F10007215F
:1008C2007008D0007108D1005008BF005108C00064
:1008D2000A30F0000030F1005008F4005108F50031
:1008E200D12070085202F0007108031C013E53022D
:1008F200F1007008BD007108BE005330C3003030F3
:10090200C4003330C5004330C6003030C700313038
:10091200C8003030C90030305007CA00303070078C
:10092200CB004830CC004530CD004330D60090207B
:020932000800BB
:0E09340083160313061686168612702108001D
:1009420083120313D5015108F1000130F000710840
:100952000319AF2CF00D7010FF3EA92C7008D400C3
:100962005008840070080005F10071080130031D71
:100972000030F0005308F0060319D72C5208003C4F
:100982000318C72C74217421D203BF2C5008840091
:1009920054080005F10071080130031D0030F00019
:1009A2005308F0060319D72CFF30D5005508F00084
:0209B20008003B
:1009B40081308316031399001815C12083168611FC
:1009C4000330FB008A30FC005530FD00FD0BE82CA1
:1009D400FC0BE82CFB0BE82C000000008C160C121E
:0609E4000B178B17080041
:1009EA00FC208A110A128000840AAE0A0319AF0A8F
:0809FA00F003031DF52C0800B9
:0E0A02000030831203138C1A0130F00008003C
:100A1000831203131A08F100981C102D18121816CF
:060A20007108F00008005F
:100A260083120313A301A401A501A601A701A8012E
:100A36009A24DA2453308312C3003030C400303095
:100A4600C5004230C6003030C7003130C8004430DF
:100A5600C9003030CA003130CB003130CC004530CF
:100A6600CD004330D60090201A30FB005E30FC00EB
:100A76006E30FD00FD0B3D2DFC0B3D2DFB0B3D2D82
:100A8600000003212308013A031D762DA301330834
:100A9600313A031D762D3408333A031D762D350879
:100AA600433A031D762D3608303A031D762D370856
:100AB600313A031D762D3B08543A031D632DEB2373
:100AC6003B08483A031D682D41240330FB008A3059
:100AD600FC005530FD00FD0B6E2DFC0B6E2DFB0B47
:100AE6006E2D000000000630D0000430D100013029
:100AF600D200D301A12470080319852D0130A60068
:100B06000030A70000302706031D8B2D0130260676
:100B1600031D1A2EA40A0319A50A0D30FB00AF30D7
:100B2600FC00B630FD00FD0B962DFC0B962DFB0B45
:100B3600962D000000302506031DA32D0A3024063D
:100B4600031DBA2D0630D0000430D1000130D2008A
:100B5600D301A12470080319B62D0130D00000304E
:100B6600D1001C23BA2DA601A701A401A5010030BE
:100B76002506031DC02D14302406031DD72D06306F
:100B8600D0000430D1000130D200D301A124700876
:100B96000319D32D0230D0000030D1001C23D72DED
:100BA600A601A701A401A50180302506F00080302A
:100BB6007002031DE02D1E302402031C0E2E0A3087
:100BC600F4000030F5002408F0002508F1000721A4
:100BD6007808F0007908F10000307106031DF52D44
:100BE60000307006031D0E2E0630D0000430D100F2
:100BF6000130D200D301A12470080319092E033055
:100C0600D0000030D1001C23FF220E2EA601A70122
:100C1600A401A501FF222508FD3A031D142EE83084
:100C26002406031D1A2E1E30A4000030A500452DF3
:020C36001B2E73
:02400E006A2125
:00000001FF
