:02000000F12CE1
:10000800FF00030E8301CE000A08CF008A017008A2
:10001800A1007108A0000408A2008C1E4628DF2455
:100028007008003A031D19281328DF247008013AC4
:10003800031D4628E6247008BE007008533A031DC5
:100048002C28A5012508333E84003E088000A50A17
:100058003E08533A03193A283E08453A03193A2804
:100068002508333E84003E088000A50A3E08453A2C
:10007800031D46282508333E84003E088000A5015C
:100088000130A6002108F0002008F10022088400B1
:0E0098004F088A004E0E8300FF0E7F0E0900F7
:1000A60083160313981859280000532883125908F9
:0400B60099000800A5
:0E00BA0000308316031398180130F000080080
:1000C800710DF80DF90D7408F8027508031C750F09
:1000D800F902F00DF10D0F30FC00710DF80DF90D5E
:1000E8007408701C7D28F8027508031C750FF90246
:1000F8008228F80775080318750FF907F00DF10D38
:10010800FC0B712870188E287408F80775080318F6
:08011800750FF9070000080053
:10012000043083120313FC003A30FD00FD0B9628C7
:08013000FC0B962800000800FA
:10013800831203137408003A031DAB287508003AAC
:10014800031DAB28FF30F0007F30F1000429831233
:100158000313FD01F901F801710870040319003453
:1001680071087506FA00FA1BFD09FB01F51FC12885
:10017800F409F509F40A0319F50AF11FC828F0096A
:10018800F109F00A0319F10A71087504FA00FA1B5B
:10019800DD2864207B18F028FD1F0034F009F109E0
:1001A800F00A0319F10AF809F909F80A0319F90A12
:1001B8000034F51FEC28F11BE8287108F9007008D5
:1001C800F800F101F001D028F101F001F00A003443
:1001D800F109F009FB0ACD28F80A0319F90A74088D
:1001E8007802031DD02875087902031DD028F9016B
:1001F800F801F00A0319F10AF11FD0280000FF34B2
:020208000800EC
:0E020A008312031332088A00310882000800B4
:1002180083120313D6018316061083120610753055
:10022800FC00E130FD00FD0B1729FC0B1729061413
:100238003130FD00FD0B1E29000000008316061456
:100248004230FD00FD0B26290000831206183929CB
:100258008530FD00FD0B2E29061C34290130D600FF
:100268004230FD00FD0B362900005608013A031DF7
:10027800822AF401083074020318742906184529E3
:1002880042293130FD00FD0B472900000000061807
:100298005F297408073CF0007008F1000130F00095
:1002A800710803195B29F00D7010FF3E5529F009FC
:1002B8007008F30572297408073CF0007008F10013
:1002C8000130F000710803196D29F00D7010FF3E20
:1002D80067297008F304061C72296F29F40A3E295D
:1002E8007308F600F401083074020318AF2983126A
:1002F80006187F297B293130FD00FD0B812900007C
:100308000000061899297408073CF0007008F100ED
:100318000130F000710803199529F00D7010FF3EA7
:100328008F29F0097008F305AD297408073CF0001F
:100338007008F1000130F00071080319A729F00DC9
:100348007010FF3EA1297008F3048312061CAD2922
:10035800A929F40A7729F401083074020318E82956
:1003680083120618B829B4293130FD00FD0BBA29CB
:10037800000000000618D2297408073CF000700835
:10038800F1000130F00071080319CE29F00D70104A
:10039800FF3EC829F0097008F305E6297408073CF0
:1003A800F0007008F1000130F00071080319E0292D
:1003B800F00D7010FF3EDA297008F3048312061C52
:1003C800E629E229F40AB0297308F500F401083097
:1003D80074020318232A83120618F329EF293130EF
:1003E800FD00FD0BF5290000000006180D2A740811
:1003F800073CF0007008F1000130F00071080319A3
:10040800092AF00D7010FF3E032AF0097008F30561
:10041800212A7408073CF0007008F1000130F00050
:10042800710803191B2AF00D7010FF3E152A700879
:10043800F3048312061C212A1D2AF40AEB29F4016D
:100448000830740203185C2A831206182C2A282AFA
:100458003130FD00FD0B2E2A000000000618462A48
:100468007408073CF0007008F1000130F0007108D2
:100478000319422AF00D7010FF3E3C2AF00970085B
:10048800F3055A2A7408073CF0007008F10001309F
:10049800F00071080319542AF00D7010FF3E4E2A1F
:1004A8007008F3048312061C5A2A562AF40A242ACE
:1004B80075087607F100F2010318F20A0030720697
:1004C800031D682A71087306031D792A7608F70048
:1004D800F8017708F100F0017508F0040030F10424
:1004E8007008F7007108F8008A2A5830F700583069
:1004F800F8005830F0005830F1008A2A6330F700CD
:0E0508006330F8006330F0006330F10008004B
:1005160083120313FB01FA01F9018030F800F10C94
:10052600F00C031C9F2A7408F90775080318750F49
:10053600FA070318FB0A0310F01FA72A7408FA0724
:1005460075080318750FFB07FB0CFA0CF90CF80C71
:10055600031C922A7B08F3007A08F2007908F1005E
:060566007808F000080017
:08056C0083120313861208003C
:08057400831203138616080030
:10057C00831203138615D701D8018030F000803028
:10058C0058067002031DCC2A57080A3C031CDF2AAC
:10059C005D207008003A031DD42ACE2A8312570816
:1005AC00560784000008D9005320D70A0319D80A2B
:1005BC00C32A0630FB001330FC00AD30FD00FD0BF0
:1005CC00E52AFC0BE52AFB0BE52A0000000086114E
:0205DC00080015
:1005DE0083120313D5015108F1000130F0007108A8
:1005EE000319FD2AF00D7010FF3EF72A7008D40093
:1005FE005008840070080005F10071080130031DD9
:10060E000030F0005308F0060319252B5208003C69
:10061E000318152B90209020D2030D2B5008840028
:10062E0054080005F10071080130031D0030F00080
:10063E005308F0060319252BFF30D5005508F0009E
:02064E000800A2
:100650000030831203135106031D302B0130500666
:10066000031D6E2BBA220330FB008A30FC0055308C
:10067000FD00FD0B392BFC0B392BFB0B392B00003C
:100680000000B6220330FB008A30FC005530FD002C
:10069000FD0B482BFC0B482BFB0B482B00000000EC
:1006A000BA220330FB008A30FC005530FD00FD0B00
:1006B000572BFC0B572BFB0B572B00000000B622CF
:1006C0000330FB008A30FC005530FD00FD0B662B2B
:1006D000FC0B662BFB0B662B000000000030510664
:1006E000031D742B02305006031DB22BBA220630B4
:1006F000FB001330FC00AD30FD00FD0B7D2BFC0B2F
:100700007D2BFB0B7D2B00000000B6220630FB008A
:100710001330FC00AD30FD00FD0B8C2BFC0B8C2B43
:10072000FB0B8C2B00000000BA220630FB001330BC
:10073000FC00AD30FD00FD0B9B2BFC0B9B2BFB0B42
:100740009B2B00000000B6220630FB001330FC009B
:10075000AD30FD00FD0BAA2BFC0BAA2BFB0BAA2B2B
:100760000000000000305106031DB82B0330500676
:10077000031DF62BBA220B30FB002630FC005D3047
:10078000FD00FD0BC12BFC0BC12BFB0BC12B000093
:100790000000B6220B30FB002630FC005D30FD006F
:1007A000FD0BD02BFC0BD02BFB0BD02B0000000043
:1007B000BA220B30FB002630FC005D30FD00FD0B43
:1007C000DF2BFC0BDF2BFB0BDF2B00000000B62226
:1007D0000B30FB002630FC005D30FD00FD0BEE2BE6
:0E07E000FC0BEE2BFB0BEE2B000000000800C4
:1007EE000C21831203137008A9007108AA00AB0133
:1007FE00AC012A08D2002B08D3002C08D4000030FC
:10080E00AC1BFF30D5005208AF005308B0000A30C1
:10081E00F4000030F5005208F0005308F1009C205F
:10082E007008D0007108D1005008AD005108AE001C
:10083E000A30F0000030F1005008F4005108F500C5
:10084E008B2270085202F0007108031C013E530205
:10085E00F1007008CA007108CB005330BF00303071
:10086E00C0003330C1004330C2003030C3003130DD
:10087E00C4003030C50030305007C600303070072D
:10088E00C7004830C8004530C9003F30D600BE22F0
:02089E00080050
:1008A0000C21831203137008A9007108AA00AB0180
:1008B000AC01FF302905D2002A08D3000030D3054F
:1008C0005208CC005308CD000A30F4000030F50087
:1008D0005208F0005308F1009C207008D000710805
:1008E000D1005008AD005108AE000A30F0000030D1
:1008F000F1005008F4005108F5008B2270085202F4
:10090000F0007108031C013E5302F1007008CA0098
:100910007108CB005330BF003030C0003330C1000D
:100920004330C2003030C3003130C4003030C50025
:1009300030305007C60030307007C7005430C80050
:0C0940004530C9003F30D600BE22080040
:10094C00831603139816903083129800831686141E
:10095C00061183128C1EB52C1A08F000AF2C08005F
:10096C00533083120313BF003030C0003330C1004A
:10097C004330C2003030C3003130C4003030C500C9
:10098C003030C60030302707C7004730C80045302C
:0A099C00C9003F30D600BE2208005B
:1009A60005218A110A128000840AB10A0319B20AC3
:0809B600F003031DD32C08001F
:0E09BE000030831203138C1A0130F000080081
:1009CC00831203131A08F100981CEE2C1812181637
:0609DC007108F0000800A4
:1009E20083120313A301A401A501A601A701A80173
:1009F2008130831699001815A624831686110330B8
:100A0200FB008A30FC005530FD00FD0B062DFC0B6F
:100A1200062DFB0B062D000000008C160C120B1786
:100A22008B178612BA221A30FB005E30FC006E3041
:100A3200FD00FD0B1A2DFC0B1A2DFB0B1A2D0000CD
:100A4200B6225330BF003030C0003330C1004330D3
:100A5200C2003030C3003130C4003030C500303005
:100A6200C6004730C7004730C8004530C9003F3094
:100A7200D600BE2250242608013A031D792DA60174
:100A82003408313A031D5D2D3508333A031D5D2DBF
:100A92003C08543A031D5D2D50240330FB008A307C
:100AA200FC005530FD00FD0B542DFC0B542DFB0BAF
:100AB200542D0000000050243408313A031D792DD2
:100AC2003508333A031D792D3C08483A031D792D28
:100AD200F7230330FB008A30FC005530FD00FD0B8C
:100AE200702DFC0B702DFB0B702D00000000F72306
:100AF2000630D0000430D1000130D200D301EF2201
:100B020070080319882D0130A7000030A8000030BA
:100B12002806031D8E2D01302706031D1D2EA30A54
:100B22000319A40A0D30FB00AF30FC00B630FD0003
:100B3200FD0B992DFC0B992DFB0B992D000000301C
:100B42002406031DA62D0A302306031DBD2D0630E3
:100B5200D0000430D1000130D200D301EF2270085E
:100B62000319B92D0130D0000030D1002823BD2D4A
:100B7200A701A801A301A40100302406031DC32D6F
:100B820014302306031DDA2D0630D0000430D100C4
:100B92000130D200D301EF2270080319D62D0230A2
:100BA200D0000030D1002823DA2DA701A801A3012B
:100BB200A40180302406F00080307002031DE32D72
:100BC2001E302302031C112E0A30F4000030F500FF
:100BD2002308F0002408F1009C207808F00079082E
:100BE200F10000307106031DF82D00307006031D60
:100BF200112E0630D0000430D1000130D200D301D2
:100C0200EF22700803190C2E0330D0000030D100FF
:100C12002823B624112EA701A801A301A401B624FA
:100C22002408FD3A031D172EE8302306031D1D2E4E
:0C0C32001E30A3000030A4003C2D1E2E3C
:02400E006A2125
:00000001FF
