:020000004C2C86
:10000800FF00030E8301D0000A08D1008A0170089E
:10001800A1007108A0000408A2008C1E46283A24FA
:100028007008003A031D192813283A247008013A69
:10003800031D462841247008C2007008533A031D66
:100048002C28A5012508373E840042088000A50A0F
:100058004208533A03193A284208453A03193A28FC
:100068002508373E840042088000A50A4208453A20
:10007800031D46282508373E840042088000A50154
:100088000130A6002108F0002008F10022088400B1
:0E00980051088A00500E8300FF0E7F0E0900F3
:1000A600710DF80DF90D7408F8027508031C750F2B
:1000B600F902F00DF10D0F30FC00710DF80DF90D80
:1000C6007408701C6C28F8027508031C750FF90279
:1000D6007128F80775080318750FF907F00DF10D6B
:1000E600FC0B602870187D287408F807750803183B
:0800F600750FF9070000080076
:0E00FE0000308316031398180130F00008003C
:10010C008316031398188C280000862883125B082A
:04011C00990008003E
:10012000043083120313FC003A30FD00FD0B9628C7
:08013000FC0B962800000800FA
:10013800831203138615D901DA018030F00080306C
:100148005A067002031DAA285908093C031CBD2839
:100158007F207008003A031DB228AC288312590882
:10016800580784000008DB008620D90A0319DA0A38
:06017800A1288611080019
:10017E0083120313D80183160610831206107530EE
:10018E00FC00E130FD00FD0BCA28FC0BCA2806144A
:10019E003130FD00FD0BD12800000000831606143F
:1001AE004230FD00FD0BD928000083120618EC2802
:1001BE008530FD00FD0BE128061CE7280130D80034
:1001CE004230FD00FD0BE92800005808013A031DDE
:1001DE00352AF40108307402031827290618F82866
:1001EE00F5283130FD00FD0BFA280000000006183E
:1001FE0012297408073CF0007008F1000130F0007D
:10020E00710803190E29F00D7010FF3E0829F00930
:10021E007008F30525297408073CF0007008F100FA
:10022E000130F000710803192029F00D7010FF3E07
:10023E001A297008F304061C25292229F40AF1282C
:10024E007308F600F4010830740203186229831251
:10025E00061832292E293130FD00FD0B34290000FD
:10026E00000006184C297408073CF0007008F100D5
:10027E000130F000710803194829F00D7010FF3E8F
:10028E004229F0097008F30560297408073CF00054
:10029E007008F1000130F000710803195A29F00DB1
:1002AE007010FF3E54297008F3048312061C602957
:1002BE005C29F40A2A29F4010830740203189B29D8
:1002CE00831206186B2967293130FD00FD0B6D294D
:1002DE0000000000061885297408073CF00070081D
:1002EE00F1000130F000710803198129F00D701032
:1002FE00FF3E7B29F0097008F30599297408073C25
:10030E00F0007008F1000130F00071080319932914
:10031E00F00D7010FF3E8D297008F3048312061C39
:10032E0099299529F40A63297308F500F401083018
:10033E0074020318D62983120618A629A229313071
:10034E00FD00FD0BA829000000000618C029740846
:10035E00073CF0007008F1000130F000710803193D
:10036E00BC29F00D7010FF3EB629F0097008F30598
:10037E00D4297408073CF0007008F1000130F00039
:10038E0071080319CE29F00D7010FF3EC8297008B0
:10039E00F3048312061CD429D029F40A9E29F401F1
:1003AE000830740203180F2A83120618DF29DB297E
:1003BE003130FD00FD0BE129000000000618F9297F
:1003CE007408073CF0007008F1000130F00071086D
:1003DE000319F529F00D7010FF3EEF29F009700892
:1003EE00F3050D2A7408073CF0007008F100013087
:1003FE00F00071080319072AF00D7010FF3E012A54
:10040E007008F3048312061C0D2A092AF40AD72950
:10041E0075087607F100F2010318F20A0030720631
:10042E00031D1B2A71087306031D2C2A7608F7007C
:10043E00F8017708F100F0017508F0040030F104BE
:10044E007008F7007108F8003D2A5830F700583050
:10045E00F8005830F0005830F1003D2A6330F700B4
:0E046E006330F8006330F0006330F1000800E6
:10047C0083160313981690308312980083168614F3
:10048C00061183128C1E4D2A1A08F000472A080008
:0E049C008312031336088A0035088200080018
:1004AA00831203137408003A031D642A7508003A7C
:1004BA00031D642AFF30F0007F30F100BD2A831249
:1004CA000313FD01F901F8017108700403190034DE
:1004DA0071087506FA00FA1BFD09FB01F51F7A2A55
:1004EA00F409F509F40A0319F50AF11F812AF0093A
:1004FA00F109F00A0319F10A71087504FA00FA1BE6
:10050A00962A53207B18A92AFD1F0034F009F10905
:10051A00F00A0319F10AF809F909F80A0319F90A9C
:10052A000034F51FA52AF11BA12A7108F9007008E9
:10053A00F800F101F001892AF101F001F00A003412
:10054A00F109F009FB0A862AF80A0319F90A74085C
:10055A007802031D892A75087902031D892AF9017F
:10056A00F801F00A0319F10AF11F892A0000FF3481
:02057A00080077
:10057C0083120313FB01FA01F9018030F800F10C2E
:10058C00F00C031CD22A7408F90775080318750FB0
:10059C00FA070318FB0A0310F01FDA2A7408FA078B
:1005AC0075080318750FFB07FB0CFA0CF90CF80C0B
:1005BC00031CC52A7B08F3007A08F2007908F100C5
:0605CC007808F0000800B1
:1005D200533083120313C3003030C4003230C500DD
:1005E2004330C6003030C7003130C8003030C90057
:1005F2003030CA0030302907CB004730CC004530BC
:0A060200CD004330D8009C20080012
:10060C0083120313D7015308F1000130F000710875
:10061C000319142BF00D7010FF3E0E2B7008D60032
:10062C005208840070080005F10071080130031DA8
:10063C000030F0005508F00603193C2B5408003C20
:10064C0003182C2B90209020D403242B52088400C8
:10065C0056080005F10071080130031D0030F00050
:10066C005508F00603193C2BFF30D7005708F00053
:02067C00080074
:10067E00BF20831203137008AD007108AE00AF01E6
:10068E00B001FF302D05D4002E08D5000030D50561
:10069E005408CE005508CF000A30F4000030F500A3
:1006AE005408F0005508F10055227008D200710868
:1006BE00D3005208B3005308B4000A30F0000030E3
:1006CE00F1005208F4005308F500BE2270085402DF
:1006DE00F0007108031C013E5502F1007008B100D4
:1006EE007108B2005330C3003030C4003230C50040
:1006FE004330C6003030C7003130C8003030C9003A
:10070E0030305207CA0030307007CB005430CC0066
:0C071E004530CD004330D8009C2008007E
:10072A00BF20831203137008AD007108AE00AF0139
:10073A00B0012E08D4002F08D5003008D6000030AA
:10074A00B01BFF30D7005408AB005508AC000A3084
:10075A00F4000030F5005408F0005508F100552265
:10076A007008D2007108D3005208B3005308B400CD
:10077A000A30F0000030F1005208F4005308F50086
:10078A00BE2270085402F0007108031C013E550293
:10079A00F1007008B1007108B2005330C300303064
:1007AA00C4003230C5004330C6003030C700313093
:1007BA00C8003030C90030305207CA0030307007E4
:1007CA00CB004830CC004530CD004330D8009C20C7
:0207DA00080015
:1007DC00813083160313990018153E228316861157
:1007EC000330FB008A30FC005530FD00FD0BFC2B68
:1007FC00FC0BFC2BFB0BFC2B000000008C160C12D2
:06080C000B178B1708001A
:1008120083160313061686160510831205100800A8
:10082200533083120313C3003030C4003230C5008A
:100832004330C6003030C7003130C8003030C90004
:100842003030CA0030302707CB004D30CC00453065
:0A085200CD004330D8009C200800C0
:10085C004E228A110A128000840AB50A0319B60ABC
:08086C00F003031D2E2C08000F
:0E0874000030831203138C1A0130F0000800CC
:10088200831203131A08F100981C492C1812181627
:060892007108F0000800EF
:1008980083120313A301A401A501A601A701A801BE
:1008A800A901AA010924EE230330FB008A30FC00C9
:1008B8005530FD00FD0B5E2CFC0B5E2CFB0B5E2CFB
:1008C8000000000083122608013A031D9D2CA60192
:1008D8003808313A031D9D2C3908323A031D9D2CE6
:1008E8003A08433A031D9D2C3B08303A031D9D2CC2
:1008F8003C08313A031D9D2C4008543A031D852CB1
:100908003F234008483A031D8A2C952340084D3A56
:10091800031D8F2C11240330FB008A30FC00553056
:10092800FD00FD0B952CFC0B952CFB0B952C00006A
:1009380000000630D2000530D3000130D400D501C4
:10094800062370080319AC2C0130A7000030A8005A
:100958000630D2000430D3000130D400D50106237C
:1009680070080319D62C0130A9000030AA00A30A88
:100978000319A40A00302406031DC42C0A302306D8
:10098800031DC82CE92205140D30FB00AF30FC0014
:10099800B630FD00FD0BCE2CFC0BCE2CFB0BCE2C69
:1009A8000000DA2CA901AA01A301A401662CDB2C02
:02400E006A2125
:00000001FF
