:02000000D52900
:10000800FF00030E8301D4000A08D3008A01700898
:10001800A1007108A0000408A2008C1E4C28C3216E
:100028007008003A031D19281328C3217008013AE3
:10003800031D4C28CA217008C5007008533A031DD7
:1000480030280130AB000030AC00A3012308463E45
:10005800840045088000A30A4508533A03193E283E
:100068004508453A03193E282308463E84004508BA
:100078008000A30A4508453A031D4C282308463E3C
:10008800840045088000A3010130A400AB01AC0145
:100098002108F0002008F1002208840053088A0093
:0A00A800540E8300FF0E7F0E0900C6
:1000B200710DF80DF90D7408F8027508031C750F1F
:1000C200F902F00DF10D0F30FC00710DF80DF90D74
:1000D2007408701C7228F8027508031C750FF90267
:1000E2007728F80775080318750FF907F00DF10D59
:1000F200FC0B6628701883287408F8077508031823
:08010200750FF9070000080069
:0E010A0000308316031398180130F00008002F
:10011800831603139818922800008C2883125B0812
:040128009900080032
:10012C00043083120313FC003A30FD00FD0B9C28B5
:08013C00FC0B9C2800000800E8
:10014400831203137408003A031DB1287508003A9A
:10015400031DB128FF30F0007F30F1000A2983121B
:100164000313FD01F901F801710870040319003447
:1001740071087506FA00FA1BFD09FB01F51FC72873
:10018400F409F509F40A0319F50AF11FCE28F00958
:10019400F109F00A0319F10A71087504FA00FA1B4F
:1001A400E32859207B18F628FD1F0034F009F109D3
:1001B400F00A0319F10AF809F909F80A0319F90A06
:1001C4000034F51FF228F11BEE287108F9007008BD
:1001D400F800F101F001D628F101F001F00A003431
:1001E400F109F009FB0AD328F80A0319F90A74087B
:1001F4007802031DD62875087902031DD628F90153
:10020400F801F00A0319F10AF11FD6280000FF349F
:020214000800E0
:0E0216008312031342088A0041088200080088
:1002240083120313DA015608F1000130F00071085B
:1002340003192029F00D7010FF3E1A297008D90007
:100244005508840070080005F10071080130031D91
:100254000030F0005808F006031948295708003CFC
:100264000318382996209620D7033029550884008E
:1002740059080005F10071080130031D0030F00039
:100284005808F00603194829FF30DA005A08F0002C
:02029400080060
:10029600023083120313F4000030F5005508F00015
:1002A6005608F100A2207808F0007908F100003025
:1002B6007106031D602900307006031D6529303064
:0A02C600BF0067293130BF000800B7
:1002D0008312031386150330FB008A30FC0055306F
:1002E000FD00FD0B7129FC0B7129FB0B712900002E
:1002F0000000D601D7018030F00080305706700230
:10030000031D842956080A3C031C97298520700880
:10031000003A031D8C29862983125608550784004C
:100320000008DB008C20D60A0319D70A7B2903308A
:10033000FB008A30FC005530FD00FD0B9D29FC0BB5
:0E0340009D29FB0B9D2900000000861108007E
:10034E008316031398169030831298008316861422
:10035E00061183128C1EB6291A08F000B029080067
:10036E000B218A110A128000840AC10A0319C20ADB
:08037E00F003031DB72908007C
:0E0386000030831203138C1A0130F0000800BF
:10039400831203131A08F100981CD2291812181694
:0603A4007108F0000800E2
:1003AA0083120313A301A4010130A500A6010130A1
:1003BA00A700A8010130A900AA01AB01AC0183166C
:1003CA000614061686168611831235108130831696
:1003DA0099001815A7210330FB008A30FC0055301C
:1003EA00FD00FD0BF629FC0BF629FB0BF629000094
:1003FA00000083168C160C120B178B1730308312E1
:10040A00AF003130B0003030AD003130AE003030A6
:10041A00B3003230B4003030B1003230B200303084
:10042A00C3003330C4003030D1003330D20003303F
:10043A00FB008A30FC005530FD00FD0B222AFC0B24
:10044A00222AFB0B222A000000000630D500D60122
:10045A000130D7000130D800122170080319362A5A
:10046A003514351CAB2A0630D500D6010130D70029
:10047A00D801122170080319AB2A0330FB008A3015
:10048A00FC005530FD00FD0B482AFC0B482AFB0BEB
:10049A00482A00000000351CAB2A0630D500D601D8
:1004AA000130D700D801122170080319AB2A533042
:1004BA00B6003030B7003030B8004230B9003030C2
:1004CA00BA003130BB004430BC003030BD0031309E
:1004DA00BE003030BF004530C0002708D5002808CC
:1004EA00D6004B21A70A0319A80A00302C06031DBF
:1004FA00802A01302B06031D832A7A2A4130FC0008
:10050A00EE30FD00FD0B872AFC0B872A00003630EF
:10051A00D50068210330FB008A30FC005530FD000D
:10052A00FD0B952AFC0B952AFB0B952A000000006F
:10053A0035100D30FB00AF30FC00B630FD00FD0B6E
:10054A00A42AFC0BA42AFB0BA42A00000630D5001F
:10055A000430D6000130D7000130D80012217008CB
:10056A000319B82A3514351C2F2B0630D500043050
:10057A00D6000130D700D8011221700803192F2B99
:10058A000330FB008A30FC005530FD00FD0BCB2AFE
:10059A00FC0BCB2AFB0BCB2A00000000351C2F2BAF
:1005AA000630D5000430D6000130D700D801122118
:1005BA00700803192F2B5330B6003030B700303093
:1005CA00B8004230B9003030BA003230BB00443093
:1005DA00BC003030BD003230BE003030BF00453084
:1005EA00C0002908D5002A08D6004B21A90A0319F8
:1005FA00AA0A00302C06031D042B01302B06031D0A
:10060A00072BFE2A4130FC00EE30FD00FD0B0B2BC0
:10061A00FC0B0B2B00003630D50068210330FB00A1
:10062A008A30FC005530FD00FD0B192BFC0B192BF1
:10063A00FB0B192B0000000035100D30FB00AF300A
:10064A00FC00B630FD00FD0B282BFC0B282BFB0B06
:10065A00282B00000630D5000530D6000130D7001F
:10066A000130D8001221700803193C2B3514351CAF
:10067A00B32B0630D5000530D6000130D700D8019B
:10068A00122170080319B32B0330FB008A30FC00D7
:10069A005530FD00FD0B4F2BFC0B4F2BFB0B4F2B4B
:1006AA0000000000351CB32B0630D5000530D600FB
:1006BA000130D700D801122170080319B32B533027
:1006CA00B6003030B7003030B8004230B9003030B0
:1006DA00BA003330BB004430BC003030BD00333088
:1006EA00BE003030BF004530C0002508D5002608BE
:1006FA00D6004B21A50A0319A60A00302C06031DB1
:10070A00882B01302B06031D8B2B822B4130FC00DA
:10071A00EE30FD00FD0B8F2BFC0B8F2B00003630CB
:10072A00D50068210330FB008A30FC005530FD00FB
:10073A00FD0B9D2BFC0B9D2BFB0B9D2B0000000042
:10074A0035100D30FB00AF30FC00B630FD00FD0B5C
:10075A00AC2BFC0BAC2BFB0BAC2B00002A2AB42BCA
:02400E006A2125
:00000001FF
