:040000008A15002835
:10000800FF00030E8301D9000A08D8008A0170088E
:10001800A2007108A1000408A3008C1E46288327AB
:100028007008003A031D1928132883277008013A1D
:10003800031D46288A277008CC007008533A031D10
:100048002C28AA012A084D3E84004C088000AA0AE0
:100058004C08533A03193A284C08453A03193A28E8
:100068002A084D3E84004C088000AA0A4C08453AEC
:10007800031D46282A084D3E84004C088000AA012A
:100088000130AB002208F0002108F10023088400A9
:0E00980058088A00590E8300FF0E7F0E0900E3
:1000A6007B15FB1F5D280130F300F201F101F00121
:0800B600FA0DF20CFF30080006
:1000BE00FB14FB1F6928FF30F300F200F100F00083
:0800CE00FA0DF20CFF300800EE
:0E00D600F201F101F001F801F3010030080021
:1000E40083120313FA017308031D7A147708031D9E
:1000F400FA147A080319BE28033A031989287A18CE
:100104008628F61FBC28BA28F21FBA28BC28720811
:100114008039FA00F21376088039F6137A06031947
:1001240097287A080319BA28BC2877087302031998
:100134009E28031CB228B628760872020319A52843
:10014400031CB228B628750871020319AC28031CD5
:10015400B228B628740870020319BE280318B628FA
:10016400FA080319BC28BA28FA080319BA28BC28C3
:100174000314080003100800031403150800080002
:0E01840000308316031398180130F0000800B5
:10019200831603139818CF280000C9282A0883124F
:0401A20099000800B8
:1001A600831603132A08F2007208F100F20A2B08DC
:1001B600F000AB0A700884000008F00071088400A3
:1001C600700880007108840000080319EB28D728FE
:0601D6002A08F0000800F9
:1001DC0083120313F8010830FC00700DF80D74083D
:1001EC00F8020318FB28F8070310F00DFC0BF3289A
:0201FC000800F9
:1001FE0083120313FB017308031D77080319562995
:10020E0072087606FA007708F3077E30031C13296E
:10021E00F302031859291629F302031C5C297208EC
:10022E00F8007108FC007008FD00F817F6170310AF
:10023E00F201F101F0011830A0007D1C3029740884
:10024E00F00775080318750FF10776080318760F77
:10025E00F207F20CF10CF00CF80CFC0CFD0C031078
:10026E00A00B2429F21B4029F80DF00DF10DF20D13
:10027E00F3037B1B701C5229F81F5229F00A031935
:10028E00F10A0319F20A031D5229F20CF10CF00CBB
:10029E00F30A03195929FA1FF21300305E290130AF
:1002AE006B205E2902305F205E290430532000004F
:0202BE00080036
:1002C0008312031373087706031D732972087606D9
:1002D000031D732971087506031D732970087406C0
:0C02E000031903150800031108000800B2
:1002EC0083120313EF018316A9012008A50021082E
:1002FC00A6002208A7002308A8002808FF3A031D1F
:10030C0091292708FF3A031D91292608FF3A031D5E
:10031C0091292508FF3A031D9B292408AA002C309B
:10032C00AB00D3200330F0008C2B01308312ED0096
:10033C008316A71FAE2980302706F0007008A7008F
:10034C008312ED0A8316240884002D308000A40A41
:10035C000030F0002806031DBD2970082706031D78
:10036C00BD2970082606031DBD292508003A031D6A
:10037C00C6292408AA002830AB00D320F0018C2B0E
:10038C002808FF3A031DD4292708003A031DD42955
:10039C002608003A031DD4292508003A031DDF293D
:1003AC002408AA002430AB00D32083126D08F0007F
:1003BC008C2B0030F4000030F5000030F6007F305C
:1003CC00F70083162508F0002608F1002708F20034
:1003DC002808F3007220013003180030F000700878
:1003EC000319152A83162508F0002608F1002708A2
:1003FC00F2002808F3000030F4000030F500203043
:10040C00F6008230F700FF2070088316A5007108F3
:10041C00A6007208A7007308A800A903DF29831699
:10042C000030F4000030F5002030F6008230F70088
:10043C002508F0002608F1002708F2002808F30030
:10044C0072200130031C0030F000700803194B2A95
:10045C0083162508F0002608F1002708F20028086A
:10046C00F300CD30F400CC30F5004C30F6007B308E
:10047C00F700FF2070088316A5007108A60072080B
:10048C00A7007308A800A90A152A8316FF302505B2
:10049C00F800FF302605F9007F302705FA00003000
:1004AC002805FB007808F4007908F5007A08F600B6
:1004BC007B08F700F40DF50DF60DF70D74100030F8
:1004CC002505F00000302605F10000302705F2006C
:1004DC00FF302805F3007008A5007108A60072080B
:1004EC00A7007308A80074082504F00075082604FA
:1004FC00F10076082704F20077082804F30070084E
:10050C00A5007108A6007208A7007308A8007F3028
:10051C002802F00070088312EE0001308316A80048
:10052C007008F4002508F0002608F1002708F200F6
:10053C002808F30074080319AA2AF00DF10DF20D26
:10054C00F30D7010FF3EA12A7008A5007108A600DB
:10055C007208A7007308A8002808303EF000240891
:10056C00840070088000A40A80302906F0008030D6
:10057C00013A7002031CCB2A8030063AF00080301E
:10058C0029067002031CCB2AD32A240884002E309F
:10059C008000A40A01308312EF0083120630EE00B3
:1005AC006E08003A0319372B8316A8012508F000B2
:1005BC002608F1002708F2002808F300F00DF10DD1
:1005CC00F20DF30D7010F00DF10DF20DF30D701026
:1005DC002508F00726080318260FF107270803182B
:1005EC00270FF20728080318280FF3077008A50037
:1005FC007108A6007208A7007308A8002508F0006F
:10060C002608F1002708F2002808F300F00DF10D80
:10061C00F20DF30D70107008A5007108A600720899
:10062C00A7007308A8002808303EF00024088400B6
:10063C0070088000A40A83126F08003A031D342B43
:10064C008316A9032908003A031D342B24088400BF
:10065C002E308000A40A01308312EF008312EE03C7
:10066C00D62AFF308316240784000008303A031D75
:10067C00412BA403372BFF302407840000082E3AAB
:10068C00031D492BA4032908003A0319882B2408BD
:10069C00840065308000A40A80302906F000803088
:1006AC00003A70020318622B240884002D3080005D
:1006BC00A40A2908003CA90029088312EE0083161D
:1006CC002908093C0318782B0A30F40083126E08B1
:1006DC00F000EE203030F0078316240884007008F8
:1006EC008000A40A0A30F40083126E08F000EE2099
:1006FC007808F0003030F007831624088400700866
:0E070C008000A40A240884008001F001080087
:10071A00043083120313FC003A30FD00FD0B932BC7
:08072A00FC0B932B00000800FA
:100732008312031308160830FB009D30FC000530BD
:10074200FD00FD0BA22BFC0BA22BFB0BA22B00002E
:100752000000EE01EF018030F00080306F06700281
:10076200031DB52B6E080A3C031CD12BC220700856
:10077200003A031DBD2BB72B83126E086D07840050
:1007820000088316AA00C920C330FC00CD30FD004A
:10079200FD0BC92BFC0BC92BEE0A0319EF0AAC2B7C
:1007A2000630FB001330FC00AD30FD00FD0BD72BF3
:1007B200FC0BD72BFB0BD72B000000000812080004
:1007C200831203136D08930083161418EA2B00009A
:0A07D200E52B83121308F000080065
:0E07DC008312031347088A00460882000800B3
:1007EA00831203135A088316A00083125B08831628
:1007FA00A10083125C088316A20083125D08831687
:10080A00A3005E30A400762183120313F401F501DC
:10081A00F601F7015A08F0005B08F1005C08F200E3
:10082A005D08F30060210130031D0030F0007008FC
:10083A000319292C3030B9003030BA003030BB00EF
:10084A004930BC004530BD00F401F501F601F7015D
:10085A005A08F0005B08F1005C08F2005D08F3003A
:10086A006021013003190030F00070080319782C58
:10087A000030F4000030F5000030F6007F30F70059
:10088A005A08F0005B08F1005C08F2005D08F3000A
:10089A007220013003180030F00070080319782C18
:1008AA005A08F4005B08F5005C08F6005D08F700DA
:1008BA00CD30F000CC30F1004C30F2007B30F30048
:1008CA007220013003180030F00070080319782CE8
:1008DA003030B9002E30BA005E08BB004930BC0087
:1008EA004530BD009A2C5A08F4005B08F5005C08F4
:1008FA00F6005D08F7000030F0000030F10000302B
:10090A00F2007F30F3007220013003180030F0004B
:10091A00700803199A2C5E08B9002E30BA006008D4
:10092A00BB004930BC004530BD000330FB008A30B3
:10093A00FC005530FD00FD0BA02CFC0BA02CFB0B82
:10094A00A02C000000003330ED0099230830FB0092
:10095A009D30FC000530FD00FD0BB12CFC0BB12CC9
:0A096A00FB0BB12C00000000080098
:10097400831203135A088316A00083125B0883169C
:10098400A10083125C088316A20083125D088316FB
:10099400A3005E30A400762183120313F401F50151
:1009A400F601F7015A08F0005B08F1005C08F20058
:1009B4005D08F30060210130031D0030F000700871
:1009C4000319EE2C3030B9003030BA003030BB009F
:1009D4005030BC004530BD00F401F501F601F701CB
:1009E4005A08F0005B08F1005C08F2005D08F300AF
:1009F4006021013003190030F00070080319242D20
:100A04000030F4000030F5002030F6008230F700AA
:100A14005A08F0005B08F1005C08F2005D08F3007E
:100A24007220013003180030F00070080319242DDF
:100A34003030B9003030BA005E08BB005030BC0022
:100A44004530BD000030F4000030F5004830F600B9
:100A54008530F7005A08F0005B08F1005C08F200EA
:100A64005D08F3007220013003180030F0007008B4
:100A740003195E2D5A08F4005B08F5005C08F600C3
:100A84005D08F7000030F0000030F1002030F20083
:100A94008230F3007220013003180030F000700837
:100AA40003195E2D3030B9005E08BA005F08BB0040
:100AB4005030BC004530BD000030F4000030F5007B
:100AC4007A30F6008830F7005A08F0005B08F1002D
:100AD4005C08F2005D08F300722001300318003056
:100AE400F00070080319982D5A08F4005B08F5000B
:100AF4005C08F6005D08F7000030F0000030F100FB
:100B04004830F2008530F3007220013003180030C1
:100B1400F00070080319982D5E08B9005F08BA0048
:100B24006008BB005030BC004530BD000330FB0002
:100B34008A30FC005530FD00FD0B9E2DFC0B9E2DD4
:100B4400FB0B9E2D000000003330ED00992308308C
:100B5400FB009D30FC000530FD00FD0BAF2DFC0BB0
:0C0B6400AF2DFB0BAF2D000000000800BF
:100B70008030831203135A04F0007008DA00071063
:100B80007008ED00E1230D30FC00FB30FD00FD0B93
:100B9000C72DFC0BC72D00000000E101E2018030F1
:100BA0006206F000803060067002031DD92D5F08D8
:100BB00061020318202E01305F02F0000030031C98
:100BC000013E6002F10061087002F3006208031C3C
:100BD000013E7102F4000330F2007308F000740863
:100BE000F10072080319F92DF00DF10D7010FF3EA0
:100BF000F22D7008F4005B08F0005C08F1005D085D
:100C0000F2005E08F300740803190F2EF30CF20CC7
:100C1000F10CF00CF313731BF317FF3E042E700856
:100C2000ED00E1230D30FC00FB30FD00FD0B162E26
:100C3000FC0B162E00000000E10A0319E20ACF2D7A
:040C4000071408008D
:080C4400831203138816080057
:100C4C0083120313DF015B08F1000130F00071081F
:100C5C000319342EF00D7010FF3E2E2E7008DE009E
:100C6C005A08840070080005F10071080130031D5A
:100C7C000030F0005D08F00603195C2E5C08003CA7
:100C8C0003184C2E8D238D23DC03442E5A0884002C
:100C9C005E080005F10071080130031D0030F00002
:100CAC005D08F00603195C2EFF30DF005F08F000D2
:020CBC0008002E
:100CBE00831203135A088316A00083125B0883164F
:100CCE00A10083125C088316A20083125D088316AE
:100CDE00A3005E30A400762183120313F401F50104
:100CEE00F601F7015A08F0005B08F1005C08F2000B
:100CFE005D08F30060210130031D0030F000700824
:100D0E000319932E3030B9003030BA003030BB00AA
:100D1E005630BC004530BD00F401F501F601F70177
:100D2E005A08F0005B08F1005C08F2005D08F30061
:100D3E006021013003190030F00070080319C92E2C
:100D4E000030F4000030F5004830F6008530F70032
:100D5E005A08F0005B08F1005C08F2005D08F30031
:100D6E007220013003180030F00070080319C92EEC
:100D7E003030B9005E08BA005F08BB005630BC00C8
:100D8E004530BD00F401F501F601F7015A08F000F7
:100D9E005B08F1005C08F2005D08F3006021013091
:100DAE0003190030F00070080319FF2E5A08F400E2
:100DBE005B08F5005C08F6005D08F7000030F000F7
:100DCE000030F1004830F2008530F300722001301F
:100DDE0003180030F00070080319FF2E5E08B900EA
:100DEE005F08BA006008BB005630BC004530BD003D
:100DFE000330FB008A30FC005530FD00FD0B052F43
:100E0E00FC0B052FFB0B052F000000003330ED000F
:100E1E0099230830FB009D30FC000530FD00FD0BD2
:100E2E00162FFC0B162FFB0B162F000000000800D0
:100E3E0083160313871283125A08043A031D2A2FAE
:100E4E00831687152C2F831687110716831294018C
:100E5E005A0894045C0894045B0883169404831265
:100E6E005C080319412F5D08003A031D402F8316BD
:100E7E001417472F83125D080319472F8316141773
:060E8E0083129416080017
:100E940083160313981690308312980083168717CD
:100EA400071383128C1E592F1A08F000532F0800C1
:100EB400EE238A110A128000840AC60A0319C70A9B
:080EC400F003031D5A2F080082
:100ECC00533083120313B3003030B4003330B50009
:100EDC004430B6003030B7003430B8003030B90090
:100EEC003030BA003030BB005630BC004530BD004D
:020EFC000800EC
:080EFE0083120313881208009F
:0E0F06000030831203138C1A0130F000080033
:100F1400831203131A08F100981C922F1812181642
:060F24007108F000080056
:100F4800243084000E3083120313F0009530C6005D
:080F58000730C7005A2708000A
:101000008A11A4278A158316031788018901831280
:1010100087138813031332108316061483123210B9
:101020008316081288128A117F278A158A1166276B
:101030008A150030C2000030C3005C30C400863026
:10104000C5006630BE006630BF002630C0007F306D
:10105000C1000030C8000030C9000430CA0086302A
:10106000CB00831607108312071481308316990072
:1010700018158A114A278A1583168C160C120B171D
:101080008B170630FB001330FC00AD30FD00FD0B6C
:101090004728FC0B4728FB0B4728000000000230C4
:1010A0008312DA00DB01DC01DD018A111F278A15BA
:1010B0000630FB001330FC00AD30FD00FD0B5E2858
:1010C000FC0B5E28FB0B5E28000000000F30DA00EE
:1010D000DB01DC01DD01DE010130DF000030E0007A
:1010E0008A11B8258A150930DA008C30DB00DC0162
:1010F000DD01DE010230DF000030E0008A11B8259A
:101100008A151A30FB005E30FC006E30FD00FD0BCE
:101110008728FC0B8728FB0B872800002B08013A47
:10112000031D5129AB018230FC00DD30FD00FD0BB9
:101130009728FC0B9728000000004E08313A031D49
:10114000D9284F08333A031DD9285008443A031DC3
:10115000D9285108303A031DD9285208343A031DC2
:10116000D9285308303A031DD9285408303A031DB2
:10117000D9285508303A031DD9285608563A031D78
:10118000D9284208DA004308DB004408DC0045089F
:10119000DD008A115F268A151A30FB005E30FC00E4
:1011A0006E30FD00FD0BD228FC0BD228FB0BD228A1
:1011B00000004E08313A031D15294F08333A031D2C
:1011C00015295008443A031D15295108303A031DCA
:1011D00015295208343A031D15295308303A031DC6
:1011E00015295408303A031D15295508303A031DB6
:1011F00015295608493A031D15293E08DA003F080B
:10120000DB004008DC004108DD008A11F5238A1567
:101210001A30FB005E30FC006E30FD00FD0B0E2925
:10122000FC0B0E29FB0B0E2900004E08313A031D62
:1012300051294F08333A031D51295008443A031DE0
:1012400051295108303A031D51295208343A031DDF
:1012500051295308303A031D51295408303A031DCF
:1012600051295508303A031D51295608503A031D9B
:1012700051294808DA004908DB004A08DC004B081D
:10128000DD008A11BA248A151A30FB005E30FC009A
:101290006E30FD00FD0B4A29FC0B4A29FB0B4A2945
:1012A00000000630DA00DB010130DC000130DD0037
:1012B0008A1126268A15700803195F293214321CF8
:1012C00090290630DA00DB010130DC00DD018A11F3
:1012D00026268A1570080319902900303106031D4F
:1012E000732900303006031D7C298A1122268A15B5
:1012F000B00A0319B10A81298A117F278A15B00122
:10130000B10132100830FB009D30FC000530FD00BB
:10131000FD0B8829FC0B8829FB0B882900000000A5
:041320008E28912959
:080F2A0049344E344634003412
:040F32003034003423
:020F3600003485
:020F3800003483
:080F3A004E3461344E340034E2
:040F42000034003443
:04400E00F22F000786
:00000001FF
