:040000008A15072E28
:10000800FF00030E83018316B0000A08AF008A01BF
:1000180070088312A3007108A2000408A4008C1EB3
:100028004A28E9277008003A031D1B281528E927E4
:100038007008013A031D4A288A15FC258A117008A0
:10004800EF007008533A031D3028CA014A08A43E3D
:1000580084006F088000CA0A6F08533A03193E28C3
:100068006F08453A03193E284A08A43E84006F08E1
:100078008000CA0A6F08453A031D4A284A08A43E68
:1000880084006F088000CA010130A5002308F00031
:100098002208F1002408840083162F088A00300EF5
:0800A8008300FF0E7F0E09002A
:1000B000FB14FB1F6228FF30F300F200F100F00098
:0800C000FA0DF20CFF300800FC
:0E00C800F201F101F001F801F301003008002F
:1000D6007B15FB1F75280130F300F201F101F001D9
:0800E600FA0DF20CFF300800D6
:0800EE00FA1FF21300300800B4
:1000F6007C18B128FC1882287C19D0287B28A101FD
:100106007208031DA2287108F2007008F100780831
:10011600F000F801A1157208031DA2287108F2006B
:100126007008F100F001A11121167208031DA22822
:100136007108F200F101A11572080319C4282108FB
:10014600F302031D031CC8280310F21BB128F80D87
:10015600F00DF10DF20DF30BA828C8287B1B701CBF
:10016600CC28F81FCC28F00A0319F10A0319F20A61
:10017600031DCC28F20CF10CF00CF30A0319D0285D
:10018600CC280130FC006420D3280230FC006B2010
:10019600D3280430FC007720D3280830FC005820F0
:0401A600000008004D
:1001AA00831603135A088312930083161418DF2840
:0C01BA000000DA2883121308F00008008F
:1001C600831603135A088312930083161418ED2816
:0C01D6000000E82883121308F000080065
:1001E200A1017208031D06297108F2007008F100CE
:1001F200F001A1157208031D06297108F200F10130
:10020200A11121167208031914292108F302031DF2
:10021200031C18290310F21B1C29F00DF10DF20D1D
:10022200F30B0C2918290130FC0064201F2902302D
:0E023200FC006B201F290430FC007720080020
:10024000831603135108F2007208F100F20A5208F3
:10025000F000D20A700884000008F00071088400E1
:1002600070088000710884000008031938292429C7
:060270005108F000080037
:10027600FB09FA09F909F809F80A0319F90A031931
:08028600FA0A0319FB0A080043
:10028E0083120313F8010830FC00700DF80D74088A
:10029E00F80203185429F8070310F00DFC0B4C2933
:0202AE00080046
:1002B00083120313FB017308031D77080319AF2989
:1002C00072087606FA007708F3077E30031C6C2963
:1002D000F3020318B2296F29F302031CB52972082F
:1002E000F8007108FC007008FD00F817F6170310FD
:1002F000F201F101F0011830A1007D1C8929740878
:10030000F00775080318750FF10776080318760FC4
:10031000F207F20CF10CF00CF80CFC0CFD0C0310C5
:10032000A10B7D29F21B9929F80DF00DF10DF20DAD
:10033000F3037B1B701CAB29F81FAB29F00A0319D0
:10034000F10A0319F20A031DAB29F20CF10CF00CAF
:10035000F30A0319B229FA1FF2130030B72901304A
:100360006420B72902305820B72904306B200000E0
:02037000080083
:1003720083120313FA017308031D7A147708031D0D
:10038200FA147A080319052A033A0319D0297A18AC
:10039200CD29F61F032A012AF21F012A032A720815
:1003A2008039FA00F21376088039F6137A060319B7
:1003B200DE297A080319012A032A7708730203192E
:1003C200E529031CF929FD29760872020319EC2993
:1003D200031CF929FD29750871020319F329031C6D
:1003E200F929FD29740870020319052A0318FD2949
:1003F200FA080319032A012AFA080319012A032A0F
:100402000314080003100800031403150800080071
:100412008316031398180F2A0000092A5108831221
:040422009900080035
:100426008312031372087606A100F801F901730816
:100436007702031C362A7708FD007308F7007D084B
:10044600F3007608FD007208F6007D08F2007508D4
:10045600FD007108F5007D08F1007408FD007008C4
:10046600F4007D08F00077080319AF2A7208FA0035
:10047600F217F61777087302F7000319692A08308E
:100486007702031C5F2AF7007408F9007508F40068
:100496007608F500F60108307702031C5F2AF7009C
:1004A6007408F9007508F400F50108307702031C9A
:1004B6005F2A7A08F200AF2A77080319692A03101F
:1004C600F60CF50CF40CF90CF70B622AA11F762A30
:1004D600F909F409F509F609F90A0319F40A0319E1
:1004E600F50A0319F60A7908F80774080318740F51
:1004F600F00775080318750FF10776080318760FCD
:10050600F207A11B8F2A031C9F2AF20CF10CF00C98
:10051600F80CF30F9F2AAB2A0318A32AF809F0094F
:10052600F109F209F80A0319F00A0319F10A031985
:10053600F20A8030FA06A72A0130FC007B20B12A95
:100546000230FC007B20B12A0430FC00F120B12AE5
:100556000830FC005820B12A0030FC0000000800DA
:0E05660000308316031398180130F0000800CF
:100574007408F8027508031C750FF9027608031C49
:10058400760FFA027708031C770FFB02F30D07308E
:10059400FC00730DF80DF90DFA0DFB0D7408731CB6
:1005A400E12AF8027508031C750FF9027608031C8A
:1005B400760FFA027708031C770FFB02EE2AF8077E
:1005C40075080318750FF90776080318760FFA07EC
:1005D40077080318770FFB07F30DFC0BCB2A720D7A
:1005E400F80DF90DFA0DFB0D7408731C072BF802B6
:1005F4007508031C750FF9027608031C760FFA02BE
:100604007708031C770FFB02142BF80775080318EF
:10061400750FF90776080318760FFA077708031899
:10062400770FFB07F20D0730FC00720DF80DF90D82
:10063400FA0DFB0D7408721C2D2BF8027508031CAF
:10064400750FF9027608031C760FFA027708031C6B
:10065400770FFB023A2BF80775080318750FF90793
:1006640076080318760FFA0777080318770FFB0745
:10067400F20DFC0B172B710DF80DF90DFA0DFB0D96
:100684007408721C532BF8027508031C750FF902C9
:100694007608031C760FFA027708031C770FFB0217
:1006A400602BF80775080318750FF9077608031807
:1006B400760FFA0777080318770FFB07F10D073059
:1006C400FC00710DF80DF90DFA0DFB0D7408711C89
:1006D400792BF8027508031C750FF9027608031CC0
:1006E400760FFA027708031C770FFB02862BF807B4
:1006F40075080318750FF90776080318760FFA07BB
:1007040077080318770FFB07F10DFC0B632B700DB3
:10071400F80DF90DFA0DFB0D7408711C9F2BF802EE
:100724007508031C750FF9027608031C760FFA028C
:100734007708031C770FFB02AC2BF8077508031826
:10074400750FF90776080318760FFA077708031868
:10075400770FFB07F00D0730FC00700DF80DF90D55
:10076400FA0DFB0D7408701CC52BF8027508031CE8
:10077400750FF9027608031C760FFA027708031C3A
:10078400770FFB02D22BF80775080318750FF907CA
:1007940076080318760FFA0777080318770FFB0714
:1007A400F00DFC0BAF2B7018E52B7408F8077508D7
:1007B4000318750FF90776080318760FFA077708F8
:0807C4000318770FFB07080082
:1007CC0083120313071083165108DA00E3200D304F
:1007DC00FC00FB30FD00FD0BF12BFC0BF12B0000A2
:1007EC00000001308316D7000030D8008030F000B4
:1007FC00803058067002031D052C57085202031C4A
:10080C00322CDA01D52070088316D9000D30FC008B
:10081C00FB30FD00FD0B102CFC0B102C000000001D
:10082C005908D3040030D404D504D60480305806BB
:10083C00F00080307002031D252C5208570203185B
:10084C002E2C5508D6005408D5005308D400D301DB
:10085C00D70A0319D80AFC2B8312071483165308E2
:10086C00F0005408F1005508F2005608F300080097
:0C087C00831203138030F60613220800DC
:100888000C3083160313D1000230D200E62308008F
:100898008312031373087706031D5F2C720876060C
:1008A800031D5F2C71087506031D5F2C7008740604
:0C08B800031903150800031108000800D4
:1008C400831203137008F8007108F0007208F10035
:1008D4007308F200F301FB01FC019E30F300FA01FE
:1008E400F21F802CF809F009F109F209F80A03193A
:1008F400F00A0319F10A0319F20AFA170230FC008C
:040904007B2008004C
:100908008030831603134404F0007008C400831277
:10091800071070088316DA00E3200D30FC00FB3066
:10092800FD00FD0B952CFC0B952C00000000831698
:10093800CB01CC0180304C06F00080304A067002B2
:10094800031DA82C49084B020318F02C013049025A
:10095800F0000030031C013E4A02F1004B0870020F
:10096800F3004C08031C013E7102F4000330F2004E
:100978007308F0007408F10072080319C82CF00D10
:10098800F10D7010FF3EC12C7008F4004508F0000E
:100998004608F1004708F2004808F30074080319F4
:1009A800DE2CF30CF20CF10CF00CF313731BF317A1
:1009B800FF3ED32C7008DA00E3200D30FC00FB303A
:1009C800FD00FD0BE52CFC0BE52C00000000831658
:0E09D800CB0A0319CC0A9E2C831207140800C8
:1009E60083160313CF01D0014408CB004508CC0081
:1009F6004608CD004708CE004E08FF3A031D0D2DD0
:100A06004D08FF3A031D0D2D4C08FF3A031D0D2D11
:100A16004B08FF3A031D172D4808D1002630D20097
:100A260020210330F000F42E0130C900CD1F262D01
:100A360080304D06F0007008CD00C90A48088400D1
:100A46002D308000C80A0030F0004E06031D352DFB
:100A560070084D06031D352D70084C06031D352DF7
:100A66004B08003A031D3E2D4808D1003B30D2000A
:100A76002021F001F42E4E08FF3A031D4C2D4D089F
:100A8600003A031D4C2D4C08003A031D4C2D4B0813
:100A9600003A031D562D4808D1003730D2002021D8
:100AA6004908F000F42E0030F4000030F500003064
:100AB600F6007F30F7004B08F0004C08F1004D08B7
:100AC600F2004E08F300B921013003180030F0009F
:100AD600700803198B2D83164B08F0004C08F100A3
:100AE6004D08F2004E08F3000030F4000030F50027
:100AF6002030F6008230F700582170088316CB00AC
:100B06007108CC007208CD007308CE00D003562DB4
:100B160083160030F4000030F5002030F6008230F5
:100B2600F7004B08F0004C08F1004D08F2004E08A3
:100B3600F300B9210130031C0030F00070080319DE
:100B4600C12D83164B08F0004C08F1004D08F20049
:100B56004E08F300CD30F400CC30F5004C30F600F2
:100B66007B30F700582170088316CB007108CC0043
:100B76007208CD007308CE00D00A8B2D8316FF3085
:100B86004B05F800FF304C05F9007F304D05FA00A3
:100B960000304E05FB007808F4007908F5007A0865
:100BA600F6007B08F700F40DF50DF60DF70D741041
:100BB60000304B05F00000304C05F10000304D05CB
:100BC600F200FF304E05F3007008CB007108CC0030
:100BD6007208CD007308CE0074084B04F000750847
:100BE6004C04F10076084D04F20077084E04F30039
:100BF6007008CB007108CC007208CD007308CE00D7
:100C06007F304E02F0007008CA000130CE00700836
:100C1600F4004B08F0004C08F1004D08F2004E08B5
:100C2600F300740803191E2EF00DF10DF20DF30DED
:100C36007010FF3E152E7008CB007108CC007208AC
:100C4600CD007308CE004E08303EF0004808840000
:100C560070088000C80A80305006F0008030013AE3
:100C66007002031C3F2E8030063AF000803050069A
:100C76007002031C3F2E462E480884002E3080004A
:100C8600C80A0130CF000630CA004A08003A0319E4
:100C9600A42ECE014B08F0004C08F1004D08F200DE
:100CA6004E08F300F00DF10DF20DF30D7010F00D7E
:100CB600F10DF20DF30D70104B08F0074C080318F8
:100CC6004C0FF1074D0803184D0FF2074E08031895
:100CD6004E0FF3077008CB007108CC007208CD00E8
:100CE6007308CE004B08F0004C08F1004D08F200E6
:100CF6004E08F300F00DF10DF20DF30D70107008B3
:100D0600CB007108CC007208CD007308CE004E08E7
:100D1600303EF0004808840070088000C80A4F087A
:100D2600003A031DA22ED0035008003A031DA22E3E
:100D3600480884002E308000C80A0130CF00CA035C
:100D4600482EFF30480784000008303A031DAD2EB8
:100D5600C803A42EFF304807840000082E3A031D5E
:100D6600B52EC8035008003A0319F02E480884002F
:100D760065308000C80A80305006F0008030003AA6
:100D860070020318CE2E480884002D308000C80A51
:100D96005008003CD0005008CA005008093C03180F
:100DA600E12E0A30F4004A08F00047213030F007FF
:100DB60083164808840070088000C80A0A30F400C8
:100DC6004A08F00047217808F0003030F007831613
:100DD6004808840070088000C80A4808840080011A
:040DE600F001080010
:100DEA008312031386150330FB008A30FC0055304A
:100DFA00FD00FD0BFE2EFC0BFE2EFB0BFE2E000053
:100E0A0000008316C501C6018030F0008030460616
:100E1A007002031D122F45080A3C031C252FB3221A
:100E2A007008003A031D1A2F142F4508440784003E
:100E3A000008D10009228316C50A0319C60A092F18
:100E4A004130FC00EE30FD00FD0B292FFC0B292F51
:080E5A0000008312861108005C
:0E0E6200831203136E088A006D0882000800D8
:100E70000B3083160313D1000230D200E6230800A2
:100E80008316031387123108043A031D492F87156F
:100E90004A2F871107168312940183163108831293
:100EA000940483163308831294048316320894043E
:100EB00033080319612F3408003A031D602F1417FB
:100EC000652F34080319652F141783129416080030
:100ED000831603133108C4003208C5003308C60066
:100EE0003408C700B530C800F324F401F501F60159
:100EF000F7013108F0003208F1003308F20034083D
:100F0000F3004C240130031D0030F0007008031979
:100F1000932F3030E8003030E9003030EA005630AE
:100F2000EB004530EC00F401F501F601F701831602
:100F30003108F0003208F1003308F2003408F30001
:100F40004C24013003190030F00070080319CF2F32
:100F50000030F4000030F5004830F6008530F7002E
:100F600083163108F0003208F1003308F20034082B
:100F7000F300B921013003180030F00070080319A4
:100F8000CF2F3030E800831635088312E90083162E
:100F900036088312EA005630EB004530EC00413051
:100FA000FC00EE30FD00FD0BD32FFC0BD32F000017
:0A0FB00062308316C400F526080025
:100FBA0031278A110A128000840AED0A0319EE0AFF
:080FCA00F003031DDD2F0800F8
:0E0FD2000030831203138C1A0130F000080067
:100FE00025308400313083120313F000FD30ED0012
:080FF0000E30EE00DD270800C1
:10100000831203137408003A031D1B287508003A65
:10101000031D1B287608003A031D1B287708003A99
:10102000031D1B28FF30F000FF30F100FF30F200FD
:101030007F30F300B82883120313FC01F71BFC0A6E
:10104000FD01FB01FA01F901F80173087204710452
:1010500070040319B12873087706A000A01BFD09CE
:10106000F71F3D28F409F509F609F709F40A0319F1
:10107000F50A0319F60A0319F70AF31F4A28F009BB
:10108000F109F209F309F00A0319F10A0319F20A46
:101090000319F30A73087704A000A01B6D288A11B6
:1010A000BA228A15FC1B8A28FD1FB128F009F10914
:1010B000F209F309F00A0319F10A0319F20A0319F4
:1010C000F30AF809F909FA09FB09F80A0319F90AF8
:1010D0000319FA0A0319FB0AB128F71F8428F31B26
:1010E0007E287308FB007208FA007108F900700886
:1010F000F800F301F201F101F0015428F301F201CB
:10110000F101F001F00A0034F309F209F109F009E4
:10111000FC174F28F80A0319F90A0319FA0A0319E8
:10112000FB0A74087802031D542875087902031D10
:10113000542876087A02031D542877087B02031D81
:101140005428FB01FA01F901F801F00A0319F10A28
:101150000319F20A0319F30AF31F5428A0012016F9
:10116000FF34A0017C1CB7288A113B218A15003E60
:02117000080075
:1011720083160313B501B601B701B801B301B40177
:101182000A30C4001030C500C601C701C8010230D0
:10119200C9000030CA008A1184248A158316B1015D
:1011A200B20180303206F00080307002031DDB286D
:1011B2000A30310203182A298A1144248A158A1115
:1011C20038278A15701AF728B30A0319B40A80302F
:1011D200F000803034067002031DF1283308643CAD
:1011E2000318F628B301B401F728E0281630D1001D
:1011F2000330D2008A11E6238A157008A000710814
:10120200A1007208A2007308A3008230FC00DD3046
:10121200FD00FD0B0A29FC0B0A2900000000200832
:10122200B50721080318210FB60722080318220F59
:10123200B70723080318230FB807A330FC00553063
:10124200FD00FD0B2229FC0B2229B10A0319B20A67
:10125200D2288A1144248A150A30F400F501F601D5
:10126200F7013508F0003608F1003708F2003808B7
:10127200F3000020FF30F005FF30F105FF30F205EA
:101282000030F3058A1162248A1570088316B900AA
:101292007108BA007208BB007308BC00C530F400C4
:1012A200C630F5001B30F6007030F7008A11582165
:1012B2008A1570088316B9007108BA007208BB005B
:1012C2007308BC009030F4001830F5001030F600BE
:1012D2008730F7008A113E248A1570088316B900F8
:1012E2007108BA007208BB007308BC007008F400F1
:1012F2007108F5007208F6007308F7000030F0007C
:101302000030F1002030F2008430F3008A11B9215C
:101312008A15013003180030F0007008031DA92956
:10132200F401F501F601F70183163908F0003A08D5
:10133200F1003B08F2003C08F3008A11B9218A153A
:10134200013003180030F0007008031DA929AE29EE
:101352008316B901BA01BB01BC0183163908F0003A
:0E1362003A08F1003B08F2003C08F3000800D6
:1013700083160313B301B401B501B6011C30C400D8
:101380006430C500C601C701C8010230C900003081
:10139000CA008A1184248A150D30FB00AF30FC008E
:1013A000B630FD00FD0BD229FC0BD229FB0BD22954
:1013B000000009308316C4008030C500C601C70193
:1013C000C8010230C9000030CA008A1184248A157D
:1013D0000D30FB00AF30FC00B630FD00FD0BEE29F8
:1013E000FC0BEE29FB0BEE2900000A308316C4002B
:1013F0000430C500C601C701C8010230C900003071
:10140000CA008A1184248A150D30FB00AF30FC001D
:10141000B630FD00FD0B0A2AFC0B0A2AFB0B0A2A38
:1014200000008A1144248A158A1138278A157019F8
:101430002B2AB10A0319B20A8030F000803032063C
:101440007002031D252A3108C83C03182A2AB1015D
:10145000B2012B2A142A8A1144248A158A113827AA
:101460008A157019452AB10A0319B20A8030F000B2
:10147000803032067002031D3F2A3108C83C031831
:10148000442AB101B201452A2E2A8A1144248A1520
:101490000430D1000330D2008A11E6238A15700887
:1014A000A0007108A1007208A2007308A3000D300B
:1014B000FB00AF30FC00B630FD00FD0B5D2AFC0BDD
:1014C0005D2AFB0B5D2A0000FF302005F000FF3095
:1014D0002105F1002208F2002308F3000030F20594
:1014E000F3058A1162248A1570088316B300710807
:1014F000B4007208B5007308B6007130F4003D30D6
:10150000F5005230F6007F30F7008A1158218A1515
:1015100070088316B3007108B4007208B500730830
:10152000B6002930F4005C30F5000F30F6007C3056
:10153000F7008A1113228A1570088316B300710808
:10154000B4007208B5007308B6001C30C400FF3048
:10155000C500FF30C600C701C8010230C900003015
:10156000CA008A1184248A150D30FB00AF30FC00BC
:10157000B630FD00FD0BBA2AFC0BBA2AFB0BBA2AC7
:1015800000000030F4000030F5000030F60082303A
:10159000F70083163308F0003408F1003508F20034
:1015A0003608F3008A11B9218A150130031800307A
:1015B000F0007008031DF82A83163308F40034087D
:1015C000F5003508F6003608F7000030F00000306E
:1015D000F1007A30F2008930F3008A11B9218A15BE
:1015E000013003180030F0007008031DF82AFD2AAE
:1015F0008316B301B401B501B60183163308F000B8
:0E1600003408F1003508F2003608F300080047
:10160E00831603133108C4003208C5003308C60020
:10161E003408C700B530C8008A11F3248A15F401C6
:10162E00F501F601F7013108F0003208F100330838
:10163E00F2003408F3008A114C248A150130031D80
:10164E000030F00070080319362B3030E8003030CF
:10165E00E9003030EA005030EB004530EC00F40188
:10166E00F501F601F70183163108F0003208F1009A
:10167E003308F2003408F3008A114C248A15013025
:10168E0003190030F00070080319742B0030F400B9
:10169E000030F5002030F6008230F7008316310856
:1016AE00F0003208F1003308F2003408F3008A111A
:1016BE00B9218A15013003180030F00070080319A3
:1016CE00742B3030E8003030E90083163508831271
:1016DE00EA005030EB004530EC000030F4000030F2
:1016EE00F5004830F6008530F70083163108F0001B
:1016FE003208F1003308F2003408F3008A11B921E0
:10170E008A15013003180030F00070080319B82B49
:10171E0083163108F4003208F5003308F600340859
:10172E00F7000030F0000030F1002030F20082307F
:10173E00F3008A11B9218A15013003180030F00028
:10174E0070080319B82B3030E80083163508831261
:10175E00E900831636088312EA005030EB0045305C
:10176E00EC000030F4000030F5007A30F6008830DE
:10177E00F70083163108F0003208F1003308F2004A
:10178E003408F3008A11B9218A150130031800308C
:10179E00F00070080319FE2B83163108F40032088E
:1017AE00F5003308F6003408F7000030F000003082
:1017BE00F1004830F2008530F3008A11B9218A1504
:1017CE00013003180030F00070080319FE2B831649
:1017DE0035088312E800831636088312E900831653
:1017EE0037088312EA005030EB004530EC004130F0
:1017FE00FC00EE30FD00FD0B022CFC0B022C000059
:0E180E0062308316C4008A11F5268A15080080
:10181C00831603133108C4003208C5003308C60010
:10182C003408C700B530C8008A11F3248A15F401B6
:10183C00F501F601F7013108F0003208F100330828
:10184C00F2003408F3008A114C248A150130031D70
:10185C000030F000700803193D2C3030E8003030B7
:10186C00E9003030EA004930EB004530EC00F4017F
:10187C00F501F601F70183163108F0003208F1008A
:10188C003308F2003408F3008A114C248A15013015
:10189C0003190030F00070080319972C0030F40085
:1018AC000030F5000030F6007F30F7008316310869
:1018BC00F0003208F1003308F2003408F3008A110A
:1018CC00B9218A15013003180030F0007008031993
:1018DC00972C83163108F4003208F5003308F60013
:1018EC003408F700CD30F000CC30F1004C30F20071
:1018FC007B30F3008A11B9218A15013003180030AE
:10190C00F00070080319972C3030E8002E30E900F5
:10191C00831635088312EA004930EB004530EC00A1
:10192C00C02C83163108F4003208F5003308F60099
:10193C003408F7000030F0000030F1000030F20005
:10194C007F30F3008A11B9218A1501300318003059
:10195C00F00070080319C02C831635088312E800B8
:10196C002E30E900831637088312EA004930EB0069
:10197C004530EC004130FC00EE30FD00FD0BC42C7A
:10198C00FC0BC42C000062308316C4008A11F526AF
:04199C008A150800A0
:1019A00083160313B301310884000008B200320823
:1019B000003A0319E82C3208D1008A1109228A154D
:1019C0008316B30A3308310784000008B200D72C0D
:0219D00008000D
:1019D20083160313B501B601B701B801B301B4010F
:1019E2000A30C4001030C500C601C701C801023068
:1019F200C9000030CA008A1184248A158316B101F5
:101A0200B20180303206F00080307002031D0B2DCF
:101A12000A30310203185A2D8A1144248A158A1178
:101A220038278A15701A272DB30A0319B40A803091
:101A3200F000803034067002031D212D3308643C0F
:101A42000318262DB301B401272D102D1730D10014
:101A52000330D2008A11E6238A157008A0007108AB
:101A6200A1007208A2007308A3008230FC00DD30DE
:101A7200FD00FD0B3A2DFC0B3A2D00000000200862
:101A8200B50721080318210FB60722080318220FF1
:101A9200B70723080318230FB807A330FC005530FB
:101AA200FD00FD0B522DFC0B522DB10A0319B20A97
:101AB200022D8A1144248A150A30F400F501F60138
:101AC200F7013508F0003608F1003708F20038084F
:101AD200F3000020FF30F005FF30F105FF30F20582
:101AE2000030F3058A1162248A1570088316B90042
:101AF2007108BA007208BB007308BC003A30F400E7
:101B02006330F5003130F6007330F7008A11582146
:101B12008A1570088316B9007108BA007208BB00F2
:101B22007308BC006630F4002630F5002430F6005D
:101B32008A30F7008A113E248A1570088316B9008C
:101B42007108BA007208BB007308BC007008F40088
:101B52007108F5007208F6007308F7000030F00013
:101B62000030F1004830F2008730F3008A11B921C9
:101B72008A15013003180030F0007008031DDD2DB6
:101B82000030F4000030F5000C30F6008430F7002D
:101B920083163908F0003A08F1003B08F2003C08CD
:101BA200F3008A11B9218A15013003180030F000C0
:101BB2007008031DDD2DE22D8316B901BA01BB01A8
:101BC200BC0183163908F0003A08F1003B08F20024
:061BD2003C08F3000800CE
:101BD800831603139816903083129800831687177C
:101BE800071383128C1EFB2D1A08F000F52D080030
:101BF800831203131A08F100981C042E18121816E1
:061C08007108F000080065
:101C0E008A11F0278A15533083120313E200303005
:101C1E00E3003330E4004430E5003030E600343089
:101C2E00E7003030E8003030E9003030EA0056305E
:101C3E00EB004530EC00D601D701D801D901DE0109
:101C4E00DF01E001E101DA01DB01DC01DD018316D8
:101C5E000710831207148130831699001815EC258E
:101C6E000630FB001330FC00AD30FD00FD0B3D2EA9
:101C7E00FC0B3D2EFB0B3D2E0000000002308316A8
:101C8E00B100B201B301B4018A1140278A150630A2
:101C9E00FB001330FC00AD30FD00FD0B542EFC0B91
:101CAE00542EFB0B542E000000000F308316C40080
:101CBE00C501C601C701C8010130C9000030CA0004
:101CCE008A1184248A1509308316C4008C30C5000D
:101CDE00C601C701C8010230C9000030CA008A110E
:101CEE0084248A150630FB001330FC00AD30FD0055
:101CFE00FD0B7F2EFC0B7F2EFB0B7F2E00000000BA
:101D0E004B308316B100D024E92470088312D6001C
:101D1E007108D7007208D8007308D90070088316AE
:101D2E00B1007108B2007208B3007308B4008A11D2
:101D3E0068278A151A30FB005E30FC006E30FD00FD
:101D4E00FD0BA72EFC0BA72EFB0BA72E00003D3084
:101D5E008316B100D024B92070088312DE007108FA
:101D6E00DF007208E0007308E10070088316B1000E
:101D7E007108B2007208B3007308B4000E240D305F
:101D8E00FB00AF30FC00B630FD00FD0BCC2EFC0B83
:101D9E00CC2EFB0BCC2E00002A308316B100D024A3
:101DAE00B82170088312DA007108DB007208DC00BB
:101DBE007308DD0070088316B1007108B200720856
:101DCE00B3007308B40007230D30FB00AF30FC00E6
:101DDE00B630FD00FD0BF12EFC0BF12EFB0BF12EA0
:061DEE000000872EF92E13
:021DFA000034B3
:081DFC004E3461344E34003412
:101E04000A3443346F346E34673420347334753495
:0A1E1400613474343A342034003491
:081E1E0049344E34463400340F
:041E26003034003420
:101E2A000A3444346F346E34673420346434693489
:0A1E3A0065346E343A34203400346D
:021E4400003468
:101E46000A344434693465346E3420346134703471
:061E56003A342034003490
:04400E00F22F000786
:00000001FF
