:040000008A154D29E7
:10000800FF00030E8301D7000A08D6008A01700892
:10001800A2007108A1000408A3008B1C1828013055
:10002800B2000030B3008B108C1E4D289127700849
:10003800003A031D20281A2891277008013A031D49
:100048004D2898277008C3007008533A031D3328B9
:10005800A40124084B3E840043088000A40A4308F6
:10006800533A031941284308453A031941282408FB
:100078004B3E840043088000A40A4308453A031D08
:100088004D2824084B3E840043088000A401013019
:10009800B1002208F0002108F10023088400560866
:0C00A8008A00570E8300FF0E7F0E090037
:1000B40083160313310883129300831614186428DB
:0C00C40000005F2883121308F000080001
:1000D00083160313310883129300831614187228B1
:0C00E00000006D2883121308F0000800D7
:0E00EC00F201F101F001F801F301003008000B
:1000FA007B15FB1F87280130F300F201F101F001A3
:08010A00FA0DF20CFF300800B1
:08011200FA1FF213003008008F
:10011A00FB14FB1F9728FF30F300F200F100F000F8
:08012A00FA0DF20CFF30080091
:1001320083120313FB017308031D77080319F028C8
:1001420072087606FA007708F3077E30031CAD28A2
:10015200F3020318F328B028F302031CF6287208EE
:10016200F8007108FC007008FD00F817F61703107C
:10017200F201F101F0011830A0007D1CCA287408B8
:10018200F00775080318750FF10776080318760F44
:10019200F207F20CF10CF00CF80CFC0CFD0C031045
:1001A200A00BBE28F21BDA28F80DF00DF10DF20DAE
:1001B200F3037B1B701CEC28F81FEC28F00A0319D0
:1001C200F10A0319F20A031DEC28F20CF10CF00CEF
:1001D200F30A0319F328FA1FF2130030F82801304A
:1001E2007620F82802308D20F82804307D20000087
:0201F200080003
:1001F40083120313FA017308031D7A147708031D8D
:10020400FA147A0803194629033A031911297A18AA
:100214000E29F61F44294229F21F42294429720853
:100224008039FA00F21376088039F6137A06031936
:100234001F297A08031942294429770873020319EC
:100244002629031C3A293E297608720203192D290E
:10025400031C3A293E297508710203193429031C29
:100264003A293E29740870020319462903183E29C5
:10027400FA08031944294229FA080319422944298E
:1002840003140800031008000314031508000800F1
:100294007C188029FC1851297C199F294A29A0011E
:1002A4007208031D71297108F2007008F1007808C2
:1002B400F000F801A0157208031D71297108F200FD
:1002C4007008F100F001A01120167208031D7129B5
:1002D4007108F200F101A01572080319932920088E
:1002E400F302031D031C97290310F21B8029F80D48
:1002F400F00DF10DF20DF30B772997297B1B701C80
:100304009B29F81F9B29F00A0319F10A0319F20A21
:10031400031D9B29F20CF10CF00CF30A03199F291D
:100324009B290130FC007620A2290230FC007D20AC
:10033400A2290430FC008920A2290830FC008D2069
:0403440000000800AD
:10034800831603132808F2007208F100F20A29083C
:10035800F000A90A700884000008F0007108840001
:10036800700880007108840000080319BC29A829B6
:060378002808F000080057
:10037E0083120313071083162808B1005A200D307C
:10038E00FC00FB30FD00FD0BCA29FC0BCA29000046
:10039E00000001308316AE000030AF008030F00058
:1003AE0080302F067002031DDE292E082902031C41
:1003BE000B2AB101682070088316B0000D30FC00C6
:1003CE00FB30FD00FD0BE929FC0BE92900000000C4
:1003DE003008AA040030AB04AC04AD0480302F0604
:1003EE00F00080307002031DFE2929082E0203182A
:1003FE00072A2C08AD002B08AC002A08AB00AA0176
:10040E00AE0A0319AF0AD5298312071483162A08D8
:10041E00F0002B08F1002C08F2002D08F300080064
:10042E00A0017208031D2C2A7108F2007008F10059
:10043E00F001A0157208031D2C2A7108F200F101BB
:10044E00A0112016720803193A2A2008F302031D80
:10045E00031C3E2A0310F21B422AF00DF10DF20D81
:10046E00F30B322A3E2A0130FC007620452A023058
:0E047E00FC007D20452A0430FC008920080087
:0E048C0000308316031398180130F0000800AA
:10049A00831603139818532A00004D2A280883123A
:0404AA0099000800AD
:1004AE0083120313F8010830FC00700DF80D740868
:1004BE00F8020318642AF8070310F00DFC0B5C2AEF
:0204CE00080024
:1004D0008312031308160830FB009D30FC00053022
:1004E000FD00FD0B712AFC0B712AFB0B712A000029
:1004F0000000EC01ED018030F00080306D067002EC
:10050000031D842A6C080A3C031CA02A462270089A
:10051000003A031D8C2A862A83126C086B0784001C
:1005200000088316A8004D22C330FC00CD30FD002A
:10053000FD0B982AFC0B982AEC0A0319ED0A7B2A7A
:100540000630FB001330FC00AD30FD00FD0BA62A89
:10055000FC0BA62AFB0BA62A0000000008120800CC
:0E0560008312031345088A0044088200080035
:10056E008312031373087706031DCA2A72087606D0
:10057E00031DCA2A71087506031DCA2A700874065F
:0C058E0003190315080003110800080001
:10059A00831203137008F8007108F0007208F10062
:1005AA007308F200F301FB01FC019E30F300FA012B
:1005BA00F21FEB2AF809F009F109F209F80A0319FE
:1005CA00F00A0319F10A0319F20AFA170230FC00B9
:0405DA004A210800AA
:1005DE008030831603132004F0007008A0008312ED
:1005EE00071070088316B1005A200D30FC00FB3046
:1005FE00FD00FD0B002BFC0B002B00000000EB019F
:10060E00EC0180306C06F0008030831626067002F6
:10061E00031D142B250883126B0203185F2B013068
:10062E0083162502F0000030031C013E2602F10065
:10063E0083126B087002F3006C08031C013E7102FA
:10064E00F4000330F2007308F0007408F100720831
:10065E000319362BF00DF10D7010FF3E2F2B700885
:10066E00F40083162108F0002208F1002308F2009E
:10067E002408F300740803194D2BF30CF20CF10C43
:10068E00F00CF313731BF317FF3E422B8316700807
:10069E00B1005A200D30FC00FB30FD00FD0B552B38
:1006AE00FC0B552B00000000EB0A0319EC0A082B7B
:0606BE008312071408007E
:1006C4008312031372087606A000F801F901730877
:1006D4007702031C852B7708FD007308F7007D085B
:1006E400F3007608FD007208F6007D08F200750834
:1006F400FD007108F5007D08F1007408FD00700824
:10070400F4007D08F00077080319FE2B7208FA0044
:10071400F217F61777087302F7000319B82B08309D
:100724007702031CAE2BF7007408F9007508F40077
:100734007608F500F60108307702031CAE2BF700AB
:100744007408F9007508F400F50108307702031CF9
:10075400AE2B7A08F200FE2B77080319B82B03108E
:10076400F60CF50CF40CF90CF70BB12BA01FC52BF0
:10077400F909F409F509F609F90A0319F40A031940
:10078400F50A0319F60A7908F80774080318740FB0
:10079400F00775080318750FF10776080318760F2C
:1007A400F207A01BDE2B031CEE2BF20CF10CF00C59
:1007B400F80CF30FEE2BFA2B0318F22BF809F009BF
:1007C400F109F209F80A0319F00A0319F10A0319E5
:1007D400F20A8030FA06F62B0130FC004A21002C84
:1007E4000230FC004A21002C0430FC001722002CAB
:1007F4000830FC008D20002C0030FC0000000800B4
:1008040083160313A601A70183126B088316A200A3
:1008140083126C088316A30083126D088316A40048
:1008240083126E088316A5002508FF3A031D242CA5
:100834002408FF3A031D242C2308FF3A031D242C0B
:100844002208FF3A031D302C83126F088316A80078
:100854002530A900A4210330F000212E0130A0008E
:10086400A41F402C80302406F0007008A400A00AC5
:1008740083126F0884002D308000EF0A0030F000EE
:1008840083162506031D502C70082406031D502CC6
:1008940070082306031D502C2208003A031D5B2C0C
:1008A40083126F088316A8002F30A900A421F00139
:1008B400212E2508FF3A031D692C2408003A031D44
:1008C400692C2308003A031D692C2208003A031DF1
:1008D400752C83126F088316A8002B30A900A4215D
:1008E4002008F000212E0030F4000030F500003024
:1008F400F6007F30F7002208F0002308F1002408F6
:10090400F2002508F300FA20013003180030F0004B
:1009140070080319AA2C83162208F0002308F1009A
:100924002408F2002508F3000030F4000030F5003C
:100934002030F6008230F700992070088316A20058
:100944007108A3007208A4007308A500A703752CFE
:1009540083160030F4000030F5002030F6008230B9
:10096400F7002208F0002308F1002408F20025080B
:10097400F300FA200130031C0030F0007008031962
:10098400E02C83162208F0002308F1002408F2006A
:100994002508F300CD30F400CC30F5004C30F600DF
:1009A4007B30F700992070088316A2007108A30019
:1009B4007208A4007308A500A70AAA2C8316FF30A6
:1009C4002205F800FF302305F9007F302405FA00E2
:1009D40000302505FB007808F4007908F5007A0852
:1009E400F6007B08F700F40DF50DF60DF70D741005
:1009F40000302205F00000302305F100003024050A
:100A0400F200FF302505F3007008A2007108A3006E
:100A14007208A4007308A50074082204F000750885
:100A24002304F10076082404F20077082504F30077
:100A34007008A2007108A3007208A4007308A5003E
:100A44007F302502F0007008A1000130A500700875
:100A5400F4002208F0002308F1002408F20025081D
:100A6400F300740803193D2DF00DF10DF20DF30D93
:100A74007010FF3E342D7008A2007108A3007208A4
:100A8400A4007308A5002508303EF00083126F0807
:100A9400840070088000EF0A803083162706F00077
:100AA4008030013A7002031C602D8030063AF00059
:100AB400803027067002031C602D692D83126F0895
:100AC40084002E308000EF0A01308316A600063021
:100AD400A1002108003A0319CB2DA5012208F0003A
:100AE4002308F1002408F2002508F300F00DF10DAD
:100AF400F20DF30D7010F00DF10DF20DF30D7010F9
:100B04002208F00723080318230FF1072408031809
:100B1400240FF20725080318250FF3077008A20015
:100B24007108A3007208A4007308A5002208F0004D
:100B34002308F1002408F2002508F300F00DF10D5C
:100B4400F20DF30D70107008A2007108A300720872
:100B5400A4007308A5002508303EF00083126F0836
:100B6400840070088000EF0A83162608003A031DEB
:100B7400C92DA7032708003A031DC92D83126F0846
:100B840084002E308000EF0A01308316A600A103F2
:100B94006B2DFF3083126F0784000008303A031D69
:100BA400D52DEF03CB2DFF306F07840000082E3ABC
:100BB400031DDD2DEF0383162708003A03191C2EAD
:100BC40083126F08840065308000EF0A803083163A
:100BD4002706F0008030003A70020318FB2D8312C0
:100BE4006F0884002D308000EF0A83162708003C2C
:100BF400A7002708A1002708093C03180D2E0A3076
:100C0400F4002108F00057223030F0076F08840008
:100C140070088000EF0A0A30F40083162108F000FF
:100C240057227808F0003030F0076F08840070080D
:100C34008000EF0A83126F0884008001F00108002D
:100C44000C3083160313A8000230A900BF2108004A
:100C54000B3083160313A8000230A900BF2108003B
:080C6400831203138816080037
:100C6C00831203135808EB005908EC005A08ED00E6
:100C7C005B08EE005C30EF00022483120313F401D6
:100C8C00F501F601F7015808F0005908F1005A086F
:100C9C00F2005B08F300B7220130031D0030F000B6
:100CAC0070080319632E3030BA003030BB0030307E
:100CBC00BC005030BD004530BE00F401F501F6011A
:100CCC00F7015808F0005908F1005A08F2005B08C7
:100CDC00F300B722013003190030F000700803193B
:100CEC00992E0030F4000030F5002030F6008230F0
:100CFC00F7005808F0005908F1005A08F2005B0898
:100D0C00F300FA20013003180030F00070080319CA
:100D1C00992E3030BA003030BB005C08BC0050302B
:100D2C00BD004530BE000030F4000030F500483006
:100D3C00F6008530F7005808F0005908F1005A0801
:100D4C00F2005B08F300FA20013003180030F000C9
:100D5C0070080319D32E5808F4005908F5005A08E6
:100D6C00F6005B08F7000030F0000030F100203096
:100D7C00F2008230F300FA20013003180030F0004A
:100D8C0070080319D32E3030BA005C08BB005D0824
:100D9C00BC005030BD004530BE000030F4000030C7
:100DAC00F5007A30F6008830F7005808F000590842
:100DBC00F1005A08F2005B08F300FA200130031826
:100DCC000030F000700803190D2F5808F400590872
:100DDC00F5005A08F6005B08F7000030F000003010
:100DEC00F1004830F2008530F300FA20013003188E
:100DFC000030F000700803190D2F5C08BA005D0874
:100E0C00BB005E08BC005030BD004530BE00033056
:100E1C00FB008A30FC005530FD00FD0B132FFC0B42
:100E2C00132FFB0B132F000000003430EB00682253
:100E3C000830FB009D30FC000530FD00FD0B242F1D
:0E0E4C00FC0B242FFB0B242F000000000800DD
:100E5A0083160313871283125808043A031D382F86
:100E6A00831687153A2F8316871107168312940162
:100E7A00580894045A08940459088316940483124F
:100E8A005A0803194F2F5B08003A031D4E2F831689
:100E9A001417552F83125B080319552F831614173D
:060EAA00831294160800FB
:080EB0008312031388120800ED
:100EB800533083120313B4003030B5003330B6001A
:100EC8004430B7003030B8003430B9003030BA00A0
:100ED8003030BB003030BC005030BD004530BE0063
:020EE800080000
:100EEA008316031398169030831298008316871777
:100EFA00071383128C1E842F1A08F0007E2F080015
:100F0A00B0228A110A128000840AC40A0319C50A87
:080F1A00F003031D852F080000
:0E0F22000030831203138C1A0130F000080017
:100F3000831203131A08F100981CA02F1812181618
:060F40007108F00008003A
:100F680024308400103083120313F000A330C4002F
:080F78000730C50085270800C1
:1010000083120313DA01DB01DC01DD011C308316DE
:10101000A0006430A100A201A301A4010230A50038
:101020000030A6008A11EF228A150D30FB00AF3088
:10103000FC00B630FD00FD0B1B28FC0B1B28FB0B36
:101040001B28000009308316A0008030A100A201F7
:10105000A301A4010230A5000030A6008A11EF22EE
:101060008A150D30FB00AF30FC00B630FD00FD0BE3
:101070003728FC0B3728FB0B372800000A30831673
:10108000A0000430A100A201A301A4010230A50028
:101090000030A6008A11EF228A150D30FB00AF3018
:1010A000FC00B630FD00FD0B5328FC0B5328FB0B56
:1010B000532800008A1122268A158A112A268A15A9
:1010C000701975288312D80A0319D90A8030F000E4
:1010D000803059067002031D6F285808C83C031859
:1010E0007428D801D90175285D288A1122268A150D
:1010F0008A112A268A15701990288312D80A031992
:10110000D90A8030F000803059067002031D8A2809
:101110005808C83C03188F28D801D901902878288E
:101120008A1122268A150430A8000330A9008A11EA
:10113000BF218A1570088312BF007108C0007208B1
:10114000C1007308C2000D30FB00AF30FC00B630A8
:10115000FD00FD0BA928FC0BA928FB0BA92800000A
:10116000FF303F05F000FF304005F1004108F2007C
:101170004208F3000030F205F3058A11CD228A15EA
:101180007008DA007108DB007208DC007308DD000B
:101190007130F4003D30F5005230F6007F30F7003A
:1011A0008A1199208A157008DA007108DB0072082C
:1011B000DC007308DD002930F4005C30F5000F30EE
:1011C000F6007C30F7008A1162238A157008DA0075
:1011D0007108DB007208DC007308DD001C30831628
:1011E000A000FF30A100FF30A200A301A401023043
:1011F000A5000030A6008A11EF228A150D30FB00F1
:10120000AF30FC00B630FD00FD0B0429FC0B0429B7
:10121000FB0B042900000030F4000030F500003022
:10122000F6008230F7005A08F0005B08F1005C0815
:10123000F2005D08F3008A11FA208A1501300318C4
:101240000030F0007008031D40295A08F4005B08C4
:10125000F5005C08F6005D08F7000030F000003093
:10126000F1007A30F2008930F3008A11FA208A15F1
:10127000013003180030F0007008031D4029442994
:10128000DA01DB01DC01DD015A08F0005B08F10046
:0A1290005C08F2005D08F30008009E
:10129A008A11B4278A1583160317880189018312D4
:1012AA0087138813031346108316061483124610F5
:1012BA008316081288128A1158278A158A115C2700
:1012CA008A15C701C801C901CA018316071083120A
:1012DA000714831601170B168B17813099001815FE
:1012EA008A1175278A1583168C160C120B178B1701
:1012FA000630FB001330FC00AD30FD00FD0B8329E6
:10130A00FC0B8329FB0B83290000000002308312A7
:10131A00D800D901DA01DB018A112D278A15063096
:10132A00FB001330FC00AD30FD00FD0B9A29FC0BCD
:10133A009A29FB0B9A29000000000F308316A0009F
:10134A00A101A201A301A4010130A5000030A60059
:10135A008A11EF228A1509308316A0008C30A10069
:10136A00A201A301A4010230A5000030A6008A113F
:10137A00EF228A151A30FB005E30FC006E30FD0049
:10138A00FD0BC529FC0BC529FB0BC5290000002054
:10139A007008C7007108C8007208C9007308CA003B
:1013AA003108013A031D2D2AB1018230FC00DD30DB
:1013BA00FD00FD0BDE29FC0BDE29000000004C08B5
:1013CA00313A031D2D2A4D08333A031D2D2A4E08A2
:1013DA00443A031D2D2A4F08303A031D2D2A50087E
:1013EA00343A031D2D2A5108303A031D2D2A52087A
:1013FA00303A031D2D2A5308303A031D2D2A54086A
:10140A00503A031D2D2A0D30FB00AF30FC00B630D8
:10141A00FD00FD0B0E2AFC0B0E2AFB0B0E2A000008
:10142A004708D8004808D9004908DA004A08DB000A
:10143A008A1136268A151A30FB005E30FC006E309F
:10144A00FD00FD0B262AFC0B262AFB0B262A000090
:10145A0000303306031D332A01303206031D592A90
:10146A00B201B30100302A06031D3D2A00302906C5
:10147A00031D462A8A1132268A15A90A0319AA0ABD
:10148A004B2A8A1158278A15A901AA010830FB009C
:10149A009D30FC000530FD00FD0B512AFC0B512A42
:0C14AA00FB0B512A00000000CC295A2A3C
:020F4600003475
:080F48004E3461344E340034D4
:040F50000034003435
:080F540049344E3446340034E8
:040F5C0030340034F9
:020F600000345B
:040F62000034003423
:04400E00F22F000786
:00000001FF
