:040000008A154B2BE7
:10000600FB14FB1F0D28FF30F300F200F100F00097
:08001600FA0DF20CFF300800A6
:0E001E00F201F101F001F801F30100300800D9
:10002C007B15FB1F20280130F300F201F101F001D8
:08003C00FA0DF20CFF30080080
:08004400FA1FF213003008005E
:10004C007C185C28FC182D287C197B282628A101FB
:10005C007208031D4D287108F2007008F100780831
:10006C00F000F801A1157208031D4D287108F2006B
:10007C007008F100F001A11121167208031D4D2822
:10008C007108F200F101A115720803196F282108FB
:10009C00F302031D031C73280310F21B5C28F80DDC
:1000AC00F00DF10DF20DF30B532873287B1B701C14
:1000BC007728F81F7728F00A0319F10A0319F20AB6
:1000CC00031D7728F20CF10CF00CF30A03197B28B2
:1000DC0077280130FC000F207E280230FC0016200F
:1000EC007E280430FC0022207E280830FC000320EF
:0400FC0000000800F8
:1001000083160313440883129300831614188A2855
:0C0110000000852883121308F00008008E
:10011C00A1017208031DA3287108F2007008F100F8
:10012C00F001A1157208031DA3287108F200F1015A
:10013C00A111211672080319B1282108F302031D1D
:10014C00031CB5280310F21BB928F00DF10DF20DAC
:10015C00F30BA928B5280130FC000F20BC28023075
:0E016C00FC001620BC280430FC0022200800F5
:10017A008316031344088312930083161418C7289E
:0C018A000000C22883121308F0000800D7
:1001960083120313FA017308031D7A147708031DEB
:1001A600FA147A0803191729033A0319E2287A1868
:1001B600DF28F61F15291329F21F1329152972089E
:1001C6008039FA00F21376088039F6137A06031995
:1001D600F0287A08031913291529770873020319D9
:1001E600F728031C0B290F29760872020319FE282B
:1001F600031C0B290F297508710203190529031C15
:100206000B290F29740870020319172903180F29DF
:10021600FA08031915291329FA08031913291529A8
:10022600031408000310080003140315080008004F
:10023600831603133B08F2007208F100F20A3C0829
:10024600F000BC0A700884000008F0007108840001
:1002560070088000710884000008031933291F29DB
:060266003B08F000080057
:10026C0083120313FB017308031D770803198D29EF
:10027C0072087606FA007708F3077E30031C4A29C9
:10028C00F302031890294D29F302031C93297208D9
:10029C00F8007108FC007008FD00F817F617031041
:1002AC00F201F101F0011830A1007D1C67297408DE
:1002BC00F00775080318750FF10776080318760F09
:1002CC00F207F20CF10CF00CF80CFC0CFD0C03100A
:1002DC00A10B5B29F21B7729F80DF00DF10DF20D36
:1002EC00F3037B1B701C8929F81F8929F00A031959
:1002FC00F10A0319F20A031D8929F20CF10CF00C16
:10030C00F30A03199029FA1FF213003095290130D2
:10031C000F20952902300320952904301620000067
:02032C000800C7
:10032E0083120313071083163B08C400BD200D3043
:10033E00FC00FB30FD00FD0BA229FC0BA2290000E6
:10034E00000001308316C1000030C2008030F00082
:10035E00803042067002031DB62941083C02031C80
:10036E00E329C401802070088316C3000D30FC0001
:10037E00FB30FD00FD0BC129FC0BC1290000000064
:10038E004308BD040030BE04BF04C00480304206E2
:10039E00F00080307002031DD6293C08410203187C
:1003AE00DF293F08C0003E08BF003D08BE00BD016A
:1003BE00C10A0319C20AAD298312071483163D0818
:1003CE00F0003E08F1003F08F2004008F30008007C
:1003DE0083120313F8010830FC00700DF80D740839
:1003EE00F8020318FC29F8070310F00DFC0BF42992
:0203FE000800F5
:10040000831603139818062A0000002A3B0883125B
:040410009900080047
:100414008312031372087606A100F801F901730828
:100424007702031C2D2A7708FD007308F7007D0866
:10043400F3007608FD007208F6007D08F2007508E6
:10044400FD007108F5007D08F1007408FD007008D6
:10045400F4007D08F00077080319A62A7208FA0050
:10046400F217F61777087302F7000319602A0830A9
:100474007702031C562AF7007408F9007508F40083
:100484007608F500F60108307702031C562AF700B7
:100494007408F9007508F400F50108307702031CAC
:1004A400562A7A08F200A62A77080319602A03104C
:1004B400F60CF50CF40CF90CF70B592AA11F6D2A54
:1004C400F909F409F509F609F90A0319F40A0319F3
:1004D400F50A0319F60A7908F80774080318740F63
:1004E400F00775080318750FF10776080318760FDF
:1004F400F207A11B862A031C962AF20CF10CF00CBD
:10050400F80CF30F962AA22A03189A2AF809F0097C
:10051400F109F209F80A0319F00A0319F10A031997
:10052400F20A8030FA069E2A0130FC002620A82A0E
:100534000230FC002620A82A0430FC008E20A82AC1
:100544000830FC000320A82A0030FC00000008004A
:10055400FB09FA09F909F809F80A0319F90A031950
:08056400FA0A0319FB0A080062
:10056C007408F8027508031C750FF9027608031C51
:10057C00760FFA027708031C770FFB02F30D073096
:10058C00FC00730DF80DF90DFA0DFB0D7408731CBE
:10059C00DD2AF8027508031C750FF9027608031C96
:1005AC00760FFA027708031C770FFB02EA2AF8078A
:1005BC0075080318750FF90776080318760FFA07F4
:1005CC0077080318770FFB07F30DFC0BC72A720D86
:1005DC00F80DF90DFA0DFB0D7408731C032BF802C2
:1005EC007508031C750FF9027608031C760FFA02C6
:1005FC007708031C770FFB02102BF80775080318FC
:10060C00750FF90776080318760FFA0777080318A1
:10061C00770FFB07F20D0730FC00720DF80DF90D8A
:10062C00FA0DFB0D7408721C292BF8027508031CBB
:10063C00750FF9027608031C760FFA027708031C73
:10064C00770FFB02362BF80775080318750FF9079F
:10065C0076080318760FFA0777080318770FFB074D
:10066C00F20DFC0B132B710DF80DF90DFA0DFB0DA2
:10067C007408721C4F2BF8027508031C750FF902D5
:10068C007608031C760FFA027708031C770FFB021F
:10069C005C2BF80775080318750FF9077608031813
:1006AC00760FFA0777080318770FFB07F10D073061
:1006BC00FC00710DF80DF90DFA0DFB0D7408711C91
:1006CC00752BF8027508031C750FF9027608031CCC
:1006DC00760FFA027708031C770FFB02822BF807C0
:1006EC0075080318750FF90776080318760FFA07C3
:1006FC0077080318770FFB07F10DFC0B5F2B700DC0
:10070C00F80DF90DFA0DFB0D7408711C9B2BF802FA
:10071C007508031C750FF9027608031C760FFA0294
:10072C007708031C770FFB02A82BF8077508031832
:10073C00750FF90776080318760FFA077708031870
:10074C00770FFB07F00D0730FC00700DF80DF90D5D
:10075C00FA0DFB0D7408701CC12BF8027508031CF4
:10076C00750FF9027608031C760FFA027708031C42
:10077C00770FFB02CE2BF80775080318750FF907D6
:10078C0076080318760FFA0777080318770FFB071C
:10079C00F00DFC0BAB2B7018E12B7408F8077508E7
:1007AC000318750FF90776080318760FFA07770800
:0807BC000318770FFB0708008A
:1007C40083160313B00183126F0884000008831694
:1007D400AF002F08003A0319FC2B2F08BB0000229E
:1007E4008316B00A300883126F078400000883164A
:0607F400AF00EB2B080032
:1007FA0083160313B901BA012F08B5003008B600F1
:10080A003108B7003208B8003808FF3A031D172C20
:10081A003708FF3A031D172C3608FF3A031D172C19
:10082A003508FF3A031D212C3308BB002230BC00D7
:10083A001B210330F000042E01308312EF008316CF
:10084A00B71F342C80303706F0007008B7008312C7
:10085A00EF0A8316330884002D308000B30A003073
:10086A00F0003806031D432C70083706031D432C7D
:10087A0070083606031D432C3508003A031D4C2C1C
:10088A003308BB002630BC001B21F001042E3808B7
:10089A00FF3A031D5A2C3708003A031D5A2C360812
:1008AA00003A031D5A2C3508003A031D652C3308FB
:1008BA00BB002830BC001B2183126F08F000042EF5
:1008CA000030F4000030F5000030F6007F30F70009
:1008DA0083163508F0003608F1003708F2003808A8
:1008EA00F300CB20013003180030F0007008031920
:1008FA009B2C83163508F0003608F1003708F20001
:10090A003808F3000030F4000030F5002030F6001B
:10091A008230F700362170088316B5007108B600D8
:10092A007208B7007308B800BA03652C8316003042
:10093A00F4000030F5002030F6008230F700350868
:10094A00F0003608F1003708F2003808F300CB202F
:10095A000130031C0030F00070080319D12C8316F3
:10096A003508F0003608F1003708F2003808F300BD
:10097A00CD30F400CC30F5004C30F6007B30F70077
:10098A00362170088316B5007108B6007208B700E0
:10099A007308B800BA0A9B2C8316FF303505F80095
:1009AA00FF303605F9007F303705FA000030380588
:1009BA00FB007808F4007908F5007A08F6007B084D
:1009CA00F700F40DF50DF60DF70D7410003035052E
:1009DA00F00000303605F10000303705F200FF3034
:1009EA003805F3007008B5007108B6007208B70040
:1009FA007308B80074083504F00075083604F1006D
:100A0A0076083704F20077083804F3007008B50056
:100A1A007108B6007208B7007308B8007F30380250
:100A2A00F0007008B4000130B8007008F40035080E
:100A3A00F0003608F1003708F2003808F3007408AD
:100A4A0003192E2DF00DF10DF20DF30D7010FF3E6E
:100A5A00252D7008B5007108B6007208B700730832
:100A6A00B8003808303EF00033088400700880006F
:100A7A00B30A80303A06F0008030013A7002031C53
:100A8A004F2D8030063AF00080303A067002031C7F
:100A9A004F2D562D330884002E308000B30A0130C2
:100AAA00B9000630B4003408003A0319B42DB8016D
:100ABA003508F0003608F1003708F2003808F3006C
:100ACA00F00DF10DF20DF30D7010F00DF10DF20DA8
:100ADA00F30D70103508F00736080318360FF107C2
:100AEA0037080318370FF20738080318380FF307C7
:100AFA007008B5007108B6007208B7007308B8002C
:100B0A003508F0003608F1003708F2003808F3001B
:100B1A00F00DF10DF20DF30D70107008B5007108AB
:100B2A00B6007208B7007308B8003808303EF00003
:100B3A003308840070088000B30A3908003A031D9C
:100B4A00B22DBA033A08003A031DB22D33088400C5
:100B5A002E308000B30A0130B900B403582DFF309B
:100B6A00330784000008303A031DBD2DB303B42DAA
:100B7A00FF303307840000082E3A031DC52DB30346
:100B8A003A08003A0319002E3308840065308000C1
:100B9A00B30A80303A06F0008030003A7002031837
:100BAA00DE2D330884002D308000B30A3A08003C59
:100BBA00BA003A08B4003A08093C0318F12D0A3081
:100BCA00F4003408F000EF213030F00783163308C0
:100BDA00840070088000B30A0A30F4003408F00078
:100BEA00EF217808F0003030F007831633088400CC
:100BFA0070088000B30A330884008001F0010800FD
:0C0C0A00831203138030F6060A22080053
:100C1600831203137008F8007108F0007208F100DF
:100C26007308F200F301FB01FC019E30F300FA01A8
:100C3600F21F292EF809F009F109F209F80A031939
:100C4600F00A0319F10A0319F20AFA170230FC0036
:040C5600262008004C
:100C5A00831203137408003A031D482E7508003ADC
:100C6A00031D482E7608003A031D482E7708003ADD
:100C7A00031D482EFF30F000FF30F100FF30F20074
:100C8A007F30F300E12E83120313FC01F71BFC0AE9
:100C9A00FD01FB01FA01F901F801730872047104FC
:100CAA0070040319DC2E73087706A000A01BFD0947
:100CBA00F71F6A2EF409F509F609F709F40A031968
:100CCA00F50A0319F60A0319F70AF31F772EF00932
:100CDA00F109F209F309F00A0319F10A0319F20AF0
:100CEA000319F30A73087704A000A01B982EB622F2
:100CFA00FC1BB52EFD1FDC2EF009F109F209F309E0
:100D0A00F00A0319F10A0319F20A0319F30AF80996
:100D1A00F909FA09FB09F80A0319F90A0319FA0A7F
:100D2A000319FB0ADC2EF71FAF2EF31BA92E73083B
:100D3A00FB007208FA007108F9007008F800F30164
:100D4A00F201F101F0017F2EF301F201F101F0014C
:100D5A00F00A0034F309F209F109F009FC177C2EB4
:100D6A00F80A0319F90A0319FA0A0319FB0A74089B
:100D7A007802031D7F2E75087902031D7F2E7608DF
:100D8A007A02031D7F2E77087B02031D7F2EFB014B
:100D9A00FA01F901F801F00A0319F10A0319F20A32
:100DAA000319F30AF31F7F2EA0012016FF34A001B6
:0A0DBA007C1CE02EAA22003E080077
:100DC4000C3083160313BB000230BC0097210800CB
:100DD4000B3083160313BB000230BC0097210800BC
:0E0DE4008312031352088A005108820008008F
:100DF2008030831603132F04F0007008AF008312B3
:100E0200071070088316C400BD200D30FC00FB30B3
:100E1200FD00FD0B0A2FFC0B0A2F000000008316B9
:100E2200B601B70180303706F00080303506700217
:100E3200031D1D2F340836020318652F01303402BA
:100E4200F0000030031C013E3502F100360870024A
:100E5200F3003708031C013E7102F4000330F20074
:100E62007308F0007408F100720803193D2FF00DA9
:100E7200F10D7010FF3E362F7008F4003008F000BC
:100E82003108F1003208F2003308F3007408031944
:100E9200532FF30CF20CF10CF00CF313731BF3173A
:100EA200FF3E482F7008C400BD200D30FC00FB300F
:100EB200FD00FD0B5A2FFC0B5A2F00000000831679
:0E0EC200B60A0319B70A132F8312071408008B
:100ED0008312031363088316AF008312640883161A
:100EE000B000831265088316B1008312660883166A
:100EF000B200A030B300FD23A03083120313EF0033
:040F0000E2230800E0
:100F040083160313871283126308043A031D8D2F7B
:100F1400831687158F2F8316871107168312940162
:100F24006308940465089404640883169404831283
:100F340065080319A42F6608003A031DA32F83161E
:100F44001417AA2F831266080319AA2F83161417DD
:060F540083129416080050
:100F5A008316031398169030831298008316871706
:100F6A00071383128C1EBC2F1A08F000B62F080034
:100F7A00F2268A110A128000840AD10A0319D20AB7
:080F8A00F003031DBD2F080058
:1010000083120313E701E801E901EA01E501E601C2
:101010000A308316AF001030B000B101B201B30145
:101020000230B4000030B5008A11F9268A15E301B8
:10103000E40180306406F00080307002031D222835
:101040000A306302031874288A11E2268A158A116D
:10105000EA268A15701A3F288312E50A0319E60A60
:101060008030F000803066067002031D3928650864
:10107000643C03183E28E501E6013F282728163086
:101080008316BB000330BC008A1197218A157008B3
:101090008312D3007108D4007208D5007308D600FB
:1010A0008230FC00DD30FD00FD0B5428FC0B542881
:1010B000000000005308E70754080318540FE8071E
:1010C00055080318550FE90756080318560FEA0785
:1010D000A330FC005530FD00FD0B6C28FC0B6C2888
:1010E000E30A0319E40A19288A11E2268A150A304C
:1010F000F400F501F601F70183126708F0006808B3
:10110000F1006908F2006A08F3008A112D268A1599
:10111000FF30F005FF30F105FF30F2050030F30538
:101120008A110B268A157008EB007108EC00720812
:10113000ED007308EE00C530F400C630F5001B303A
:10114000F6007030F7008A1136218A157008EB001E
:101150007108EC007208ED007308EE009030F400A6
:101160001830F5001030F6008730F7008A11052698
:101170008A157008EB007108EC007208ED00730826
:10118000EE007008F4007108F5007208F6007308AC
:10119000F7000030F0000030F1002030F200843021
:1011A000F3008A11CB208A15013003180030F000BB
:1011B0007008031DF228F401F501F601F7016B0830
:1011C000F0006C08F1006D08F2006E08F3008A115F
:1011D000CB208A15013003180030F0007008031D81
:1011E000F228F628EB01EC01ED01EE016B08F000AE
:0E11F0006C08F1006D08F2006E08F3000800B4
:1011FE0083120313E701E801E901EA01E501E601C3
:10120E000A308316AF001030B000B101B201B30145
:10121E000230B4000030B5008A11F9268A15E301B8
:10122E00E40180306406F00080307002031D212935
:10123E000A306302031873298A11E2268A158A116D
:10124E00EA268A15701A3E298312E50A0319E60A60
:10125E008030F000803066067002031D3829650864
:10126E00643C03183D29E501E6013E292629173085
:10127E008316BB000330BC008A1197218A157008B3
:10128E008312D3007108D4007208D5007308D600FB
:10129E008230FC00DD30FD00FD0B5329FC0B532981
:1012AE00000000005308E70754080318540FE8071E
:1012BE0055080318550FE90756080318560FEA0785
:1012CE00A330FC005530FD00FD0B6B29FC0B6B2988
:1012DE00E30A0319E40A18298A11E2268A150A304C
:1012EE00F400F501F601F70183126708F0006808B3
:1012FE00F1006908F2006A08F3008A112D268A159A
:10130E00FF30F005FF30F105FF30F2050030F30538
:10131E008A110B268A157008EB007108EC00720812
:10132E00ED007308EE003A30F4006330F500313012
:10133E00F6007330F7008A1136218A157008EB001B
:10134E007108EC007208ED007308EE006630F400D0
:10135E002630F5002430F6008A30F7008A11052673
:10136E008A157008EB007108EC007208ED00730826
:10137E00EE007008F4007108F5007208F6007308AC
:10138E00F7000030F0000030F1004830F2008730F6
:10139E00F3008A11CB208A15013003180030F000BB
:1013AE007008031DF129F401F501F601F7016B0830
:1013BE00F0006C08F1006D08F2006E08F3008A115F
:1013CE00CB208A15013003180030F0007008031D81
:1013DE00F129F529EB01EC01ED01EE016B08F000AE
:0E13EE006C08F1006D08F2006E08F3000800B4
:1013FC0083120313E501E601E701E8011C308316B3
:10140C00AF006430B000B101B201B3010230B400DE
:10141C000030B5008A11F9268A150D30FB00AF306B
:10142C00FC00B630FD00FD0B192AFC0B192AFB0B36
:10143C00192A000009308316AF008030B000B101CA
:10144C00B201B3010230B4000030B5008A11F926A4
:10145C008A150D30FB00AF30FC00B630FD00FD0BE3
:10146C00352AFC0B352AFB0B352A00000A30831673
:10147C00AF000430B000B101B201B3010230B400CE
:10148C000030B5008A11F9268A150D30FB00AF30FB
:10149C00FC00B630FD00FD0B512AFC0B512AFB0B56
:1014AC00512A00008A11E2268A158A11EA268A1529
:1014BC007019732A8312E30A0319E40A8030F000CE
:1014CC00803064067002031D6D2A6308C83C031843
:1014DC00722AE301E401732A5B2A8A11E2268A1537
:1014EC008A11EA268A1570198E2A8312E30A0319C7
:1014FC00E40A8030F000803064067002031D882AF4
:10150C006308C83C03188D2AE301E4018E2A762A6D
:10151C008A11E2268A150430BB000330BC008A1104
:10152C0097218A1570088312D3007108D4007208B1
:10153C00D5007308D6000D30FB00AF30FC00B63080
:10154C00FD00FD0BA72AFC0BA72AFB0BA72A00000A
:10155C00FF305305F000FF305405F1005508F20040
:10156C005608F3000030F205F3058A110B268A1594
:10157C007008E5007108E6007208E7007308E800DF
:10158C007130F4003D30F5005230F6007F30F7003A
:10159C008A1136218A157008E5007108E600720878
:1015AC00E7007308E8002930F4005C30F5000F30D8
:1015BC00F6007C30F7008A110A228A157008E500C3
:1015CC007108E6007208E7007308E8001C30831607
:1015DC00AF00FF30B000FF30B100B201B3010230F8
:1015EC00B4000030B5008A11F9268A150D30FB00C5
:1015FC00AF30FC00B630FD00FD0B022BFC0B022BB8
:10160C00FB0B022B00000030F4000030F500003022
:10161C00F6008230F7006508F0006608F1006708F4
:10162C00F2006808F3008A11CB208A1501300318E8
:10163C000030F0007008031D3E2B6508F4006608AE
:10164C00F5006708F6006808F7000030F00000307D
:10165C00F1007A30F2008930F3008A11CB208A1520
:10166C00013003180030F0007008031D3E2B422B94
:10167C00E501E601E701E8016508F0006608F10004
:0A168C006708F2006808F300080088
:10169600322483120313D701D801D901DA01DB0101
:1016A600DC01DD01DE01DF01E001E101E20183167B
:1016B60007108312071481308316990018158A11B2
:1016C600AD278A150630FB001330FC00AD30FD0057
:1016D600FD0B6B2BFC0B6B2BFB0B6B2B000000002D
:1016E6000230E300E401E501E6018A1182278A154A
:1016F6000630FB001330FC00AD30FD00FD0B812BE6
:10170600FC0B812BFB0B812B000000000F30831696
:10171600AF00B001B101B201B3010130B400003035
:10172600B5008A11F9268A1509308316AF008C3068
:10173600B000B101B201B3010230B4000030B5000F
:101746008A11F9268A150630FB001330FC00AD30ED
:10175600FD00FD0BAC2BFC0BAC2BFB0BAC2B0000EC
:10176600000083123930EF008A11E2238A15FF2028
:101776007008D7007108D8007208D9007308DA001B
:101786007008E3007108E4007208E5007308E600DB
:101796008A1168278A150630FB001330FC00AD302D
:1017A600FD00FD0BD42BFC0BD42BFB0BD42B000024
:1017B600000044308312EF008A11E2238A150020CC
:1017C6007008DB007108DC007208DD007308DE00BB
:1017D6007008E3007108E4007208E5007308E6008B
:1017E6008A1168278A150D30FB00AF30FC00B63031
:1017F600FD00FD0BFC2BFC0BFC2BFB0BFC2B00005C
:101806002C308312EF008A11E2238A15FE2170081C
:10181600DF007108E0007208E1007308E20070085A
:10182600E3007108E4007208E5007308E6008A1117
:1018360068278A150D30FB00AF30FC00B630FD007E
:10184600FD0B232CFC0B232CFB0B232C0000B42BB1
:021856002B2C39
:10186400223084002F3083120313F000C930D100DA
:0C1874000730D2008A11BD278A15080039
:080F92004E3461344E3400348A
:040F9A0030340034BB
:080F9E0049344E34463400349E
:100FA6000A3443346F346E34673420347334753402
:0A0FB600613474343A3420340034FE
:100FC0000A344434693465346E3420346134703406
:060FD0003A342034003425
:100FD6000A3444346F346E346734203464346934EC
:0A0FE60065346E343A3420340034D0
:04400E00F22F000786
:00000001FF
