:040000008A154929EB
:10000800FF00030E8301D4000A08D5008A01700896
:10001800A2007108A1000408A3008C1E4628DB2753
:100028007008003A031D19281328DB277008013AC5
:10003800031D4628E2277008C8007008533A031DBC
:100048002C28B0013008493E840048088000B00AD6
:100058004808533A03193A284808453A03193A28F0
:100068003008493E840048088000B00A4808453AEC
:10007800031D46283008493E840048088000B00126
:100088000130B1002208F0002108F10023088400A3
:0E00980055088A00540E8300FF0E7F0E0900EB
:1000A600831603132F0883129300831614185D28F2
:0C00B6000000582883121308F000080016
:1000C200831603132F0883129300831614186B28C8
:0C00D2000000662883121308F0000800EC
:0E00DE00F201F101F001F801F3010030080019
:1000EC007B15FB1F80280130F300F201F101F001B8
:0800FC00FA0DF20CFF300800C0
:08010400FA1FF213003008009D
:10010C00FB14FB1F9028FF30F300F200F100F0000D
:08011C00FA0DF20CFF3008009F
:1001240083120313F8010830FC00700DF80D7408F5
:10013400F80203189F28F8070310F00DFC0B97280A
:020144000800B1
:1001460083120313FA017308031D7A147708031D3B
:10015600FA147A080319EF28033A0319BA287A1809
:10016600B728F61FED28EB28F21FEB28ED287208BA
:100176008039FA00F21376088039F6137A060319E5
:10018600C8287A080319EB28ED28770873020319A3
:10019600CF28031CE328E728760872020319D6281D
:1001A600031CE328E728750871020319DD28031CE0
:1001B600E328E728740870020319EF280318E728D4
:1001C600FA080319ED28EB28FA080319EB28ED289D
:1001D60003140800031008000314031508000800A0
:1001E600831603132608F2007208F100F20A2708A4
:1001F600F000A70A700884000008F0007108840067
:100206007008800071088400000803190B29F7287C
:060216002608F0000800BC
:10021C0083120313FB017308031D77080319652967
:10022C0072087606FA007708F3077E30031C222941
:10023C00F302031868292529F302031C6B297208A1
:10024C00F8007108FC007008FD00F817F617031091
:10025C00F201F101F0011830A0007D1C3F29740857
:10026C00F00775080318750FF10776080318760F59
:10027C00F207F20CF10CF00CF80CFC0CFD0C03105A
:10028C00A00B3329F21B4F29F80DF00DF10DF20DD7
:10029C00F3037B1B701C6129F81F6129F00A0319F9
:1002AC00F10A0319F20A031D6129F20CF10CF00C8E
:1002BC00F30A03196829FA1FF21300306D29013073
:1002CC006F206D29023086206D29043076200000C5
:0202DC00080018
:1002DE00831603139818752900006F2926088312B8
:0402EE00990008006B
:1002F200A0017208031D8E297108F2007008F10036
:10030200F001A0157208031D8E297108F200F10197
:10031200A0112016720803199C292008F302031D5C
:10032200031CA0290310F21BA429F00DF10DF20DFC
:10033200F30B9429A0290130FC006F20A729023079
:0E034200FC007620A7290430FC008220080071
:1003500083120313071083162608AF0053200D30B5
:10036000FC00FB30FD00FD0BB329FC0BB3290000A2
:10037000000001308316AC000030AD008030F0008A
:1003800080302D067002031DC7292C082702031C8C
:10039000F429AF01612070088316AE000D30FC0017
:1003A000FB30FD00FD0BD229FC0BD2290000000020
:1003B0002E08A8040030A904AA04AB0480302D063E
:1003C000F00080307002031DE72927082C02031873
:1003D000F0292A08AB002908AA002808A900A801CA
:1003E000AC0A0319AD0ABE29831207148316280824
:1003F000F0002908F1002A08F2002B08F300080099
:100400007C18362AFC18072A7C19552A002AA001D4
:100410007208031D272A7108F2007008F10078089D
:10042000F000F801A0157208031D272A7108F200D8
:100430007008F100F001A01120167208031D272A90
:100440007108F200F101A01572080319492A200869
:10045000F302031D031C4D2A0310F21B362AF80D6C
:10046000F00DF10DF20DF30B2D2A4D2A7B1B701CA4
:10047000512AF81F512AF00A0319F10A0319F20A46
:10048000031D512AF20CF10CF00CF30A0319552A42
:10049000512A0130FC006F20582A0230FC007620DF
:1004A000582A0430FC008220582A0830FC0086209C
:0404B0000000080040
:0E04B40000308316031398180130F000080082
:0E04C2008312031333088A00320882000800F8
:1004D0000C3083160313A6000230A700A8210800E1
:1004E0008312031308160830FB009D30FC00053012
:1004F000FD00FD0B792AFC0B792AFB0B792A000001
:100500000000EA01EB018030F00080306B067002E1
:10051000031D8C2A6A080A3C031CA82A5A22700868
:10052000003A031D942A8E2A83126A086907840000
:1005300000088316A6006F21C330FC00CD30FD00FB
:10054000FD0BA02AFC0BA02AEA0A0319EB0A832A56
:100550000630FB001330FC00AD30FD00FD0BAE2A71
:10056000FC0BAE2AFB0BAE2A0000000008120800AC
:100570000B3083160313A6000230A700A821080041
:100580008312031373087706031DD32A72087606B5
:10059000031DD32A71087506031DD32A700874063B
:0C05A000031903150800031108000800EF
:1005AC008312031372087606A000F801F901730890
:1005BC007702031CF92A7708FD007308F7007D0801
:1005CC00F3007608FD007208F6007D08F20075084D
:1005DC00FD007108F5007D08F1007408FD0070083D
:1005EC00F4007D08F00077080319722B7208FA00EA
:1005FC00F217F61777087302F70003192C2B083043
:10060C007702031C222BF7007408F9007508F4001C
:10061C007608F500F60108307702031C222BF70050
:10062C007408F9007508F400F50108307702031C12
:10063C00222B7A08F200722B770803192C2B03104B
:10064C00F60CF50CF40CF90CF70B252BA01F392B21
:10065C00F909F409F509F609F90A0319F40A031959
:10066C00F50A0319F60A7908F80774080318740FC9
:10067C00F00775080318750FF10776080318760F45
:10068C00F207A01B522B031C622BF20CF10CF00C8A
:10069C00F80CF30F622B6E2B0318662BF809F0097C
:1006AC00F109F209F80A0319F00A0319F10A0319FE
:1006BC00F20A8030FA066A2B0130FC000022742BFF
:1006CC000230FC000022742B0430FC007921742BC6
:1006DC000830FC008620742B0030FC000000080061
:1006EC00831203137008F8007108F0007208F1000F
:1006FC007308F200F301FB01FC019E30F300FA01D8
:10070C00F21F942BF809F009F109F209F80A031900
:10071C00F00A0319F10A0319F20AFA170230FC0065
:04072C00002208009F
:1007300083160313A401A501831269088316A00080
:1007400083126A088316A10083126B088316A20025
:1007500083126C088316A3002308FF3A031DBA2BEB
:100760002208FF3A031DBA2B2108FF3A031DBA2BBA
:100770002008FF3A031DC62B83126D088316A600BE
:100780002430A700F3200330F000C22D0130831283
:10079000EE008316A21FD82B80302206F0007008CE
:1007A000A2008312EE0A6D0884002D308000ED0A4D
:1007B0000030F00083162306031DE82B7008220684
:1007C000031DE82B70082106031DE82B2008003AC2
:1007D000031DF32B83126D088316A6002A30A70091
:1007E000F320F001C22D2308FF3A031D012C22083B
:1007F000003A031D012C2108003A031D012C20089A
:10080000003A031D0E2C83126D088316A6002C30AF
:10081000A700F32083126E08F000C22D0030F40010
:100820000030F5000030F6007F30F7008316200816
:10083000F0002108F1002208F2002308F300A320B1
:10084000013003180030F00070080319442C83169F
:100850002008F0002108F1002208F2002308F3002C
:100860000030F4000030F5002030F6008230F70050
:100870000E2170088316A0007108A1007208A20062
:100880007308A300A5030E2C83160030F40000307B
:10089000F5002030F6008230F7002008F000210833
:1008A000F1002208F2002308F300A3200130031C0A
:1008B0000030F000700803197A2C83162008F0002D
:1008C0002108F1002208F2002308F300CD30F400E3
:1008D000CC30F5004C30F6007B30F7000E2170086C
:1008E0008316A0007108A1007208A2007308A3007B
:1008F000A50A442C8316FF302005F800FF3021059F
:10090000F9007F302205FA0000302305FB0078084B
:10091000F4007908F5007A08F6007B08F700F40D7A
:10092000F50DF60DF70D741000302005F0000030C5
:100930002105F10000302205F200FF302305F3000D
:100940007008A0007108A1007208A2007308A3003B
:1009500074082004F00075082104F10076082204D0
:10096000F20077082304F3007008A0007108A100CA
:100970007208A2007308A3007F302302F000700801
:100980008312EF0001308316A3007008F4002008E2
:10099000F0002108F1002208F2002308F300740897
:1009A0000319D92CF00DF10DF20DF30D7010FF3E6F
:1009B000D02C7008A0007108A1007208A200730872
:1009C000A3002308303EF00083126D0884007008F5
:1009D0008000ED0A803083162506F0008030013A51
:1009E0007002031CFC2C8030063AF0008030250693
:1009F0007002031CFC2C052D83126D0884002E3020
:100A00008000ED0A01308316A40006308312EF0047
:100A10006F08003A03196A2D8316A3012008F0001D
:100A20002108F1002208F2002308F300F00DF10D77
:100A3000F20DF30D7010F00DF10DF20DF30D7010BD
:100A40002008F00721080318210FF10722080318D6
:100A5000220FF20723080318230FF3077008A000E2
:100A60007108A1007208A2007308A3002008F0001A
:100A70002108F1002208F2002308F300F00DF10D27
:100A8000F20DF30D70107008A0007108A10072083B
:100A9000A2007308A3002308303EF00083126D0803
:100AA000840070088000ED0A83162408003A031DB4
:100AB000672DA5032508003A031D672D83126D08D5
:100AC00084002E308000ED0A01308316A4008312CA
:100AD000EF03082DFF306D0784000008303A031D36
:100AE000732DED036A2DFF306D07840000082E3A48
:100AF000031D7B2DED0383162508003A0319BD2D38
:100B000083126D08840065308000ED0A8030831602
:100B10002506F0008030003A70020318992D8312E8
:100B20006D0884002D308000ED0A83162508003CF6
:100B3000A50025088312EF0083162508093C031839
:100B4000AE2D0A30F40083126F08F000922030308E
:100B5000F0076D08840070088000ED0A83120A30E7
:100B6000F4006F08F00092207808F0003030F007B1
:100B70006D08840070088000ED0A83126D088400FF
:060B80008001F0010800F5
:100B8600043083120313FC003A30FD00FD0BC92D1F
:080B9600FC0BC92D0000080052
:100B9E008030831203136904F0007008E900071017
:100BAE0070088316AF0053200D30FC00FB30FD00A3
:100BBE00FD0BDF2DFC0BDF2D000000008316A001C6
:100BCE00A10180302106F000803083126F06700282
:100BDE00031DF42D6E08831620020318402E0130DB
:100BEE0083126E02F0000030031C013E6F02F10012
:100BFE00831620087002F3002108031C013E7102C7
:100C0E00F4000330F2007308F0007408F10072086B
:100C1E000319162EF00DF10D7010FF3E0F2E7008F9
:100C2E00F40083126A08F0006B08F1006C08F20001
:100C3E006D08F300740803192D2EF30CF20CF10C51
:100C4E00F00CF313731BF317FF3E222E700883165E
:100C5E00AF0053200D30FC00FB30FD00FD0B352E98
:100C6E00FC0B352E000000008316A00A0319A10A02
:080C7E00E82D831207140800A1
:100C8600831203135608E9005708EA005808EB00D8
:100C96005908EC005A30ED00982383120313F4012F
:100CA600F501F601F7015608F0005708F10058085B
:100CB600F2005908F300C0220130031D0030F00095
:100CC60070080319702E3030BE003030BF0030304F
:100CD600C0005030C1004530C200F401F501F601F4
:100CE600F7015608F0005708F1005808F2005908B5
:100CF600F300C022013003190030F0007008031918
:100D0600A62E0030F4000030F5002030F6008230C8
:100D1600F7005608F0005708F1005808F200590885
:100D2600F300A320013003180030F0007008031907
:100D3600A62E3030BE003030BF005A08C0005030FA
:100D4600C1004530C2000030F4000030F5004830E4
:100D5600F6008530F7005608F0005708F1005808ED
:100D6600F2005908F300A320013003180030F00008
:100D760070080319E02E5608F4005708F5005808C5
:100D8600F6005908F7000030F0000030F10020307E
:100D9600F2008230F300A320013003180030F00087
:100DA60070080319E02E3030BE005A08BF005B08F9
:100DB600C0005030C1004530C2000030F4000030A1
:100DC600F5007A30F6008830F7005608F00057082C
:100DD600F1005808F2005908F300A3200130031867
:100DE6000030F000700803191A2F5608F40057084F
:100DF600F5005808F6005908F7000030F0000030FA
:100E0600F1004830F2008530F300A32001300318CA
:100E16000030F000700803191A2F5A08BE005B084C
:100E2600BF005C08C0005030C1004530C20003302E
:100E3600FB008A30FC005530FD00FD0B202FFC0B1B
:100E4600202FFB0B202F000000003830E900702215
:100E56000830FB009D30FC000530FD00FD0B312FF6
:0E0E6600FC0B312FFB0B312F000000000800A9
:100E740083120313DB015708F1000130F0007108FD
:100E84000319482FF00D7010FF3E422F7008DA004E
:100E94005608840070080005F10071080130031D34
:100EA4000030F0005908F0060319702F5808003C70
:100EB4000318602FC325C325D803582F5608840070
:100EC4005A080005F10071080130031D0030F000DC
:100ED4005908F0060319702FFF30DB005B08F0009F
:020EE400080004
:100EE60083160313871283125608043A031D7E2FB6
:100EF60083168715802F8316871107168312940190
:100F060056089404580894045708831694048312C8
:100F160058080319952F5908003A031D942F831674
:100F260014179B2F8312590803199B2F8316141726
:060F36008312941608006E
:080F3C0083120313881608005C
:100F4400533083120313B8003030B9003330BA0081
:100F54004430BB003030BC003430BD003030BE0003
:100F64003030BF003030C0005030C1004530C200C6
:020F7400080073
:100F760083160313981690308312980083168717EA
:100F8600071383128C1ECA2F1A08F000C42F0800FC
:080F9600831203138812080006
:100F9E0061228A110A128000840AB20A0319B30A66
:080FAE00F003031DCF2F080022
:0E0FB6000030831203138C1A0130F000080083
:100FC400831203131A08F100981CEA2F181218163A
:060FD4007108F0000800A6
:1010000083120313D801D901DA01DB011C30E90096
:101010006430EA00EB01EC01ED010230EE0000303B
:10102000EF008A11CF258A150D30FB00AF30FC0090
:10103000B630FD00FD0B1A28FC0B1A28FB0B1A28F2
:1010400000000930E9008030EA00EB01EC01ED011D
:101050000230EE000030EF008A11CF258A150D30E6
:10106000FB00AF30FC00B630FD00FD0B3528FC0B5B
:101070003528FB0B352800000A30E9000430EA006F
:10108000EB01EC01ED010230EE000030EF008A11BF
:10109000CF258A150D30FB00AF30FC00B630FD00C7
:1010A000FD0B5028FC0B5028FB0B502800008A1128
:1010B00068228A158A11B8228A157019722883123B
:1010C000D60A0319D70A8030F00080305706700224
:1010D000031D6C285608C83C03187128D601D70197
:1010E00072285A288A1168228A158A11B8228A150C
:1010F00070198D288312D60A0319D70A8030F000A0
:10110000803057067002031D87285608C83C031814
:101110008C28D601D7018D2875288A1168228A1556
:101120000430A6000330A7008A11A8218A15700890
:101130008312B4007108B5007208B6007308B700D6
:101140000D30FB00AF30FC00B630FD00FD0BA628D3
:10115000FC0BA628FB0BA6280000FF303405F0008E
:10116000FF303505F1003608F2003708F300003093
:10117000F205F3058A1176238A157008D8007108E4
:10118000D9007208DA007308DB007130F4003D30DA
:10119000F5005230F6007F30F7008A110E218A15D3
:1011A0007008D8007108D9007208DA007308DB00F3
:1011B0002930F4005C30F5000F30F6007C30F70089
:1011C0008A11D6228A157008D8007108D9007208D1
:1011D000DA007308DB001C30E900FF30EA00FF3062
:1011E000EB00EC01ED010230EE000030EF008A115F
:1011F000CF258A150D30FB00AF30FC00B630FD0066
:10120000FD0B0029FC0B0029FB0B0029000000301E
:10121000F4000030F5000030F6008230F700580886
:10122000F0005908F1005A08F2005B08F3008A1137
:10123000A3208A15013003180030F0007008031D48
:101240003C295808F4005908F5005A08F6005B08D4
:10125000F7000030F0000030F1007A30F200893001
:10126000F3008A11A3208A15013003180030F00022
:101270007008031D3C294029D801D901DA01DB019E
:101280005808F0005908F1005A08F2005B08F30012
:02129000080054
:101292006E2283160317880189018312871388132C
:1012A2000313431083160614831243108316081285
:1012B20088128A11CB278A158A11A2278A153830FB
:1012C200E9008A1170228A15C401C501C601C7014D
:1012D200831607108312071481308316990018159C
:1012E2008A11BB278A1583168C160C120B178B17C3
:1012F2000630FB001330FC00AD30FD00FD0B7F29F2
:10130200FC0B7F29FB0B7F290000000002308312B7
:10131200D600D701D801D9018A1173278A15063060
:10132200FB001330FC00AD30FD00FD0B9629FC0BD9
:101332009629FB0B9629000000000F30E900EA0114
:10134200EB01EC01ED010130EE000030EF008A11FB
:10135200CF258A150930E9008C30EA00EB01EC0157
:10136200ED010230EE000030EF008A11CF258A1520
:101372001A30FB005E30FC006E30FD00FD0BBF2911
:10138200FC0BBF29FB0BBF29000000207008C40022
:101392007108C5007208C6007308C7003108013A17
:1013A200031D272AB1018230FC00DD30FD00FD0B58
:1013B200D829FC0BD829000000004A08313A031D45
:1013C200272A4B08333A031D272A4C08443A031DA7
:1013D200272A4D08303A031D272A4E08343A031DA6
:1013E200272A4F08303A031D272A5008303A031D96
:1013F200272A5108303A031D272A5208503A031D62
:10140200272A0D30FB00AF30FC00B630FD00FD0B8B
:10141200082AFC0B082AFB0B082A00004408D60005
:101422004508D7004608D8004708D9008A11432644
:101432008A151A30FB005E30FC006E30FD00FD0B99
:10144200202AFC0B202AFB0B202A00000630D600A3
:10145200D7010130D8000130D9008A113A278A1504
:1014620070080319352A4314431C662A0630D60035
:10147200D7010130D800D9018A113A278A1570089C
:101482000319662A00302906031D492A003028065E
:10149200031D522A8A119E278A15A80A0319A90A2E
:1014A200572A8A11CB278A15A801A90143100830AF
:1014B200FB009D30FC000530FD00FD0B5E2AFC0B9D
:0E14C2005E2AFB0B5E2A00000000C629672A86
:1014DC00243084000E3083120313F000ED30B20080
:0C14EC000730B3008A11CF278A150800D2
:080FDA004E3461344E34003442
:040FE20000340034A3
:040FE600303400346F
:080FEA0049344E344634003452
:020FF2000034C9
:020FF4000034C7
:04400E00F22F000786
:00000001FF
