:040000008A15EC2A47
:10000800FF00030E8301DC000A08DD008A01700886
:10001800A2007108A1000408A3008C1E4628CC2762
:100028007008003A031D19281328CC277008013AD4
:10003800031D4628D3277008B7007008533A031DDC
:100048002C28A4012408453E840037088000A40A0F
:100058003708533A03193A283708453A03193A2812
:100068002408453E840037088000A40A3708453A2A
:10007800031D46282408453E840037088000A40153
:100088000130B1002208F0002108F10023088400A3
:0E0098005D088A005C0E8300FF0E7F0E0900DB
:1000A60083160313390883129300831614185D28E8
:0C00B6000000582883121308F000080016
:1000C20083160313390883129300831614186B28BE
:0C00D2000000662883121308F0000800EC
:0E00DE00F201F101F001F801F3010030080019
:1000EC007B15FB1F80280130F300F201F101F001B8
:0800FC00FA0DF20CFF300800C0
:08010400FA1FF213003008009D
:10010C00FB14FB1F9028FF30F300F200F100F0000D
:08011C00FA0DF20CFF3008009F
:1001240083120313F8010830FC00700DF80D7408F5
:10013400F80203189F28F8070310F00DFC0B97280A
:020144000800B1
:1001460083120313FA017308031D7A147708031D3B
:10015600FA147A080319EF28033A0319BA287A1809
:10016600B728F61FED28EB28F21FEB28ED287208BA
:100176008039FA00F21376088039F6137A060319E5
:10018600C8287A080319EB28ED28770873020319A3
:10019600CF28031CE328E728760872020319D6281D
:1001A600031CE328E728750871020319DD28031CE0
:1001B600E328E728740870020319EF280318E728D4
:1001C600FA080319ED28EB28FA080319EB28ED289D
:1001D60003140800031008000314031508000800A0
:1001E60083120313FB017308031D770803194A29B9
:1001F60072087606FA007708F3077E30031C072993
:10020600F30203184D290A29F302031C5029720828
:10021600F8007108FC007008FD00F817F6170310C7
:10022600F201F101F0011830A0007D1C24297408A8
:10023600F00775080318750FF10776080318760F8F
:10024600F207F20CF10CF00CF80CFC0CFD0C031090
:10025600A00B1829F21B3429F80DF00DF10DF20D43
:10026600F3037B1B701C4629F81F4629F00A031965
:10027600F10A0319F20A031D4629F20CF10CF00CDF
:10028600F30A03194D29FA1FF213003052290130DF
:100296006F20522902308620522904307620000031
:0202A60008004E
:0E02A80000308316031398180130F000080090
:1002B6007C189129FC1862297C19B0295B29A001B8
:1002C6007208031D82297108F2007008F10078088F
:1002D600F000F801A0157208031D82297108F200CA
:1002E6007008F100F001A01120167208031D822982
:1002F6007108F200F101A01572080319A42920085B
:10030600F302031D031CA8290310F21B9129F80D03
:10031600F00DF10DF20DF30B8829A8297B1B701C3B
:10032600AC29F81FAC29F00A0319F10A0319F20ADD
:10033600031DAC29F20CF10CF00CF30A0319B029D9
:10034600AC290130FC006F20B3290230FC00762076
:10035600B3290430FC008220B3290830FC00862033
:04036600000008008B
:10036A00831603133008F2007208F100F20A31080A
:10037A00F000B10A700884000008F00071088400D7
:10038A00700880007108840000080319CD29B92972
:06039A003008F00008002D
:1003A000A0017208031DE5297108F2007008F10030
:1003B000F001A0157208031DE5297108F200F10192
:1003C000A011201672080319F3292008F302031D57
:1003D000031CF7290310F21BFB29F00DF10DF20DA0
:1003E000F30BEB29F7290130FC006F20FE290230C6
:0E03F000FC007620FE290430FC00822008006C
:1003FE0083120313071083163008B90053200D30F3
:10040E00FC00FB30FD00FD0B0A2AFC0B0A2A000043
:10041E00000001308316B6000030B7008030F000C7
:10042E00803037067002031D1E2A36083102031C67
:10043E004B2AB901612070088316B8000D30FC00FC
:10044E00FB30FD00FD0B292AFC0B292A00000000C1
:10045E003808B2040030B304B404B5048030370653
:10046E00F00080307002031D3E2A31083602031858
:10047E00472A3408B5003308B4003208B300B2017D
:10048E00B60A0319B70A152A8312071483163208FF
:10049E00F0003308F1003408F2003508F3000800CC
:1004AE008316031398185D2A0000572A300883120A
:0404BE009900080099
:0E04C2008312031344088A00430882000800D6
:1004D0008030831203136404F0007008E4000710F6
:1004E00070088316B90053200D30FC00FB30FD006E
:1004F000FD0B782AFC0B782A00000000EB01EC01D0
:1005000080306C06F00080306A067002031D8A2A73
:1005100069086B020318D22A01306902F00000302A
:10052000031C013E6A02F1006B087002F3006C08C4
:10053000031C013E7102F4000330F2007308F00066
:100540007408F10072080319AA2AF00DF10D701059
:10055000FF3EA32A7008F4006508F0006608F10069
:100560006708F2006808F30074080319C02AF30C46
:10057000F20CF10CF00CF313731BF317FF3EB52ACA
:1005800070088316B90053200D30FC00FB30FD00CD
:10059000FD0BC82AFC0BC82A00000000EB0A031957
:0805A000EC0A802A0714080090
:1005A8008312031372087606A000F801F901730894
:1005B8007702031CF72A7708FD007308F7007D0807
:1005C800F3007608FD007208F6007D08F200750851
:1005D800FD007108F5007D08F1007408FD00700841
:1005E800F4007D08F00077080319702B7208FA00F0
:1005F800F217F61777087302F70003192A2B083049
:100608007702031C202BF7007408F9007508F40022
:100618007608F500F60108307702031C202BF70056
:100628007408F9007508F400F50108307702031C16
:10063800202B7A08F200702B770803192A2B031055
:10064800F60CF50CF40CF90CF70B232BA01F372B29
:10065800F909F409F509F609F90A0319F40A03195D
:10066800F50A0319F60A7908F80774080318740FCD
:10067800F00775080318750FF10776080318760F49
:10068800F207A01B502B031C602BF20CF10CF00C92
:10069800F80CF30F602B6C2B0318642BF809F00986
:1006A800F109F209F80A0319F00A0319F10A031902
:1006B800F20A8030FA06682B0130FC005B21722BAD
:1006C8000230FC005B21722B0430FC00D021722B1D
:1006D8000830FC008620722B0030FC000000080067
:1006E800043083120313FC003A30FD00FD0B7A2B13
:0806F800FC0B7A2B0000080046
:100700000B3083160313B0000230B100FF21080044
:100710000C3083160313B0000230B100FF21080033
:100720008312031373087706031DA32B7208760642
:10073000031DA32B71087506031DA32B70087406F7
:0C0740000319031508000311080008004D
:10074C008312031308160830FB009D30FC000530A3
:10075C00FD00FD0BAF2BFC0BAF2BFB0BAF2B0000ED
:10076C000000E501E6018030F00080306606700282
:10077C00031DC22B65080A3C031CDE2B5421700898
:10078C00003A031DCA2BC42B83126508640784002E
:10079C0000088316B0005722C330FC00CD30FD009A
:1007AC00FD0BD62BFC0BD62BE50A0319E60AB92B4D
:1007BC000630FB001330FC00AD30FD00FD0BE42BCC
:1007CC00FC0BE42BFB0BE42B0000000008120800D0
:1007DC00831203137008F8007108F0007208F1001E
:1007EC007308F200F301FB01FC019E30F300FA01E7
:1007FC00F21F0C2CF809F009F109F209F80A031997
:10080C00F00A0319F10A0319F20AFA170230FC0074
:04081C005B21080054
:1008200083120313EF018316AF0183126408EB00F8
:100830006508EC006608ED006708EE006E08FF3AF8
:10084000031D2C2C6D08FF3A031D2C2C6C08FF3A5D
:10085000031D2C2C6B08FF3A031D372C68088316E8
:10086000B0002530B100B5210330F000272E013053
:100870008312E900ED1F472C80306D06F0007008F0
:10088000ED00E90A680884002D308000E80A003095
:10089000F0006E06031D562C70086D06031D562CC5
:1008A00070086C06031D562C6B08003A031D602C63
:1008B00068088316B0002F30B100B521F001272E53
:1008C00083126E08FF3A031D6F2C6D08003A031D5A
:1008D0006F2C6C08003A031D6F2C6B08003A031D47
:1008E0007B2C68088316B0002B30B100B521831231
:1008F0006908F000272E83120030F4000030F50064
:100900000030F6007F30F7006B08F0006C08F10053
:100910006D08F2006E08F300A320013003180030C8
:10092000F00070080319B02C6B08F0006C08F1009F
:100930006D08F2006E08F3000030F4000030F5009E
:100940002030F6008230F700F3207008EB007108C9
:10095000EC007208ED007308EE008316AF037B2CE9
:100960000030F4000030F5002030F6008230F7004F
:1009700083126B08F0006C08F1006D08F2006E083D
:10098000F300A3200130031C0030F00070080319AD
:10099000E52C6B08F0006C08F1006D08F2006E08A1
:1009A000F300CD30F400CC30F5004C30F6007B3055
:1009B000F700F3207008EB007108EC007208ED00FE
:1009C0007308EE008316AF0AB02CFF3083126B055C
:1009D000F800FF306C05F9007F306D05FA0000303B
:1009E0006E05FB007808F4007908F5007A08F60037
:1009F0007B08F700F40DF50DF60DF70D74100030BF
:100A00006B05F00000306C05F10000306D05F20060
:100A1000FF306E05F3007008EB007108EC007208FF
:100A2000ED007308EE0074086B04F00075086C04A8
:100A3000F10076086D04F20077086E04F300700888
:100A4000EB007108EC007208ED007308EE007F30D7
:100A50006E02F0007008EA000130EE007008F40049
:100A60006B08F0006C08F1006D08F2006E08F300EE
:100A700074080319422DF00DF10DF20DF30D7010F5
:100A8000FF3E392D83127008EB007108EC007208EC
:100A9000ED007308EE006E08303EF0006808840038
:100AA00070088000E80A803083162F06F00080303E
:100AB000013A7002031C652D8030063AF000803048
:100AC0002F067002031C652D6D2D831268088400AB
:100AD0002E308000E80A0130EF0083120630EA0071
:100AE0006A08003A0319CF2DEE016B08F0006C087C
:100AF000F1006D08F2006E08F300F00DF10DF20D3B
:100B0000F30D7010F00DF10DF20DF30D70106B0878
:100B1000F0076C0803186C0FF1076D0803186D0FD0
:100B2000F2076E0803186E0FF3077008EB007108E8
:100B3000EC007208ED007308EE006B08F0006C0822
:100B4000F1006D08F2006E08F300F00DF10DF20DEA
:100B5000F30D70107008EB007108EC007208ED00E6
:100B60007308EE006E08303EF000680884007008DC
:100B70008000E80A6F08003A031DCC2D8316AF03EE
:100B80002F08003A031DCC2D8312680884002E30F4
:100B90008000E80A0130EF008312EA03702DFF3075
:100BA000680784000008303A031DD82DE803CF2DD4
:100BB000FF306807840000082E3A031DE02DE8038B
:100BC00083162F08003A0319222E83126808840026
:100BD00065308000E80A803083162F06F0008030F0
:100BE000003A70020318FE2D8312680884002D302D
:100BF0008000E80A83162F08003CAF002F088312FC
:100C0000EA0083162F08093C0318132E0A30F4005B
:100C100083126A08F00092203030F00768088400E0
:100C200070088000E80A83120A30F4006A08F000B5
:100C300092207808F0003030F007680884007008CF
:100C40008000E80A8312680884008001F00108002F
:100C500083120313E3015F08F1000130F000710813
:100C60000319362EF00D7010FF3E302E7008E20092
:100C70005E08840070080005F10071080130031D52
:100C80000030F0006108F00603195E2E6008003C99
:100C900003184E2E74237423E003462E5E0884004E
:100CA00062080005F10071080130031D0030F000FA
:100CB0006108F00603195E2EFF30E3006308F000C0
:020CC00008002A
:100CC200831203135E08E4005F08E5006008E60093
:100CD2006108E700A030E800102483120313F40136
:100CE200F501F601F7015E08F0005F08F100600807
:100CF200F2006108F30090230130031D0030F00080
:100D0200700803198E2E3030BE003030BF003030F4
:100D1200C0005030C1004530C200F401F501F601B7
:100D2200F7015E08F0005F08F1006008F200610858
:100D3200F3009023013003190030F000700803190A
:100D4200C62E0030F4000030F5002030F60082306C
:100D5200F7005E08F0005F08F1006008F200610829
:100D6200F300A320013003180030F00070080319CB
:100D7200C62E3030BE003030BF00831620088312EA
:100D8200C0005030C1004530C2000030F4000030D5
:100D9200F5004830F6008530F7005E08F0005F0885
:100DA200F1006008F2006108F300A320013003188B
:100DB2000030F00070080319042F5E08F4005F0889
:100DC200F5006008F6006108F7000030F00000301E
:100DD200F1002030F2008230F300A320013003182A
:100DE2000030F00070080319042F3030BE00831663
:100DF20020088312BF00831621088312C0005030DE
:100E0200C1004530C2000030F4000030F5007A30F5
:100E1200F6008830F7005E08F0005F08F100600815
:100E2200F2006108F300A320013003180030F00043
:100E320070080319442F5E08F4005F08F50060088B
:100E4200F6006108F7000030F0000030F100483091
:100E5200F2008530F300A320013003180030F000C7
:100E620070080319442F831620088312BE008316CC
:100E720021088312BF00831622088312C00050305B
:100E8200C1004530C2000330FB008A30FC005530FF
:100E9200FD00FD0B4A2FFC0B4A2FFB0B4A2F0000D3
:100EA20000003830E400A6230830FB009D30FC002F
:100EB2000530FD00FD0B5B2FFC0B5B2FFB0B5B2F4B
:060EC20000000000080022
:080EC8008312031388160800D1
:100ED00083160313871283125E08043A031D732FCF
:100EE00083168715752F83168711071683129401B1
:100EF0005E089404600894045F08831694048312C7
:100F0000600803198A2F6108003A031D892F831690
:100F10001417902F831261080319902F831614174A
:060F200083129416080084
:100F2600831603139816903083129800831687173A
:100F3600071383128C1EA22F1A08F0009C2F08009C
:100F460061228A110A128000840AC30A0319C40A9C
:080F5600F003031DA32F0800A6
:100F5E00533083120313B8003030B9003330BA0067
:100F6E004430BB003030BC003430BD003030BE00E9
:100F7E003030BF003030C0005630C1004530C200A6
:020F8E00080059
:080F900083120313881208000C
:0E0F98000030831203138C1A0130F0000800A1
:100FA600831203131A08F100981CDB2F1812181667
:060FB6007108F0000800C4
:100FD800243084000E3083120313F000DE30C30087
:080FE8000730C400A327080034
:1010000083120313E001E101E201E3011C30E4007B
:101010006430E500E601E701E8010230E900003054
:10102000EA008A1168228A150D30FB00AF30FC00FF
:10103000B630FD00FD0B1A28FC0B1A28FB0B1A28F2
:1010400000000930E4008030E500E601E701E80136
:101050000230E9000030EA008A1168228A150D305A
:10106000FB00AF30FC00B630FD00FD0B3528FC0B5B
:101070003528FB0B352800000A30E4000430E50079
:10108000E601E701E8010230E9000030EA008A11D8
:1010900068228A150D30FB00AF30FC00B630FD0031
:1010A000FD0B5028FC0B5028FB0B502800008A1128
:1010B00088238A158A1180238A1570197228831251
:1010C000DE0A0319DF0A8030F00080305F0670020C
:1010D000031D6C285E08C83C03187128DE01DF017F
:1010E00072285A288A1188238A158A1180238A1522
:1010F00070198D288312DE0A0319DF0A8030F00090
:1011000080305F067002031D87285E08C83C031804
:101110008C28DE01DF018D2875288A1188238A1525
:101120000430B0000330B1008A11FF218A15700825
:101130008312B2007108B3007208B4007308B500DE
:101140000D30FB00AF30FC00B630FD00FD0BA628D3
:10115000FC0BA628FB0BA6280000FF303205F00090
:10116000FF303305F1003408F2003508F300003099
:10117000F205F3058A11EE238A157008E000710864
:10118000E1007208E2007308E3007130F4003D30C2
:10119000F5005230F6007F30F7008A11F3208A15EF
:1011A0007008E0007108E1007208E2007308E300D3
:1011B0002930F4005C30F5000F30F6007C30F70089
:1011C0008A11D4228A157008E0007108E1007208C3
:1011D000E2007308E3001C30E400FF30E500FF305C
:1011E000E600E701E8010230E9000030EA008A1178
:1011F00068228A150D30FB00AF30FC00B630FD00D0
:10120000FD0B0029FC0B0029FB0B0029000000301E
:10121000F4000030F5000030F6008230F70060087E
:10122000F0006108F1006208F2006308F3008A111F
:10123000A3208A15013003180030F0007008031D48
:101240003C296008F4006108F5006208F6006308B4
:10125000F7000030F0000030F1007A30F200893001
:10126000F3008A11A3208A15013003180030F00022
:101270007008031D3C294029E001E101E201E3017E
:101280006008F0006108F1006208F2006308F300F2
:02129000080054
:10129200831203135E08E4005F08E5006008E600BD
:1012A2006108E700A030E8008A1110248A15831231
:1012B2000313F401F501F601F7015E08F0005F087F
:1012C200F1006008F2006108F3008A1190238A1588
:1012D2000130031D0030F000700803197A29303004
:1012E200BE003030BF003030C0004930C100453050
:1012F200C200F401F501F601F7015E08F0005F0893
:10130200F1006008F2006108F3008A1190238A1547
:10131200013003190030F00070080319D1290030A0
:10132200F4000030F5000030F6007F30F7005E0870
:10133200F0005F08F1006008F2006108F3008A1112
:10134200A3208A15013003180030F0007008031939
:10135200D1295E08F4005F08F5006008F600610814
:10136200F700CD30F000CC30F1004C30F2007B3091
:10137200F3008A11A3208A15013003180030F0000F
:1013820070080319D1293030BE002E30BF008316F9
:1013920020088312C0004930C1004530C200F9293B
:1013A2005E08F4005F08F5006008F6006108F700C7
:1013B2000030F0000030F1000030F2007F30F30026
:1013C2008A11A3208A15013003180030F00070083A
:1013D2000319F929831620088312BE002E30BF009C
:1013E200831622088312C0004930C1004530C20072
:1013F2000330FB008A30FC005530FD00FD0BFF2955
:10140200FC0BFF29FB0BFF29000000003830E40031
:101412008A11A6238A150830FB009D30FC00053096
:10142200FD00FD0B122AFC0B122AFB0B122A0000F4
:0414320000000800AE
:10143600831203135E08E4005F08E5006008E60017
:101446006108E700A030E8008A1110248A1583128B
:101456000313F401F501F601F7015E08F0005F08D9
:10146600F1006008F2006108F3008A1190238A15E2
:101476000130031D0030F000700803194C2A30308B
:10148600BE003030BF003030C0005630C10045309D
:10149600C200F401F501F601F7015E08F0005F08ED
:1014A600F1006008F2006108F3008A1190238A15A2
:1014B600013003190030F000700803198A2A003041
:1014C600F4000030F5004830F6008530F7005E087D
:1014D600F0005F08F1006008F2006108F3008A116D
:1014E600A3208A15013003180030F0007008031994
:1014F6008A2A3030BE00831620088312BF00831666
:1015060021088312C0005630C1004530C200F401E4
:10151600F501F601F7015E08F0005F08F1006008CA
:10152600F2006108F3008A1190238A15013003192D
:101536000030F00070080319CA2A5E08F4005F083C
:10154600F5006008F6006108F7000030F000003092
:10155600F1004830F2008530F3008A11A3208A1585
:10156600013003180030F00070080319CA2A8316E8
:1015760020088312BE00831621088312BF0083163B
:1015860022088312C0005630C1004530C200033025
:10159600FB008A30FC005530FD00FD0BD02AFC0B09
:1015A600D02AFB0BD02A000000003830E4008A1154
:1015B600A6238A150830FB009D30FC000530FD008F
:1015C600FD0BE32AFC0BE32AFB0BE32A00000000D9
:0215D60008000B
:1015D8008A11EC278A15831603178801890183125B
:1015E80087138813031336108316061483123610D4
:1015F8008316081288128A11C8278A158A11AF27FC
:101608008A153830E4008A11A6238A150030D400E0
:101618000030D5002030D6008230D700CD30D00041
:10162800CC30D1004C30D2007C30D3000030D80010
:101638000030D9002030DA008230DB008316071032
:101648008312071481308316990018158A1193277D
:101658008A1583168C160C120B178B170630FB0095
:101668001330FC00AD30FD00FD0B382BFC0B382B84
:10167800FB0B382B0000000002308312DE00DF0174
:10168800E001E1018A1168278A150630FB00133052
:10169800FC00AD30FD00FD0B4F2BFC0B4F2BFB0B63
:1016A8004F2B000000000F30E400E501E601E701E0
:1016B800E8010130E9000030EA008A1168228A1541
:1016C8000930E4008C30E500E601E701E80102306A
:1016D800E9000030EA008A1168228A151A30FB00F6
:1016E8005E30FC006E30FD00FD0B782BFC0B782B78
:1016F800FB0B782B000000207008D8007108D90077
:101708007208DA007308DB003108013A031D6E2CF9
:10171800B1018230FC00DD30FD00FD0B912BFC0B8C
:10172800912B000000004608313A031DDE2B4708C4
:10173800333A031DDE2B4808443A031DDE2B4908C3
:10174800303A031DDE2B4A08343A031DDE2B4B08C2
:10175800303A031DDE2B4C08303A031DDE2B4D08B2
:10176800303A031DDE2B4E08563A031DDE2B0D3092
:10177800FB00AF30FC00B630FD00FD0BC12BFC0BAD
:10178800C12BFB0BC12B00005408DE005508DF00FD
:101798005608E0005708E1001B221A30FB005E30B3
:1017A800FC006E30FD00FD0BD72BFC0BD72BFB0B81
:1017B800D72B00004608313A031D252C4708333A39
:1017C800031D252C4808443A031D252C4908303AA6
:1017D800031D252C4A08343A031D252C4B08303AA2
:1017E800031D252C4C08303A031D252C4D08303A92
:1017F800031D252C4E08493A031D252C0D30FB00EE
:10180800AF30FC00B630FD00FD0B082CFC0B082C9B
:10181800FB0B082C00005008DE005108DF005208BE
:10182800E0005308E10049211A30FB005E30FC005B
:101838006E30FD00FD0B1E2CFC0B1E2CFB0B1E2C12
:1018480000004608313A031D6E2C4708333A031D41
:101858006E2C4808443A031D6E2C4908303A031D83
:101868006E2C4A08343A031D6E2C4B08303A031D7F
:101878006E2C4C08303A031D6E2C4D08303A031D6F
:101888006E2C4E08503A031D6E2C0D30FB00AF3005
:10189800FC00B630FD00FD0B4F2CFC0B4F2CFB0B56
:1018A8004F2C00005808DE005908DF005A08E000F5
:1018B8005B08E1008A1161268A151A30FB005E3048
:1018C800FC006E30FD00FD0B672CFC0B672CFB0B3E
:1018D800672C00000630DE00DF010130E000013037
:1018E800E1008A1128268A15700803197C2C361401
:1018F800361CAD2C0630DE00DF010130E000E101CE
:101908008A1128268A1570080319AD2C00302A067A
:10191800031D902C00302906031D992C8A11642779
:101928008A15A90A0319AA0A9E2C8A11C8278A159A
:10193800A901AA0136100830FB009D30FC000530D3
:10194800FD00FD0BA52CFC0BA52CFB0BA52C00000A
:0619580000007F2BAE2C05
:020FBC000034FF
:080FBE004E3461344E3400345E
:040FC60000340034BF
:080FCA0049344E344634003472
:040FD2003034003483
:020FD6000034E5
:04400E00F22F000786
:00000001FF
