:040000008A154929EB
:10000800FF00030E8301E2000A08E1008A0170087C
:10001800A2007108A1000408A3008B1C1828013055
:10002800A4000030A5008B108C1E4D28D527700821
:10003800003A031D20281A28D5277008013A031D05
:100048004D28DC277008CA007008533A031D33286E
:10005800AC012C08563E84004A088000AC0A4A08C5
:10006800533A031941284A08453A031941282C08EC
:10007800563E84004A088000AC0A4A08453A031DE7
:100088004D282C08563E84004A088000AC010130F7
:10009800B1002208F0002108F1002308840061085B
:0C00A8008A00620E8300FF0E7F0E09002C
:1000B400831603133E0883129300831614186428CE
:0C00C40000005F2883121308F000080001
:1000D000831603133E0883129300831614187228A4
:0C00E00000006D2883121308F0000800D7
:0E00EC00F201F101F001F801F301003008000B
:1000FA007B15FB1F87280130F300F201F101F001A3
:08010A00FA0DF20CFF300800B1
:08011200FA1FF213003008008F
:10011A00FB14FB1F9728FF30F300F200F100F000F8
:08012A00FA0DF20CFF30080091
:1001320083120313FB017308031D77080319F028C8
:1001420072087606FA007708F3077E30031CAD28A2
:10015200F3020318F328B028F302031CF6287208EE
:10016200F8007108FC007008FD00F817F61703107C
:10017200F201F101F0011830A0007D1CCA287408B8
:10018200F00775080318750FF10776080318760F44
:10019200F207F20CF10CF00CF80CFC0CFD0C031045
:1001A200A00BBE28F21BDA28F80DF00DF10DF20DAE
:1001B200F3037B1B701CEC28F81FEC28F00A0319D0
:1001C200F10A0319F20A031DEC28F20CF10CF00CEF
:1001D200F30A0319F328FA1FF2130030F82801304A
:1001E2007620F82802308D20F82804307D20000087
:0201F200080003
:1001F40083120313FA017308031D7A147708031D8D
:10020400FA147A0803194629033A031911297A18AA
:100214000E29F61F44294229F21F42294429720853
:100224008039FA00F21376088039F6137A06031936
:100234001F297A08031942294429770873020319EC
:100244002629031C3A293E297608720203192D290E
:10025400031C3A293E297508710203193429031C29
:100264003A293E29740870020319462903183E29C5
:10027400FA08031944294229FA080319422944298E
:1002840003140800031008000314031508000800F1
:100294007C188029FC1851297C199F294A29A0011E
:1002A4007208031D71297108F2007008F1007808C2
:1002B400F000F801A0157208031D71297108F200FD
:1002C4007008F100F001A01120167208031D7129B5
:1002D4007108F200F101A01572080319932920088E
:1002E400F302031D031C97290310F21B8029F80D48
:1002F400F00DF10DF20DF30B772997297B1B701C80
:100304009B29F81F9B29F00A0319F10A0319F20A21
:10031400031D9B29F20CF10CF00CF30A03199F291D
:100324009B290130FC007620A2290230FC007D20AC
:10033400A2290430FC008920A2290830FC008D2069
:0403440000000800AD
:10034800831603133508F2007208F100F20A360822
:10035800F000B60A700884000008F00071088400F4
:10036800700880007108840000080319BC29A829B6
:060378003508F00008004A
:10037E0083120313071083163508BE005A200D3062
:10038E00FC00FB30FD00FD0BCA29FC0BCA29000046
:10039E00000001308316BB000030BC008030F0003E
:1003AE0080303C067002031DDE293B083602031C1A
:1003BE000B2ABE01682070088316BD000D30FC00AC
:1003CE00FB30FD00FD0BE929FC0BE92900000000C4
:1003DE003D08B7040030B804B904BA0480303C06B6
:1003EE00F00080307002031DFE2936083B02031810
:1003FE00072A3908BA003808B9003708B800B7011B
:10040E00BB0A0319BC0AD5298312071483163708B1
:10041E00F0003808F1003908F2003A08F30008003D
:10042E00A0017208031D2C2A7108F2007008F10059
:10043E00F001A0157208031D2C2A7108F200F101BB
:10044E00A0112016720803193A2A2008F302031D80
:10045E00031C3E2A0310F21B422AF00DF10DF20D81
:10046E00F30B322A3E2A0130FC007620452A023058
:0E047E00FC007D20452A0430FC008920080087
:0E048C0000308316031398180130F0000800AA
:10049A00831603139818532A00004D2A350883122D
:0404AA0099000800AD
:1004AE0083120313F8010830FC00700DF80D740868
:1004BE00F8020318642AF8070310F00DFC0B5C2AEF
:0204CE00080024
:1004D0008312031308160830FB009D30FC00053022
:1004E000FD00FD0B712AFC0B712AFB0B712A000029
:1004F0000000EA01EB018030F00080306B067002F2
:10050000031D842A6A080A3C031CA02A462270089C
:10051000003A031D8C2A862A83126A086907840020
:1005200000088316B5004D22C330FC00CD30FD001D
:10053000FD0B982AFC0B982AEA0A0319EB0A7B2A7E
:100540000630FB001330FC00AD30FD00FD0BA62A89
:10055000FC0BA62AFB0BA62A0000000008120800CC
:0E0560008312031349088A004808820008002D
:10056E008312031373087706031DCA2A72087606D0
:10057E00031DCA2A71087506031DCA2A700874065F
:0C058E0003190315080003110800080001
:10059A00831203137008F8007108F0007208F10062
:1005AA007308F200F301FB01FC019E30F300FA012B
:1005BA00F21FEB2AF809F009F109F209F80A0319FE
:1005CA00F00A0319F10A0319F20AFA170230FC00B9
:0405DA004A210800AA
:1005DE008030831203136904F0007008E9000710DD
:1005EE0070088316BE005A200D30FC00FB30FD0053
:1005FE00FD0BFF2AFC0BFF2A000000008316AF0143
:10060E00B00180303006F000803083126F06700229
:10061E00031D142B6E0883162F020318602B013056
:10062E0083126E02F0000030031C013E6F02F100D7
:10063E0083162F087002F3003008031C013E71026E
:10064E00F4000330F2007308F0007408F100720831
:10065E000319362BF00DF10D7010FF3E2F2B700885
:10066E00F40083126A08F0006B08F1006C08F200C7
:10067E006D08F300740803194D2BF30CF20CF10CFA
:10068E00F00CF313731BF317FF3E422B7008831607
:10069E00BE005A200D30FC00FB30FD00FD0B552B2B
:1006AE00FC0B552B000000008316AF0A0319B00A8D
:0806BE00082B83120714080049
:1006C6008312031372087606A000F801F901730875
:1006D6007702031C862B7708FD007308F7007D0858
:1006E600F3007608FD007208F6007D08F200750832
:1006F600FD007108F5007D08F1007408FD00700822
:10070600F4007D08F00077080319FF2B7208FA0041
:10071600F217F61777087302F7000319B92B08309A
:100726007702031CAF2BF7007408F9007508F40074
:100736007608F500F60108307702031CAF2BF700A8
:100746007408F9007508F400F50108307702031CF7
:10075600AF2B7A08F200FF2B77080319B92B031089
:10076600F60CF50CF40CF90CF70BB22BA01FC62BEC
:10077600F909F409F509F609F90A0319F40A03193E
:10078600F50A0319F60A7908F80774080318740FAE
:10079600F00775080318750FF10776080318760F2A
:1007A600F207A01BDF2B031CEF2BF20CF10CF00C55
:1007B600F80CF30FEF2BFB2B0318F32BF809F009BA
:1007C600F109F209F80A0319F00A0319F10A0319E3
:1007D600F20A8030FA06F72B0130FC004A21012C80
:1007E6000230FC004A21012C0430FC001722012CA7
:1007F6000830FC008D20012C0030FC0000000800B1
:1008060083160313B301B401831269088316AF007C
:1008160083126A088316B00083126B088316B10030
:1008260083126C088316B2003208FF3A031D252C8A
:100836003108FF3A031D252C3008FF3A031D252CED
:100846002F08FF3A031D312C83126D088316B5005D
:100856002D30B600A4210330F0002D2E0130831276
:10086600EE008316B11F432C80303106F00070086D
:10087600B1008312EE0A6D0884002D308000ED0A67
:100886000030F00083163206031D532C7008310623
:10089600031D532C70083006031D532C2F08003AF5
:1008A600031D5E2C83126D088316B5002A30B60030
:1008B600A421F0012D2E3208FF3A031D6C2C3108BD
:1008C600003A031D6C2C3008003A031D6C2C2F08CF
:1008D600003A031D792C83126D088316B500263065
:1008E600B600A42183126E08F0002D2E0030F4000D
:1008F6000030F5000030F6007F30F70083162F0831
:10090600F0003008F1003108F2003208F300FA2056
:10091600013003180030F00070080319AF2C83165D
:100926002F08F0003008F1003108F2003208F30019
:100936000030F4000030F5002030F6008230F70079
:10094600992070088316AF007108B0007208B100D4
:100956007308B200B403792C83160030F40000301B
:10096600F5002030F6008230F7002F08F00030083E
:10097600F1003108F2003208F300FA200130031CBE
:100986000030F00070080319E52C83162F08F000DC
:100996003008F1003108F2003208F300CD30F400DF
:1009A600CC30F5004C30F6007B30F700992070080B
:1009B6008316AF007108B0007208B1007308B20068
:1009C600B40AAF2C8316FF302F05F800FF30300530
:1009D600F9007F303105FA0000303205FB00780857
:1009E600F4007908F5007A08F6007B08F700F40DA4
:1009F600F50DF60DF70D741000302F05F0000030E0
:100A06003005F10000303105F200FF303205F30009
:100A16007008AF007108B0007208B1007308B20028
:100A260074082F04F00075083004F10076083104CC
:100A3600F20077083204F3007008AF007108B000C6
:100A46007208B1007308B2007F303202F0007008FD
:100A56008312EF0001308316B2007008F4002F08ED
:100A6600F0003008F1003108F2003208F300740893
:100A76000319442DF00DF10DF20DF30D7010FF3E2C
:100A86003B2D7008AF007108B0007208B100730802
:100A9600B2003208303EF00083126D088400700800
:100AA6008000ED0A803083163406F0008030013A6B
:100AB6007002031C672D8030063AF0008030340641
:100AC6007002031C672D702D83126D0884002E3072
:100AD6008000ED0A01308316B30006308312EF0062
:100AE6006F08003A0319D52D8316B2012F08F000BE
:100AF6003008F1003108F2003208F300F00DF10D74
:100B0600F20DF30D7010F00DF10DF20DF30D7010E6
:100B16002F08F00730080318300FF10731080318C3
:100B2600310FF20732080318320FF3077008AF00CF
:100B36007108B0007208B1007308B2002F08F00007
:100B46003008F1003108F2003208F300F00DF10D23
:100B5600F20DF30D70107008AF007108B000720846
:100B6600B1007308B2003208303EF00083126D08FF
:100B7600840070088000ED0A83163308003A031DCE
:100B8600D22DB4033408003A031DD22D83126D080A
:100B960084002E308000ED0A01308316B3008312E4
:100BA600EF03732DFF306D0784000008303A031DF4
:100BB600DE2DED03D52DFF306D07840000082E3A9B
:100BC600031DE62DED0383163408003A0319282E7B
:100BD60083126D08840065308000ED0A803083162C
:100BE6003406F0008030003A70020318042E831297
:100BF6006D0884002D308000ED0A83163408003C11
:100C0600B40034088312EF0083163408093C031835
:100C1600192E0A30F40083126F08F0005722303084
:100C2600F0076D08840070088000ED0A83120A3010
:100C3600F4006F08F00057227808F0003030F00713
:100C46006D08840070088000ED0A83126D08840028
:060C56008001F00108001E
:100C5C000C3083160313B5000230B600BF21080018
:100C6C000B3083160313B5000230B600BF21080009
:080C7C0083120313881608001F
:100C8400831203136308E9006408EA006508EB00B3
:100C94006608EC00A030ED00032483120313F40172
:100CA400F501F601F7016308F0006408F100650836
:100CB400F2006608F300B7220130031D0030F00093
:100CC400700803196F2E3030BB003030BC00303058
:100CD400BD005030BE004530BF00F401F501F601FF
:100CE400F7016308F0006408F1006508F200660883
:100CF400F300B722013003190030F0007008031923
:100D0400A72E0030F4000030F5002030F6008230C9
:100D1400F7006308F0006408F1006508F200660853
:100D2400F300FA20013003180030F00070080319B2
:100D3400A72E3030BB003030BC008316200883124D
:100D4400BD005030BE004530BF000030F40000301C
:100D5400F5004830F6008530F7006308F0006408B9
:100D6400F1006508F2006608F300FA200130031868
:100D74000030F00070080319E52E6308F4006408DD
:100D8400F5006508F6006608F7000030F000003052
:100D9400F1002030F2008230F300FA200130031811
:100DA4000030F00070080319E52E3030BB008316C4
:100DB40020088312BC00831621088312BD00503022
:100DC400BE004530BF000030F4000030F5007A303A
:100DD400F6008830F7006308F0006408F100650845
:100DE400F2006608F300FA20013003180030F00026
:100DF40070080319252F6308F4006408F5006508DA
:100E0400F6006608F7000030F0000030F1004830CA
:100E1400F2008530F300FA20013003180030F000AE
:100E240070080319252F831620088312BB0083162C
:100E340021088312BC00831622088312BD0050309F
:100E4400BE004530BF000330FB008A30FC00553043
:100E5400FD00FD0B2B2FFC0B2B2FFB0B2B2F00006E
:100E640000003530E90068220830FB009D30FC00AA
:100E74000530FD00FD0B3C2FFC0B3C2FFB0B3C2FE6
:060E840000000000080060
:100E8A0083160313871283126308043A031D502F33
:100E9A0083168715522F831687110716831294011A
:100EAA0063089404650894046408831694048312FE
:100EBA0065080319672F6608003A031D662F831613
:100ECA0014176D2F8312660803196D2F83161417D2
:060EDA00831294160800CB
:080EE0008312031388120800BD
:100EE800533083120313B5003030B6003330B700E7
:100EF8004430B8003030B9003430BA003030BB006C
:100F08003030BC003030BD005030BE004530BF002E
:100F18005330D6003030D7003030D8003030D900C8
:100F28003030DA003030DB003030DC003030DD00CB
:100F38003030DE003030DF004530E0005330CB0089
:100F48003030CC003030CD004230CE003030CF00D1
:100F58003430D0004430D1003030D2003430D300A7
:0A0F68003030D4004530D5000800F9
:100F720083160313981690308312980083168717EE
:100F8200071383128C1EC82F1A08F000C22F080004
:100F9200B0228A110A128000840AC80A0319C90AF7
:080FA200F003031DC92F080034
:0E0FAA000030831203138C1A0130F00008008F
:100FB800831203131A08F100981CE42F181218164C
:060FC8007108F0000800B2
:1010000083120313E501E601E701E8011C30E90062
:101010006430EA00EB01EC01ED010230EE0000303B
:10102000EF008A11EF228A150D30FB00AF30FC0073
:10103000B630FD00FD0B1A28FC0B1A28FB0B1A28F2
:1010400000000930E9008030EA00EB01EC01ED011D
:101050000230EE000030EF008A11EF228A150D30C9
:10106000FB00AF30FC00B630FD00FD0B3528FC0B5B
:101070003528FB0B352800000A30E9000430EA006F
:10108000EB01EC01ED010230EE000030EF008A11BF
:10109000EF228A150D30FB00AF30FC00B630FD00AA
:1010A000FD0B5028FC0B5028FB0B502800008A1128
:1010B0002E268A158A1136268A15701972288312EF
:1010C000E30A0319E40A8030F000803064067002FD
:1010D000031D6C286308C83C03187128E301E40170
:1010E00072285A288A112E268A158A1136268A15C0
:1010F00070198D288312E30A0319E40A8030F00086
:10110000803064067002031D87286308C83C0318FA
:101110008C28E301E4018D2875288A112E268A1572
:101120000430B5000330B6008A11BF218A1570085B
:101130008312C4007108C5007208C6007308C70096
:101140000D30FB00AF30FC00B630FD00FD0BA628D3
:10115000FC0BA628FB0BA6280000FF304405F0007E
:10116000FF304505F1004608F2004708F300003063
:10117000F205F3058A11CD228A157008E500710881
:10118000E6007208E7007308E8007130F4003D30B3
:10119000F5005230F6007F30F7008A1199208A1549
:1011A0007008E5007108E6007208E7007308E800BF
:1011B0002930F4005C30F5000F30F6007C30F70089
:1011C0008A1163238A157008E5007108E600720829
:1011D000E7007308E8001C30E900FF30EA00FF3048
:1011E000EB00EC01ED010230EE000030EF008A115F
:1011F000EF228A150D30FB00AF30FC00B630FD0049
:10120000FD0B0029FC0B0029FB0B0029000000301E
:10121000F4000030F5000030F6008230F700650879
:10122000F0006608F1006708F2006808F3008A1110
:10123000FA208A15013003180030F0007008031DF1
:101240003C296508F4006608F5006708F6006808A0
:10125000F7000030F0000030F1007A30F200893001
:10126000F3008A11FA208A15013003180030F000CB
:101270007008031D3C294029E501E601E701E8016A
:101280006508F0006608F1006708F2006808F300DE
:02129000080054
:101292001423831603178801890183128713881385
:1012A20003133410831606148312341083160812A3
:1012B20088128A1170278A158A1174278A15C0012B
:1012C200C101C201C30183160710831207148316DA
:1012D20001170B168B178130990018158A11B9273F
:1012E2008A1583168C160C120B178B170630FB000F
:1012F2001330FC00AD30FD00FD0B7D29FC0B7D2978
:10130200FB0B7D290000000002308312E300E401A0
:10131200E501E6018A1145278A150630FB001330E4
:10132200FC00AD30FD00FD0B9429FC0B9429FB0B56
:101332009429000000000F30E900EA01EB01EC0102
:10134200ED010130EE000030EF008A11EF228A1524
:101352000930E9008C30EA00EB01EC01ED010230CA
:10136200EE000030EF008A11EF228A151A30FB00DE
:101372005E30FC006E30FD00FD0BBD29FC0BBD296B
:10138200FB0BBD2900008A1170278A15A401A50153
:10139200B201B30100207008C0007108C1007208D8
:1013A200C2007308C3003108013A031D9A2AB10131
:1013B2008230FC00DD30FD00FD0BDD29FC0BDD2958
:1013C200000000005708313A031D2C2A5808333A0E
:1013D200031D2C2A5908443A031D2C2A5A08303A74
:1013E200031D2C2A5B08343A031D2C2A5C08303A70
:1013F200031D2C2A5D08303A031D2C2A5E08303A60
:10140200031D2C2A5F08503A031D2C2A0D30FB00C5
:10141200AF30FC00B630FD00FD0B0D2AFC0B0D2A8F
:10142200FB0B0D2A00004008E3004108E4004208DB
:10143200E5004308E6008A1142268A151A30FB00AD
:101442005E30FC006E30FD00FD0B252AFC0B252AC8
:10145200FB0B252A00005708313A031D642A58085D
:10146200303A031D642A5908443A031D642A5A0873
:10147200303A031D642A5B08343A031D642A5C086F
:10148200303A031D642A5D08303A031D642A5E085F
:10149200303A031D642A5F08313A031D642A8A1117
:1014A2003E268A150130B2000030B3000D30FB0039
:1014B200AF30FC00B630FD00FD0B5D2AFC0B5D2A4F
:1014C200FB0B5D2A00005708313A031D9A2A58087F
:1014D200303A031D9A2A5908443A031D9A2A5A0897
:1014E200303A031D9A2A5B08343A031D9A2A5C0893
:1014F200303A031D9A2A5D08303A031D9A2A5E0883
:10150200303A031D9A2A5F08303A031D9A2A8A113B
:1015120070278A15B201B3010D30FB00AF30FC0019
:10152200B630FD00FD0B932AFC0B932AFB0B932A8A
:10153200000000302506031DA02A01302406031DE9
:101542000C2BA401A50100303306031DAA2A00308A
:101552003206031DD62A8A113E268A15B20A0319BB
:10156200B30A3130D4000330FB008A30FC0055301E
:10157200FD00FD0BBA2AFC0BBA2AFB0BBA2A0000AB
:1015820000004B30E9008A1168228A150830FB00FE
:101592009D30FC000530FD00FD0BCD2AFC0BCD2A51
:1015A200FB0BCD2A00000000FE2A8A1170278A1543
:1015B200B201B3013030D4000330FB008A30FC00AA
:1015C2005530FD00FD0BE32AFC0BE32AFB0BE32A5B
:1015D200000000004B30E9008A1168228A150830A9
:1015E200FB009D30FC000530FD00FD0BF62AFC0BD4
:1015F200F62AFB0BF62A000000000830FB009D30A3
:10160200FC000530FD00FD0B042BFC0B042BFB0B37
:0A161200042B00000000CB290D2B73
:1016280024308400103083120313F000E730C80020
:0C1638000730C9008A11C9278A15080074
:040FCE0000340034B7
:080FD20049344E34463400346A
:040FDA00303400347B
:020FDE000034DD
:080FE0004E3461344E3400343C
:020FE8000034D3
:040FEA00003400349B
:04400E00F22F000786
:00000001FF
