:02000000F328E3
:10000800FF00030E8301C5000A08C6008A017008B4
:10001800A1007108A0000408A2008C1E4628BB207D
:100028007008003A031D19281328BB207008013AEC
:10003800031D4628B0207008B5007008533A031D08
:100048002C28A30123082A3E840035088000A30A2F
:100058003508533A03193A283508453A03193A2816
:1000680023082A3E840035088000A30A3508453A4B
:10007800031D462823082A3E840035088000A30172
:100088000130A4002108F0002008F10022088400B3
:0E00980046088A00450E8300FF0E7F0E090009
:1000A60083160313981859280000532883124A0808
:0400B60099000800A5
:0E00BA0000308316031398180130F000080080
:0E00C8008312031327088A002608820008000E
:1000D60064208A110A128000840AA60A0319A70A54
:0800E600F003031D6B28080064
:1000EE0083120313470883169B009C131C141A08D3
:0400FE00F000080006
:10010200831603139C1C872800008128831247084A
:1001120083169B008312480883169A009C131C15B1
:100122000B08F0008B1355309D00AA309D009C14E3
:0E013200F01B9D288B139E288B171C110800B4
:100140008316031398169030831298008316861432
:10015000061183128C1EAF281A08F000A928080087
:10016000831203131A08F100981CB82818121816E5
:060170007108F000080018
:0E0176000030831203138C1A0130F0000800D1
:10018400831203138615C801C9018030F000803042
:1001940049067002031DD02848080A3C031CE328C2
:1001A4005D207008003A031DD828D228831248081D
:1001B400470784000008CA005320C80A0319C90A63
:1001C400C7280630FB001330FC00AD30FD00FD0BEA
:1001D400E928FC0BE928FB0BE92800000000861144
:0201E400080011
:1001E60083120313A301A4018316061006128612B6
:1001F6008611831225108130831699001815A020C8
:100206000330FB008A30FC005530FD00FD0B092948
:10021600FC0B0929FB0B09290000000083168C162C
:100226000C120B178B1704308312C7007720700847
:100236008312A8000530C700772070088312A90032
:100246000830C700772070088312B6000930C7004F
:10025600772070088312B7000C30C700772070082B
:100266008312B8000D30C700772070088312B900DA
:100276000330FB008A30FC005530FD00FD0B4129A0
:10028600FC0B4129FB0B4129000000002808FF3A1E
:10029600031956293608FF3A031956293808FF3A32
:1002A600031956296F295330BA003030BB0032305B
:1002B600BC003030BD003030BE003030BF003030C2
:1002C600C0003030C1004430C2003330C300453076
:1002D600C4003A30C700C2201A30FB005E30FC0072
:1002E6006E30FD00FD0B7529FC0B7529FB0B75297E
:1002F60000002408013A031D072AA4012B08313AFD
:10030600031DC4292C08323A031DC4293308313A87
:10031600031D9C292E08A8002F08A9000430C70039
:100326002808C800812005308312C7002908C800A4
:10033600812083123308323A031DB0292E08B600F5
:100346002F08B7000830C7003608C80081200930DA
:100356008312C7003708C800812083123308333A56
:10036600031DC4292E08B8002F08B9000C30C70099
:100376003808C80081200D308312C7003908C8002C
:10038600812083122B08313A031D072A2C08303AA4
:10039600031D072A2D08443A031D072A2E0828069E
:1003A600031DE3292F082906031DE3293308313AE3
:1003B600031DDE2906143308303A031DE32906100F
:1003C6002E083606031DF5292F083706031DF529C5
:1003D6003308313A031DF02906163308303A031D57
:1003E600F52906122E083806031D072A2F08390696
:1003F600031D072A3308313A031D022A86163308DD
:0C040600303A031D072A86127C29082AC0
:02400E006A2125
:00000001FF
