:02000000842852
:10000800FF00030E8301BA000A08B9008A017008CC
:10001800A0000408A1008C1E442872207008003A31
:10002800031D1728112872207008013A031D44285F
:1000380079207008B2007008533A031D2A28A201DB
:100048002208273E840032088000A20A3208533A68
:10005800031938283208453A031938282208273E58
:10006800840032088000A20A3208453A031D442859
:100078002208273E840032088000A2010130A30034
:100088002008F0002108840039088A003A0E83000D
:06009800FF0E7F0E0900BF
:0E009E008312031326088A002508820008003A
:1000AC004F208A110A128000840AA50A0319A60A95
:0800BC00F003031D56280800A3
:1000C40083160313981690308312980083168614AF
:1000D400061183128C1E71281A08F0006B28080080
:0E00E4000030831203138C1A0130F000080064
:1000F200831203131A08F100981C8128181218168B
:060102007108F000080086
:1001080083120313A201A301831606100612861296
:1001180086118312241081308316990018156220E5
:100128000330FB008A30FC005530FD00FD0B9A2897
:10013800FC0B9A28FB0B9A280000000083168C16EB
:100148000C120B178B1730308312B5003130B60004
:100158003030B7003230B8003030B3003330B4003C
:100168000330FB008A30FC005530FD00FD0BBA2837
:10017800FC0BBA28FB0BBA28000000001A30FB0061
:100188005E30FC006E30FD00FD0BC828FC0BC82853
:10019800FB0BC82800000614061686160D30FB0057
:1001A800AF30FC00B630FD00FD0BD828FC0BD8287A
:1001B800FB0BD82800000610061286122308013A05
:1001C800031D2929A3012808313A031D29292908D3
:1001D800303A031D29292A08443A031D29292B08E6
:1001E8003506031D05292C083606031D0529300888
:1001F800313A031D002906143008303A031D052939
:1002080006102B083706031D17292C083806031D6E
:1002180017293008313A031D122906163008303ADA
:10022800031D172906122B083306031D29292C083C
:100238003406031D29293008313A031D242986165E
:0E0248003008303A031D29298612E2282A299F
:02400E006A2125
:00000001FF
