:02000000EA29EB
:10000800FF00030E8301DD000A08DC008A01700886
:10001800A1007108A0000408A2008C1E4628BE2179
:100028007008003A031D19281328BE217008013AE8
:10003800031D4628C5217008B7007008533A031DF0
:100048002C28A3012308443E840037088000A30A13
:100058003708533A03193A283708453A03193A2812
:100068002308443E840037088000A30A3708453A2D
:10007800031D46282308443E840037088000A30156
:100088000130AA002108F0002008F10022088400AD
:0E0098005C088A005D0E8300FF0E7F0E0900DB
:1000A600710DF80DF90D7408F8027508031C750F2B
:1000B600F902F00DF10D0F30FC00710DF80DF90D80
:1000C6007408701C6C28F8027508031C750FF90279
:1000D6007128F80775080318750FF907F00DF10D6B
:1000E600FC0B602870187D287408F807750803183B
:0800F600750FF9070000080076
:1000FE00831203137408003A031D8E287508003A04
:10010E00031D8E28FF30F0007F30F100E7288312A8
:10011E000313FD01F901F80171087004031900348D
:10012E0071087506FA00FA1BFD09FB01F51FA428DC
:10013E00F409F509F40A0319F50AF11FAB28F009C1
:10014E00F109F00A0319F10A71087504FA00FA1B95
:10015E00C02853207B18D328FD1F0034F009F10965
:10016E00F00A0319F10AF809F909F80A0319F90A4C
:10017E000034F51FCF28F11BCB287108F900700849
:10018E00F800F101F001B328F101F001F00A00349A
:10019E00F109F009FB0AB028F80A0319F90A7408E4
:1001AE007802031DB32875087902031DB328F901DF
:1001BE00F801F00A0319F10AF11FB3280000FF3409
:0201CE00080027
:1001D000043083120313FC003A30FD00FD0BEE28BF
:0801E000FC0BEE2800000800F2
:1001E800831603139818FA280000F4288312640869
:0401F8009900080062
:0E01FC008312031339088A00380882000800B5
:0E020A0000308316031398180130F00008002E
:1002180083120313E3015F08F1000130F000710855
:1002280003191A29F00D7010FF3E14297008E20016
:100238005E08840070080005F10071080130031D94
:100248000030F0006108F006031942296008003CFC
:1002580003183229E820E820E0032A295E088400F0
:1002680062080005F10071080130031D0030F0003C
:100278006108F00603194229FF30E3006308F00023
:0202880008006C
:10028A00831603139C1C4B290000452983125E0820
:10029A0083169B0083125F0883169A009C131C1511
:1002AA000B08F0008B1355309D00AA309D009C145A
:0E02BA00F01B61298B1362298B171C110800A1
:1002C800023083120313F4000030F5005E08F000DA
:1002D8005F08F1007F207808F0007908F10000300D
:1002E8007106031D792900307006031D7E29303000
:0A02F800B50080293130B500080080
:10030200831203138615DF01E0018030F000803094
:1003120060067002031D8F295F080A3C031CA22994
:1003220005217008003A031D9729912983125F085D
:100332005E0784000008E400F420DF0A0319E00AE3
:1003420086290630FB001330FC00AD30FD00FD0BAA
:10035200A829FC0BA829FB0BA82900000000861184
:02036200080091
:10036400FE208A110A128000840AB80A0319B90A05
:08037400F003031DB22908008B
:0E037C000030831203138C1A0130F0000800C9
:10038A00831203131A08F100981CCD2918121816A3
:06039A007108F0000800EC
:1003A00083160313981690308312980083168614D0
:1003B000061183128C1EDF291A08F000D9290800C3
:1003C000831203135E0883169B009C131C141A08E7
:0403D000F000080031
:1003D40083120313A3010130A400A5010130A60078
:1003E400A7010130A800A901AA0183160614061664
:1003F4008616861183122B108130831699001815E6
:10040400D0210330FB008A30FC005530FD00FD0B89
:10041400092AFC0B092AFB0B092A00000000831699
:100424008C160C120B178B1702308312DE00E0219E
:1004340070088312CF000330DE00E02170088312BD
:10044400D0000430DE00E02170088312C2000530C1
:10045400DE00E02170088312C3000630DE00E021D4
:1004640070088312BC000730DE00E021700883129C
:10047400BD000830DE00E02170088312BA000930A4
:10048400DE00E02170088312BB000A30DE00E021A8
:1004940070088312C0000B30DE00E0217008831264
:1004A400C1000C30DE00E02170088312BE000D3064
:1004B400DE00E02170088312BF000330FB008A30A5
:1004C400FC005530FD00FD0B652AFC0B652AFB0B77
:1004D400652A000000004F08FF3A03197A2A3C08F5
:1004E400FF3A03197A2A4008FF3A03197A2A932A11
:1004F4005330AC003030AD003230AE003030AF009D
:100504003030B0003030B1003030B2003030B300A1
:100514004230B4003330B5004530B6002C30DE0034
:1005240081215330D1004130D2004130D3004130D9
:10053400D4004130D5004130D6004130D70041309D
:10054400D8004130D9004130DA004530DB002A08B8
:10055400013A031D1D2BAA014608323A031D1D2B27
:100564004D08313A031DD52A4808CF004908D00068
:100574004B08C2004C08C3000230DE004F08DF0005
:10058400452103308312DE005008DF00452104308A
:100594008312DE004208DF00452105308312DE00AD
:1005A4004308DF00452183124D08323A031DF92A1E
:1005B4004808BC004908BD004B08BA004C08BB0001
:1005C4000630DE003C08DF00452107308312DE00E0
:1005D4003D08DF00452108308312DE003A08DF00C1
:1005E400452109308312DE003B08DF0045218312D8
:1005F4004D08333A031D1D2B4808C0004908C100AB
:100604004B08BE004C08BF000A30DE004008DF0083
:1006140045210B308312DE004108DF0045210C30F8
:100624008312DE003E08DF0045210D308312DE0018
:100634003F08DF00452106308312DE00DF01013070
:10064400E0000130E1000C21700803192A2B2B145F
:100654002B1C802B0630DE00DF010130E000E101BD
:100664000C2170080319802B0330FB008A30FC0036
:100674005530FD00FD0B3C2BFC0B3C2BFB0B3C2BAA
:10068400000000002B1C802B0630DE00DF0101304F
:10069400E000E1010C2170080319802B5330AC00F9
:1006A4003030AD003030AE004230AF004F08B00003
:1006B4005008B1004430B2004208B3004308B4000B
:1006C4003030B5004530B6002808DE002908DF00C8
:1006D4006421A80A0319A90A2C30DE0081212B10F9
:1006E4000630FB001330FC00AD30FD00FD0B782B11
:1006F400FC0B782BFB0B782B000000000630DE008F
:100704000430DF000130E0000130E1000C2170080A
:1007140003198D2B2B142B1CE52B0630DE00043023
:10072400DF000130E000E1010C2170080319E52B22
:100734000330FB008A30FC005530FD00FD0BA02B7C
:10074400FC0BA02BFB0BA02B000000002B1CE52BAB
:100754000630DE000430DF000130E000E1010C214E
:1007640070080319E52B5330AC003030AD00303045
:10077400AE004230AF003C08B0003D08B100443048
:10078400B2003A08B3003B08B4003030B50045303D
:10079400B6002408DE002508DF006421A40A03193A
:1007A400A50A2C30DE0081212B100630FB0013300B
:1007B400FC00AD30FD00FD0BDD2BFC0BDD2BFB0B3A
:1007C400DD2B000000000630DE000530DF000130C4
:1007D400E0000130E1000C2170080319F22B2B1406
:1007E4002B1C4A2C0630DE000530DF000130E0000F
:1007F400E1010C21700803194A2C0330FB008A30F4
:10080400FC005530FD00FD0B052CFC0B052CFB0BEF
:10081400052C000000002B1C4A2C0630DE0005309D
:10082400DF000130E000E1010C21700803194A2CBB
:100834005330AC003030AD003030AE004230AF0049
:100844004008B0004108B1004430B2003E08B30093
:100854003F08B4003030B5004530B6002608DE004D
:100864002708DF006421A60A0319A70A2C30DE003A
:1008740081212B100630FB001330FC00AD30FD004D
:10088400FD0B422CFC0B422CFB0B422C0000000005
:04089400A92A4B2C16
:02400E006A2125
:00000001FF
