:02000000D02905
:10000800FF00030E8301D4000A08D3008A01700898
:10001800A1007108A0000408A2008C1E4C28BE2173
:100028007008003A031D19281328BE217008013AE8
:10003800031D4C28C5217008C5007008533A031DDC
:1000480030280130AB000030AC00A3012308463E45
:10005800840045088000A30A4508533A03193E283E
:100068004508453A03193E282308463E84004508BA
:100078008000A30A4508453A031D4C282308463E3C
:10008800840045088000A3010130A400AB01AC0145
:100098002108F0002008F1002208840053088A0093
:0A00A800540E8300FF0E7F0E0900C6
:1000B200710DF80DF90D7408F8027508031C750F1F
:1000C200F902F00DF10D0F30FC00710DF80DF90D74
:1000D2007408701C7228F8027508031C750FF90267
:1000E2007728F80775080318750FF907F00DF10D59
:1000F200FC0B6628701883287408F8077508031823
:08010200750FF9070000080069
:0E010A0000308316031398180130F00008002F
:10011800831603139818922800008C2883125B0812
:040128009900080032
:10012C00043083120313FC003A30FD00FD0B9C28B5
:08013C00FC0B9C2800000800E8
:10014400831203137408003A031DB1287508003A9A
:10015400031DB128FF30F0007F30F1000A2983121B
:100164000313FD01F901F801710870040319003447
:1001740071087506FA00FA1BFD09FB01F51FC72873
:10018400F409F509F40A0319F50AF11FCE28F00958
:10019400F109F00A0319F10A71087504FA00FA1B4F
:1001A400E32859207B18F628FD1F0034F009F109D3
:1001B400F00A0319F10AF809F909F80A0319F90A06
:1001C4000034F51FF228F11BEE287108F9007008BD
:1001D400F800F101F001D628F101F001F00A003431
:1001E400F109F009FB0AD328F80A0319F90A74087B
:1001F4007802031DD62875087902031DD628F90153
:10020400F801F00A0319F10AF11FD6280000FF349F
:020214000800E0
:0E0216008312031342088A0041088200080088
:1002240083120313DA015608F1000130F00071085B
:1002340003192029F00D7010FF3E1A297008D90007
:100244005508840070080005F10071080130031D91
:100254000030F0005808F006031948295708003CFC
:100264000318382996209620D7033029550884008E
:1002740059080005F10071080130031D0030F00039
:100284005808F00603194829FF30DA005A08F0002C
:02029400080060
:10029600023083120313F4000030F5005508F00015
:1002A6005608F100A2207808F0007908F100003025
:1002B6007106031D602900307006031D6529303064
:0A02C600BF0067293130BF000800B7
:1002D0008312031386150330FB008A30FC0055306F
:1002E000FD00FD0B7129FC0B7129FB0B712900002E
:1002F0000000D601D7018030F00080305706700230
:10030000031D842956080A3C031C97298520700880
:10031000003A031D8C29862983125608550784004C
:100320000008DB008C20D60A0319D70A7B2941304C
:10033000FC00EE30FD00FD0B9B29FC0B9B2900000F
:04034000861108001A
:10034400831603139816903083129800831686142C
:10035400061183128C1EB1291A08F000AB2908007B
:100364000B218A110A128000840AC10A0319C20AE5
:08037400F003031DB22908008B
:0E037C000030831203138C1A0130F0000800C9
:10038A00831203131A08F100981CCD2918121816A3
:06039A007108F0000800EC
:1003A00083120313A301A4010130A500A6010130AB
:1003B000A700A8010130A900AA01AB01AC01831676
:1003C00006140616861686118312351081308316A0
:1003D00099001815A2210330FB008A30FC0055302B
:1003E000FD00FD0BF129FC0BF129FB0BF1290000AD
:1003F000000083168C160C120B178B1730308312EB
:10040000AF003130B0003030AD003130AE003030B0
:10041000B3003230B4003030B1003230B20030308E
:10042000C3003330C4003030D1003330D200033049
:10043000FB008A30FC005530FD00FD0B1D2AFC0B33
:100440001D2AFB0B1D2A000000000630D500D60136
:100450000130D7000130D800122170080319312A69
:100460003514351CA62A0630D500D6010130D70038
:10047000D801122170080319A62A0330FB008A3024
:10048000FC005530FD00FD0B432AFC0B432AFB0BFF
:10049000432A00000000351CA62A0630D500D601EC
:1004A0000130D700D801122170080319A62A533051
:1004B000B6003030B7003030B8004230B9003030CC
:1004C000BA003130BB004430BC003030BD003130A8
:1004D000BE003030BF004530C0002708D5002808D6
:1004E000D6004B21A70A0319A80A00302C06031DC9
:1004F0007B2A01302B06031D7E2A752A4130FC0021
:10050000EE30FD00FD0B822AFC0B822A0000363003
:10051000D50068210330FB008A30FC005530FD0017
:10052000FD0B902AFC0B902AFB0B902A0000000088
:1005300035100D30FB00AF30FC00B630FD00FD0B78
:100540009F2AFC0B9F2AFB0B9F2A00000630D50038
:100550000430D6000130D7000130D80012217008D5
:100560000319B32A3514351C212B0630D50004306D
:10057000D6000130D700D801122170080319212BB1
:100580000330FB008A30FC005530FD00FD0BC62A0D
:10059000FC0BC62AFB0BC62A00000000351C212BD1
:1005A0000630D5000430D6000130D700D801122122
:1005B00070080319212B5330B6003030B7003030AB
:1005C000B8004230B9003308BA003408BB004430E8
:1005D000BC003108BD003208BE003030BF004530DD
:1005E000C0002908D5002A08D6004B21A90A031902
:1005F000AA0A00302C06031DFF2A01302B06031D1A
:10060000022BF92A3630D50068210330FB008A30EE
:10061000FC005530FD00FD0B0B2BFC0B0B2BFB0BDB
:100620000B2B0000000035100D30FB00AF30FC003C
:10063000B630FD00FD0B1A2BFC0B1A2BFB0B1A2BF3
:1006400000000630D5000530D6000130D70001305B
:10065000D8001221700803192E2B3514351C9C2B41
:100660000630D5000530D6000130D700D801122160
:10067000700803199C2B0330FB008A30FC005530B6
:10068000FD00FD0B412BFC0B412BFB0B412B000014
:100690000000351C9C2B0630D5000530D6000130FB
:1006A000D700D8011221700803199C2B5330B600D3
:1006B0003030B7003030B8004230B9004308BA00DB
:1006C0004408BB004430BC005108BD005208BE00C5
:1006D0003030BF004530C0002508D5002608D600C0
:1006E0004B21A50A0319A60A00302C06031D7A2BFC
:1006F00001302B06031D7D2B742B3630D50068216D
:100700000330FB008A30FC005530FD00FD0B862BCA
:10071000FC0B862BFB0B862B0000000035100D30E8
:10072000FB00AF30FC00B630FD00FD0B952BFC0B41
:0C073000952BFB0B952B0000252A9D2B20
:02400E006A2125
:00000001FF
