:02000000CA290B
:10000800FF00030E8301D2000A08D1008A0170089C
:10001800A1007108A0000408A2008C1E4628B8217F
:100028007008003A031D19281328B8217008013AEE
:10003800031D4628BF217008C1007008533A031DEC
:100048002C28A3012308423E840041088000A30A0B
:100058004108533A03193A284108453A03193A28FE
:100068002308423E840041088000A30A4108453A1B
:10007800031D46282308423E840041088000A3014E
:100088000130A4002108F0002008F10022088400B3
:0E00980051088A00520E8300FF0E7F0E0900F1
:1000A600710DF80DF90D7408F8027508031C750F2B
:1000B600F902F00DF10D0F30FC00710DF80DF90D80
:1000C6007408701C6C28F8027508031C750FF90279
:1000D6007128F80775080318750FF907F00DF10D6B
:1000E600FC0B602870187D287408F807750803183B
:0800F600750FF9070000080076
:0E00FE0000308316031398180130F00008003C
:10010C008316031398188C2800008628831259082C
:04011C00990008003E
:10012000043083120313FC003A30FD00FD0B9628C7
:08013000FC0B962800000800FA
:10013800831203137408003A031DAB287508003AAC
:10014800031DAB28FF30F0007F30F1000429831233
:100158000313FD01F901F801710870040319003453
:1001680071087506FA00FA1BFD09FB01F51FC12885
:10017800F409F509F40A0319F50AF11FC828F0096A
:10018800F109F00A0319F10A71087504FA00FA1B5B
:10019800DD2853207B18F028FD1F0034F009F109F1
:1001A800F00A0319F10AF809F909F80A0319F90A12
:1001B8000034F51FEC28F11BE8287108F9007008D5
:1001C800F800F101F001D028F101F001F00A003443
:1001D800F109F009FB0ACD28F80A0319F90A74088D
:1001E8007802031DD02875087902031DD028F9016B
:1001F800F801F00A0319F10AF11FD0280000FF34B2
:020208000800EC
:0E020A008312031340088A003F088200080098
:1002180083120313D8015408F1000130F00071086B
:1002280003191A29F00D7010FF3E14297008D70021
:100238005308840070080005F10071080130031D9F
:100248000030F0005608F006031942295508003C12
:100258000318322990209020D5032A2953088400B6
:1002680057080005F10071080130031D0030F00047
:100278005608F00603194229FF30D8005808F00044
:0202880008006C
:10028A00023083120313F4000030F5005308F00023
:10029A005408F1009C207808F0007908F100003039
:1002AA007106031D5A2900307006031D5F2930307C
:0A02BA00BD0061293130BD000800CD
:1002C4008312031386150330FB008A30FC0055307B
:1002D400FD00FD0B6B29FC0B6B29FB0B6B2900004C
:1002E4000000D401D5018030F00080305506700242
:1002F400031D7E2954080A3C031C91297F207008A1
:10030400003A031D86298029831254085307840068
:100314000008D9008620D40A0319D50A752941306A
:10032400FC00EE30FD00FD0B9529FC0B9529000027
:040334008611080026
:100338008316031398169030831298008316861438
:10034800061183128C1EAB291A08F000A529080093
:1003580005218A110A128000840ABF0A0319C00AFB
:08036800F003031DAC2908009D
:0E0370000030831203138C1A0130F0000800D5
:10037E00831203131A08F100981CC72918121816B5
:06038E007108F0000800F8
:1003940083120313A301A4010130A500A6010130B7
:1003A400A700A8010130A900AA01831606140616A5
:1003B400861686118312331081308316990018151E
:1003C4009C210330FB008A30FC005530FD00FD0BFE
:1003D400E929FC0BE929FB0BE9290000000083163D
:1003E4008C160C120B178B1730308312AD00313082
:1003F400AE003030AB003130AC003030B1003230C0
:10040400B2003030AF003230B0003030CF00333083
:10041400D0003030CD003330CE000330FB008A30C2
:10042400FC005530FD00FD0B152AFC0B152AFB0BB7
:10043400152A000000000630D300D4010130D50095
:100444000130D6000C2170080319292A3314331CF7
:100454008C2A0630D300D4010130D500D6010C21FA
:10046400700803198C2A0330FB008A30FC005530D5
:10047400FD00FD0B3B2AFC0B3B2AFB0B3B2A000037
:100484000000331C8C2A0630D300D4010130D5007F
:10049400D6010C21700803198C2A5330B400303073
:1004A400B5003030B6004230B7002D08B8002E0831
:1004B400B9004430BA002B08BB002C08BC00303013
:1004C400BD004530BE002908D3002A08D4004521C8
:1004D400A90A0319AA0A3430D30062210330FB00AD
:1004E4008A30FC005530FD00FD0B762AFC0B762A81
:1004F400FB0B762A0000000033100D30FB00AF30F8
:10050400FC00B630FD00FD0B852AFC0B852AFB0B95
:10051400852A00000630D3000430D4000130D50011
:100524000130D6000C2170080319992A3314331CA6
:10053400FE2A0630D3000430D4000130D500D601A1
:100544000C2170080319FE2A0330FB008A30FC00DA
:100554005530FD00FD0BAC2AFC0BAC2AFB0BAC2A7E
:1005640000000000331CFE2A0630D3000430D400FF
:100574000130D500D6010C2170080319FE2A53302E
:10058400B4003030B5003030B6004230B700310826
:10059400B8003208B9004430BA002F08BB00300854
:1005A400BC003030BD004530BE002708D300280809
:1005B400D4004521A70A0319A80A3430D3006221C4
:1005C4000330FB008A30FC005530FD00FD0BE82AA7
:1005D400FC0BE82AFB0BE82A0000000033100D3066
:1005E400FB00AF30FC00B630FD00FD0BF72AFC0B1E
:1005F400F72AFB0BF72A00000630D3000530D4009D
:100604000130D5000130D6000C21700803190B2BE2
:100614003314331C702B0630D3000530D400013062
:10062400D500D6010C2170080319702B0330FB0090
:100634008A30FC005530FD00FD0B1E2BFC0B1E2BDD
:10064400FB0B1E2B00000000331C702B0630D30064
:100654000530D4000130D500D6010C2170080319EF
:10066400702B5330B4003030B5003030B600423017
:10067400B7004F08B8005008B9004430BA004D081C
:10068400BB004E08BC003030BD004530BE0025081C
:10069400D3002608D4004521A50A0319A60A34303C
:1006A400D30062210330FB008A30FC005530FD008A
:1006B400FD0B5A2BFC0B5A2BFB0B5A2B0000000092
:1006C40033100D30FB00AF30FC00B630FD00FD0BE5
:1006D400692BFC0B692BFB0B692B00001D2A712B6A
:02400E006A2125
:00000001FF
